:020000040800F2
:100000000004002035730008894800088D48000866
:100010009148000895480008994800080000000031
:100020000000000000000000000000009D480008E3
:10003000A148000800000000A5480008A9480008E1
:10004000B1480008B5480008B9480008BD48000894
:10005000C1480008C5480008C94800082D490008E3
:100060009149000895490008994900089D490008F0
:10007000F9490008FD490008014A0008054A00083E
:10008000094A00080D4A0008114A0008154A0008EC
:10009000194A0008214A0008254A0008294A000890
:1000A000454A0008494A00084D4A0008514A0008DC
:1000B000554A0008594A00085D4A0008614A00088C
:1000C000654A0008694A00086D4A0008714A00083C
:1000D000754A0008794A00087D4A0008814A0008EC
:0C00E000854A0008894A00088D4A000883
:1000EC002DE9F04FA5B016001C00DFF83426D2E93C
:1000FC000023CDE91223049004AD69600020A862AE
:10010C000DF150096FF0004B00E0BE190020ADF866
:10011C00020012AB4FF0FF3231000DF1020006F07D
:10012C0073FF0700012804DA3078471EBF41FF43F4
:10013C00FF0FBDF80200252801D17A1E00E03A001D
:10014C00012A0ADB310002A801F04AF8002804D584
:10015C004FF0FF3025B0BDE8F08FBDF80200252828
:10016C0007D1002028616861A861E8612862686293
:10017C0005E00028C9D1A86AECE740F0010016F8A8
:10018C00011F2029F9D023290DD02B2904D02D298A
:10019C0006D030290BD00DE040F0020080B2EEE723
:1001AC0040F00400FAE740F0080080B2E7E740F0C6
:1001BC001000F3E72A290DD12268111D2160116866
:1001CC002963002904D54A422A6340F0040080B216
:1001DC00761C10E0002129630A2307E0296B59459E
:1001EC0003D001FB032130392963761C3278302A85
:1001FC0001D33A2AF2D331782E2903D04FF0FF31B4
:10020C00E9621BE016F8011F2A2906D12268111D8C
:10021C0021601168E962761C10E00021E9620A2372
:10022C0007E0E96A594503D001FB03213039E96243
:10023C00761C3278302A01D33A2AF2D3A886317848
:10024C00DFF8E00407F07CF808B116F8010B8DF824
:10025C0046009DF84600682806D1307868280CD1F5
:10026C0062208DF8460007E06C2806D130786C28A7
:10027C0003D171208DF84600761C14A8E86096F81E
:10028C0000C06046413800F0F080001F022840F2A8
:10029C00EC80133800F0A080093800F0E680801E56
:1002AC001AD0401E3DD0401E022840F2DE80001FB6
:1002BC0037D0401F00F01B81401E00F08D80401E87
:1002CC0000F05481C01E00F05F81801E00F084801D
:1002DC00C01E00F0818079E19DF846006C2809D0A1
:1002EC002869411C29612268111D2160116800F8E0
:1002FC00091075E12168081D2060086880B2ADF80E
:10030C0004000020ADF806004FF0FF30E86201A9B0
:10031C0002A800F009FA002840F162814FF0FF308A
:10032C005FE19DF846006C281BD071280BD120682A
:10033C00C01D072188432060014601F108002060A0
:10034C00D1E9002312E06A280BD12068C01D0721D7
:10035C0088432060014601F108002060D1E90023A8
:10036C0004E02168081D20600A68D3179DF8460038
:10037C00682801D112B207E0622801D152B203E021
:10038C00742801D07A2800D1D317002B06DC00DBAF
:10039C0004D228692D2100F809100FE0A88E10F066
:1003AC00020F04D028692B2100F8091006E010F088
:1003BC00010F06D02869202100F809102869401C7B
:1003CC002861286914A94018A860CDE90223614668
:1003DC0002A800F01BFB03E19DF846006C281BD023
:1003EC0071280BD12068C01D07218843206001466D
:1003FC0001F108002060D1E9002312E06A280BD13A
:10040C002068C01D072188432060014601F10800C7
:10041C002060D1E9002304E02168081D20600A68EF
:10042C0000239DF84600682801D192B207E06228AB
:10043C0001D1D2B203E0742801D07A2800D1002374
:10044C00A88E10F0080FBCD00BB9002AB9D04CF014
:10045C0020007828B5D12869302100F809102869C6
:10046C00401C286100F809C0A8E79DF846004C28FC
:10047C0020680AD1C01D072188432060014601F184
:10048C0008002060D1E9000109E0C01D0721884364
:10049C002060014601F108002060D1E90001CDE99E
:1004AC000201BDF80E0010F4004F04D028692D2174
:1004BC0000F809100FE0A88E10F0020F04D0286984
:1004CC002B2100F8091006E010F0010F06D0286966
:1004DC00202100F809102869401C2861286914A9FA
:1004EC004018A860614602A800F02AFB78E09DF84D
:1004FC00460062280CD068282AD06A2818D06C28AC
:10050C001FD071280BD074281BD07A2819D026E064
:10051C00A86A2268111D21601168087060E0A86A41
:10052C00C11723681A1D22601A68C2E9000157E03E
:10053C00A86AC11723681A1D22601A68C2E9000153
:10054C004EE02168081D20600868A96A016047E038
:10055C00A86A2268111D21601168088040E021689A
:10056C00081D20600868A96A016039E02168081D2F
:10057C0020600A6814A8A8604FF0FF3000211040DA
:10058C00CDE90201782123E79DF846006C2821680B
:10059C0013D0081D20600868A860EA6A002A02D5FA
:1005AC0006F0AAFB07E0002106F062F910B1A96879
:1005BC00401A00E0E86A686112E0081D20600968D2
:1005CC0002A800F0B1F800280AD5A7E62869411C5A
:1005DC002961BCF1000F08BF4FF0250C00F809C0D1
:1005EC000020761C00287FF4B3AD286B2969401AD3
:1005FC00E969401A6969401A296A401AA969401ABE
:10060C00696A471AA88E10F0040F12D120208DF8B9
:10061C0000004FF00008012F0BDB012200A902A8FB
:10062C0000F0DEFD00287FF493AD08F10108B84519
:10063C00F3DB2A6914A902A800F0D2FD00287FF48C
:10064C0087AD30208DF80000D5F81CA04FF00008C5
:10065C00BAF1010F0BDB012200A902A800F0C0FDCA
:10066C0000287FF475AD08F10108D045F3DB6A6909
:10067C00A96802A800F0B4FD00287FF469AD302011
:10068C008DF80000D5F820A04FF00008BAF1010F4A
:10069C000BDB012200A902A800F0A2FD00287FF4C8
:1006AC0057AD08F10108D045F3DBAA696869A96860
:1006BC00411802A800F094FD00287FF449AD3020C9
:1006CC008DF80000D5F824A04FF00008BAF1010F06
:1006DC000BDB012200A902A800F082FD00287FF4A8
:1006EC0037AD08F10108D045F3DBA88E10F0040FEC
:1006FC003FF40CAD20208DF800004FF00008012FC6
:10070C00FFF604AD012200A902A800F069FD002843
:10071C007FF41EAD08F10108B845BFF6F7ACF1E760
:10072C00247B00082C7B00082DE9F04F95B00500C8
:10073C008B466E6B002E48BF6FF0004607F04EFAEA
:10074C00A96B40180190B048D0E90001CDE9030134
:10075C00A88F10F0040F02D10198412806D20DF198
:10076C001409402001900020029009E005F004FCDF
:10077C008146B9F1000FF6D14FF0FF3041E1361B45
:10078C00012EC0F2B88003AABBF800100DF10100D5
:10079C0006F0D6FC040004D4BBF8000028B9641E93
:1007AC0003D54FF0FF300290A5E0A642C0F2A38023
:1007BC00A86901992218914280F08E800021A963CA
:1007CC004142686A081AE969401AA96A401A296AFA
:1007DC00401AE96A471AA88F10F0040F11D1202093
:1007EC008DF800004FF00008012F0ADB012200A950
:1007FC00280000F0F5FC00286CD108F10108B84580
:10080C00F4DBAA694946280000F0EAFC002861D113
:10081C0030208DF80000D5F824A04FF00008BAF174
:10082C00010F0ADB012200A9280000F0D9FC0028E6
:10083C0050D108F10108D045F4DBEA692969280098
:10084C0000F0CEFC002845D130208DF80000D5F802
:10085C0028A04FF00008BAF1010F0ADB012200A911
:10086C00280000F0BDFC002834D108F10108D04567
:10087C00F4DB2A6AE86929694118280000F0B0FC09
:10088C0040BB30208DF80000D5F82CA04FF00008AC
:10089C00BAF1010F09DB012200A9280000F0A0FC2D
:1008AC00C0B908F10108D045F5DBA88F10F0040F92
:1008BC0010D020208DF800004FF00008012F09DB2C
:1008CC00012200A9280000F08BFC18B908F10108DE
:1008DC00B845F5DB0020A86122000DF10101A869E3
:1008EC00484405F07BFDA8692018A8613BF8020B71
:1008FC0000287FF444AFA86BA969401A696A401AB2
:10090C00E969401AA96A401A296A401AE96A441A24
:10091C00A88F10F0040F0FD120208DF800000026B6
:10092C00012C09DB012200A9280000F059FC002849
:10093C005DD1761CA642F5DBAA694946280000F079
:10094C004FFC002853D130208DF800006E6A002730
:10095C00012E09DB012200A9280000F041FC00282F
:10096C0045D17F1CB742F5DBEA692969280000F004
:10097C0037FC00283BD130208DF80000AE6A0027F0
:10098C00012E09DB012200A9280000F029FC002817
:10099C002DD17F1CB742F5DB2A6AE8692969411819
:1009AC00280000F01DFC10BB30208DF80000EE6A12
:1009BC000027012E08DB012200A9280000F010FC02
:1009CC00A8B97F1CB742F6DBA88F10F0040F0ED02D
:1009DC0020208DF800000026012C08DB012200A944
:1009EC00280000F0FDFB10B9761CA642F6DB0020B7
:1009FC00A861A86305A881451CBF484605F0F8FB13
:100A0C00029815B0BDE8F08F047C00082DE9FA4778
:100A1C0086B08046D8F8140000909DF818006F2816
:100A2C0002D14FF0080907E040F0200078280CBFF5
:100A3C004FF010094FF00A093C24D8E900010600D8
:100A4C000F009DF81820642A01D0692A09D10029C9
:100A5C0007DC00DB05D200200021801BB941060019
:100A6C000F001FB916B9D8F8340050B3651E2C000E
:100A7C004FEAE97ACDE9029A30003900DDE9022328
:100A8C0005F036FACDE90401B246DDE90423DDE9CF
:100A9C000201A2FB00675046801B3030C0B23A28DE
:100AAC0003D39DF818105139081800996854DDE9E2
:100ABC00046707B92EB1D8F8100000996118884264
:100ACC00D4D3B9F1080F0CD1B8F83C0010F0080FD2
:100ADC0007D00098205C302803D0641E0098302189
:100AEC002154C4F13C00C8F81C0000996118C8F8E6
:100AFC001010D8F8341088420ADA081AC8F8240002
:100B0C00B8F83C004FF6EF710840A8F83C0014E030
:100B1C00002912D5B8F83C1001F0140110290CD1A1
:100B2C00D8F83810D8F81820891AD8F82420891A3F
:100B3C000C1A012CA8BFC8F8244008B0BDE8F087F7
:100B4C002DE9F24F8EB0060004AFD6E90001CDE9D5
:100B5C0000019DF8380040F020008DF80800612855
:100B6C000BD0706B002801D5062005E005D19DF84F
:100B7C000800672801D101207063F18847F6F070F6
:100B8C000840001140F2FF7290421CD111F00F0F7F
:100B9C0005D1B08818B9708808B9308848B10320DD
:100BAC00F0619DF83800612835D37B2833D2D5A16C
:100BBC0032E00320F0619DF83800612831D37B28A6
:100BCC002FD2D1A128E0012804DA300005F028F852
:100BDC0001281DDAF18848F20F02114043F6E07249
:100BEC001143F180A0F2FE354FF0FF309DF8081054
:100BFC0061291DD13269511C31613021117031696B
:100C0C004A1C32619DF83820612A0CD178220BE005
:100C1C0000250020EAE7CFA10322306905F0DEFBB6
:100C2C0095E1CDA1F8E758220A70B169891CB16130
:100C3C0010B90024002580E19DF80800612840F0DF
:100C4C009980706B002801D5212401E0441C24B24A
:100C5C0004F10108D6E900ABDDE900010022002314
:100C6C0006F0B4F82EBFCDE900AB8BF0004BCDE90C
:100C7C0000AB2D1F00208DF810000DF11109B8F1FB
:100C8C00010F35DBDDE900010022002306F0B6F888
:100C9C002ED21C2100A804F0C1FDDDE9000105F0F5
:100CAC0013FE0700A8F10708B8F1010F09DB06F0E5
:100CBC00BDF802000B00DDE9000104F05BFACDE9A0
:100CCC00000109F107000721012F0ADB491E08D496
:100CDC0007F00F0200F8012D3F11F5E7002200F894
:100CEC00012D491EFAD500F10709B8F1010FC9DA37
:100CFC000DF11100A9EB00000DF11107A042B8BFD6
:100D0C0004B2002C2FD4844206DA04A820184078B0
:100D1C00082801D30F2000E00020210004AA8A1823
:100D2C0001E0641E24B2491E12F801398342F8D046
:100D3C000F2804D104A808184278521C42700029CC
:100D4C0003D504AF641C24B22D1D200009E0C15D45
:100D5C003031C9B23A2903D39DF838203A3A5118A8
:100D6C00C155401EF3D5706B002840F1E680601E23
:100D7C007063E2E0DDE900010022002306F026F8B2
:100D8C003EBFDDE9000181F00041CDE900012DB24B
:100D9C0047F297506843714990FBF1F52DB2C5F1BC
:100DAC0007009046DFF8B89101281BDB0400DDE951
:100DBC0000AB14F0010F07D05046594642464B4643
:100DCC0004F006F982468B4664104046494642467A
:100DDC004B4604F0FDF880468946002CE9D1CDE95C
:100DEC0000AB22E044429246DFF878B113E014F0F5
:100DFC00010F07D05046594642464B4604F0E8F8DE
:100E0C0082468B4664104046494642464B4604F0A7
:100E1C00DFF880468946002CE9D1DDE90001524615
:100E2C005B4603F057F8CDE900019DF808006628F1
:100E3C0002D105F10A0000E00620716B4418142C55
:100E4C00A8BF132430208DF810000DF11107012CD0
:100E5C002DDBDFF8149111E0DDE9000105F04AFD0E
:100E6C0005F0EEFF02000B00DDE9000104F082F951
:100E7C0000224B4604F0ACF8CDE90001DDE900019D
:100E8C0005F038FD07F1080108220A23B0FBF3FC3A
:100E9C00E6460EFB1303DBB26046303301F8013D2E
:100EAC00521EF2D101F10807083C012CD4DA0DF1E5
:100EBC001100381A0DF111079DF81110302905D1C8
:100ECC00401E6D1E17F8011F3029F9D09DF808102F
:100EDC00662902D12DB2691C04E0652901D10121DA
:100EEC0000E00021726B8C1824B2A042B8BF04B28F
:100EFC00002C22D4844209DAE05D352806D339204F
:100F0C0005E000BF6E616E00696E66003020210046
:100F1C00CA19521E01E0641E24B2491E12F801398E
:100F2C008342F8D0392802D1C85D401CC85500292D
:100F3C0003D57F1E641C24B26D1C2DB220B523007A
:100F4C003A009DF84010300000F010F802B00FB0DD
:100F5C00BDE8F08F4E414E00494E4600A086010080
:100F6C00000024400000F03F84D797412DE9F04762
:100F7C0086B00400884615001E00BDF9387006F0D6
:100F8C009DFB406A90F800A0D4F83490012E01DA51
:100F9C00012692A548F0200066280AD0672840F068
:100FAC0086806FF003018F42C0F287804F4580F23C
:100FBC0084807F1C66280CD0A08F10F0080F02D103
:100FCC004E45B8BFB1463FB2B9EB070948BF4FF029
:100FDC0000092069E1693FB2012F25DA4A1C302350
:100FEC000B54B9F1010F03DAA18F11F0080F02D0E5
:100FFC0002F800A0521CE26179428945B8BFC9F1E0
:10100C0000073FB27942A162B944B145B8BF4E4620
:10101C0036B2266232002900E369181805F0DEF9B1
:10102C00A9EB0600E062C3E00818BE4218DA3200F1
:10103C00290005F0D3F9E1697118E161B81BA062D0
:10104C00B9F1010F03DAA08F10F0080F05D0206959
:10105C0001F800A0206A401C2062C4F82C90A7E084
:10106C003A00290005F0BAF9E0693818E061F61B7E
:10107C00B9F1010F03DAA18F11F0080F04D0411C54
:10108C00E161216900F801A036B2B145B8BF4E4606
:10109C0036B232007919E0692369C01805F09EF95F
:1010AC00E0693018E061A9EB0600A06280E0B8F1BD
:1010BC00610F16D14FF0700818E04E4504DAA18F7D
:1010CC0011F0080F08BFB146B9F1010948BF4FF044
:1010DC000009B8F1670F14BF4FF045084FF06508D1
:1010EC0004E0B8F1410F08BF4FF05008E1694A1C09
:1010FC00206915F8013B0B54B9F1010F03DAA18FEC
:10110C0011F0080F02D002F800A0521CE261B9F1F4
:10111C00010F11DB761E36B2B145B8BF4E4636B262
:10112C0032002900E369181805F058F9E069301805
:10113C00E061A9EB0600A062E0692169451805F899
:10114C00018B002F03D42B2005F8010B04E02D207C
:10115C0005F8010B3800474200260DF1080909E09B
:10116C000A22390000A806F09FFA019809F8010B31
:10117C00009F761C3FB2012FF2DA022E06DA48F0FD
:10118C002000652802D1302005F8010B4EB9302023
:10119C0005F8010B07E0761E02A8305C303005F82C
:1011AC00010B012EF7DAE06921694018281A206238
:1011BC00A08F00F0140010280DD1A069E169081867
:1011CC00A16A0818216A0818E16A0818A16B8842FC
:1011DC0001DA081A606206B0BDE8F0873000000042
:1011EC00F8B505000E00140000208CB14FF0FF374D
:1011FC0005E0286B401C28630020641E08D016F8FC
:10120C00011BE868AA689047E8600028F1D1380013
:10121C00F2BD000080B580B2002806D1DFF8DC0AF0
:10122C00006801210182002008E0DFF8C80A00688C
:10123C0000688047DFF8C40A00680A3002BD00006D
:10124C0080B5DFF8B0094078DFF8B01A0968C978C2
:10125C0088421AD3DFF8A40A00688078002814D1D9
:10126C00DFF8980A0068808800280ED1DFF88C0A15
:10127C000068DFF8881A0968C9788172DFF8740A87
:10128C00006840688047002000E0022002BD00009A
:10129C0080B580B2002806D1DFF8600A0068012111
:1012AC000182002008E0DFF84C0A00688068804763
:1012BC00DFF8480A00680C3002BD000080B5DFF88A
:1012CC003C0A0068C178DFF8340A00684079DFF81E
:1012DC00282A126892699047DFF8201A0968897ADF
:1012EC0000292AD0C0B200280BD1DFF8101A0968E7
:1012FC000979002905D1DFF8041A096889780029D1
:10130C0001D002201AE0C0B2002816D1DFF8E4099F
:10131C000068C0688047DFF8E4090068DFF8DC1972
:10132C0009684979C172DFF8D4090068DFF8CC1973
:10133C000968C9780173002000E0022002BD00009A
:10134C0080B580B2002806D1DFF8B0090068022110
:10135C000182002025E0364800210180DFF89C093D
:10136C000068007810F07F0F23D1DFF89009006837
:10137C00407A10F0200F05D02D49097851F0020168
:10138C002B4A117010F0400F0CD02948007810F047
:10139C00FE0027490870DFF85C0900680069804787
:1013AC00234802BD2248007850F001002049087003
:1013BC00F1E7DFF848090068007810F07F00012899
:1013CC0001D11B48EDE7DFF834090068007810F014
:1013DC007F00022829D1DFF824090068417911F037
:1013EC000F0011F0800F0FD0C0B2DFF8041851F8C5
:1013FC00200010F030001028CDD10D48007850F0AE
:10140C0001000B490870C6E7C0B2DFF8E41751F8C9
:10141C00200010F44050B0F5805FBCD10448007837
:10142C0050F0010002490870B5E70020B9E700BF91
:10143C00480A002010B5DFF8C4080068007810F0E6
:10144C007F0000280BD1DFF8B4080068407A10F058
:10145C00DF00DFF8A81809684872002090E0022825
:10146C0040F08D80DFF8940800684088002805D192
:10147C00DFF8880800680079002801D002207FE09E
:10148C00DFF87007DFF87418096849790B008022BF
:10149C0093431C00DFF864281268527912F0800F15
:1014AC0006D0DFF84C2752F8242012F0300205E069
:1014BC00DFF83C2752F8242012F440520078834283
:1014CC0007D2002A05D0DFF834080068807A00289B
:1014DC0001D1022054E011F0800F11D0DFF8100779
:1014EC0050F8240010F03000102841D12000C0B278
:1014FC0003F00AF830212000C0B202F081FF37E07F
:10150C00DFF8EC0650F8240010F44050B0F5805F82
:10151C002ED1002C18D11B4890F82C1089B2200029
:10152C00C0B203F051F8DFF8C80650F824004BF6AF
:10153C008F71084090F4805090F40050DFF8B01692
:10154C0080B241F8240013E02000C0B202F0C2FFC8
:10155C00DFF89C0650F824004BF68F71084090F48D
:10156C00805090F40050DFF8881680B241F82400C7
:10157C00DFF88007006840698047002000E0022007
:10158C0010BD0000400E002080B5DFF87007006829
:10159C004179080080229043DFF860271268527965
:1015AC0012F0800F06D0DFF8482652F8202012F0F7
:1015BC00300205E0DFF8382652F8202012F44052B1
:1015CC00DFF830361B7898420DD2DFF830371B68C5
:1015DC005B88002B07D1002A05D0DFF82027126882
:1015EC00927A002A01D1022025E011F0800F0ED052
:1015FC00DFF8FC1551F8201048F6BF72114091F03D
:10160C001001DFF8EC2589B242F820100DE0DFF86C
:10161C00E01551F820104BF68F72114091F4805167
:10162C00DFF8CC2589B242F82010DFF8C806006834
:10163C0080698047002002BD80B5DFF8C0060068D5
:10164C00407A50F02000DFF8B41609684872DFF8D1
:10165C00A4060068C0698047002002BDDFF89C2604
:10166C001268528A80B2002807D18888801ADFF865
:10167C008C1609680882002001E008681018704771
:10168C0070B5DFF87806006810F110052888A96895
:10169C0000291CD000281AD0AC88A04200D204002B
:1016AC00200080B2A9688847060028882100401ACB
:1016BC0028806888210008186880002002F06AFFE2
:1016CC00220092B2010089B2300005F069F9288835
:1016DC0000280BD0DFF824054FF440510180002185
:1016EC00002002F063FF9948302101802888A988E6
:1016FC00884205D3DFF804060068032101721BE061
:10170C002888012805D3DFF8F4050068052101724B
:10171C0012E0288800280FD1DFF8E00500680621C8
:10172C000172DFF86805006880B28749002241F831
:10173C00102086483021018070BD0000F8B5DFF81C
:10174C00BC05006810F110042088DFF8B01509689A
:10175C000D7A00281CD1042D1AD1DFF89C040078D6
:10176C00012810D1DFF82405006880B276490022E8
:10177C0041F810207548302101800425DFF87804E9
:10178C000021017030E007257048102101802BE00A
:10179C00A688864201D3042500E00225B04200D27F
:1017AC000600300080B2A16888470700002002F0D4
:1017BC00E5FE320092B2010089B2380005F0DAF889
:1017CC00310089B2002002F0F1FE20883100401A6D
:1017DC0020806088301860805C4830210180DFF800
:1017EC001C044FF440510180DFF8100500680572AD
:1017FC00F1BD000010B50220DFF8001509684C7827
:10180C00DFF8F8140968097811F07F0F56D1092C0C
:10181C0002D1FFF715FD71E0052C1BD1DFF8DC04BC
:10182C000068C078802811D2DFF8D0040068807876
:10183C0000280BD1DFF8C40400688088002805D18B
:10184C00DFF8B8040068807A002801D0082075E021
:10185C00002053E0032C17D1DFF8A0040068C078F7
:10186C0001280FD1DFF8940400688088002809D182
:10187C00DFF888040068407A10F0200F02D0FFF7E0
:10188C00DBFE3BE0022039E0012C37D1DFF86C04A1
:10189C000068C07801280FD1DFF8600400688088E8
:1018AC00002809D1DFF854040068407A10F0200FAA
:1018BC0002D0FFF7BFFD21E002201FE0DFF83C144F
:1018CC000968097811F07F01012904D10B2C15D17D
:1018DC00FFF7F4FC12E0DFF824140968097811F022
:1018EC007F01022909D1012C02D1FFF7A3FD05E0EC
:1018FC00032C03D1FFF748FE00E00220C0B2002801
:10190C000BD02000C0B2DFF8F01309684969884792
:10191C00C0B2032801D1092010E0C0B2002801D0C8
:10192C0008200BE00620DFF86413096889B2064A28
:10193C00002342F81130054930220A80DFF8BC132D
:10194C000968087210BD000004600040840A002081
:10195C0038B5DFF8A8030068407800240025062875
:10196C0024D1DFF898030068007810F07F0F40F066
:10197C00B780DFF8880300688078C0B2012804D1F2
:10198C00DFF874030068C469AAE0C0B2022804D16D
:10199C00DFF864030068046AA2E0C0B2032840F0D8
:1019AC009F80DFF854030068446A99E0002865D1F1
:1019BC00DFF848130968498800295FD1DFF83C1328
:1019CC000968C988022959D1DFF8301309680979E7
:1019DC00002953D1DFF824030068007810F07F0F42
:1019EC0007D1DFF8180300688088002801D17D4CEE
:1019FC0076E0DFF808030068007810F07F0001281B
:101A0C0010D10021BD4800684079BB4A1268926928
:101A1C009047002864D1B9480068807A00285FD0CC
:101A2C00704C5DE0B5480068007810F07F0002282B
:101A3C0056D1B2480068407910F00F00AF490968E0
:101A4C00497911F07001AD4A1268527912F0800F89
:101A5C0005D0674A52F8202012F0300204E0644AA4
:101A6C0052F8202012F44052624B1B78984237D225
:101A7C00002935D1002A33D05A4C31E0082807D13F
:101A8C009E480068007810F07F0F29D1564C27E053
:101A9C000A2825D199480068007810F07F000128A9
:101AAC001ED196480068807A002819D093480068A7
:101ABC004088002814D191480068007900280FD183
:101ACC008E480068C08801280AD100218B48006824
:101ADC004079894A126892699047002800D1434C9A
:101AEC002000002814D0854800684582834800688F
:101AFC0084610020A047002080490968098A4FF6BC
:101B0C00FF72914213D17D4800680921017268E08F
:101B1C007A48006840787849096809698847C0B2F2
:101B2C000328E9D1754800680921017259E0C0B257
:101B3C00022804D071480068008A002804D16F483C
:101B4C000068082101724CE06C480068007810F0C5
:101B5C00800F3ED069480068C088009000986749A3
:101B6C000968098A884204D2644800680099018295
:101B7C0025E062480068008A60490968C988884283
:101B8C001DD25E480068008A5B49096891F82C10E8
:101B9C0089B2884203D21848002101700FE05748DF
:101BAC000068008A5449096891F82C1090FBF1F2F6
:101BBC0002FB1100002802D10F48012101704F488F
:101BCC0000684D49096891F82C108182FFF7B6FD29
:101BDC0007E04A4800680321017208484FF440515D
:101BEC00018031BD4D130008211200089D12000820
:101BFC00005C0040740F00208A0A0020820A00203A
:101C0C0010B520482149096889B21F4A52F81110B1
:101C1C0089B210EB410439480068007A092820D0B9
:101C2C003648006821780170641C344800682178BB
:101C3C004170641CA41C2000841C008802F0F2FC7F
:101C4C002E4909684880A41C2000841C008802F0DE
:101C5C00E9FC2A4909688880A41C28480068218866
:101C6C00C180264800680121017224480068C088A0
:101C7C00002802D1FFF7BEFD01E0FFF769FE00F07E
:101C8C0067F810BD0060004008600040505C0040E8
:101C9C0080B51A480068007A022801D0042805D1C2
:101CAC00FFF74CFD15480068007A1CE0062819D196
:101CBC0012480068407805280ED11048006800785A
:101CCC0010F07F0F08D10D480068C07800F066F85E
:101CDC0008480068006A80470748006880688047A9
:101CEC00082000E0082005490968087200F030F867
:101CFC0002BD0000540A0020500A00204C0A0020AB
:101D0C0080B511480068007A032801D0052805D158
:101D1C00FFF7B6FC0C480068007A0EE0072805D1E6
:101D2C000A480068C0688047082006E0022801D0F5
:101D3C00042801D1082000E0082003490968087232
:101D4C0000F006F802BD00BF4C0A0020500A00202B
:101D5C0080B50E4890F82C1089B2002002F034FCAB
:101D6C000B480068007A082806D10A484FF48051C5
:101D7C00018009481021018005480068007A092873
:101D8C0001D1012000E00020C0B202BD400E0020B5
:101D9C004C0A0020820A0020840A002080B51249D7
:101DAC000A78002117E00B00DBB2DFF840C05CF8CA
:101DBC0023309BB248F68F7C1CEA03038C465FFAF7
:101DCC008CFC5CEA03038C465FFA8CFCDFF81CE0AD
:101DDC004EF82C30491C9142E5D3C0B250F0800033
:101DEC000349086001BD00BF740F0020005C004077
:101DFC004C5C00407047000080B503F0B5FF03F069
:101E0C0099FF322000F08EFF03F09CFF322000F08F
:101E1C0089FF03F08FFF322000F084FF03F092FF64
:101E2C00322000F07FFF03F085FF01BD80B503F089
:101E3C009BFF03F073FF322000F074FF03F074FF7C
:101E4C00322000F06FFF03F069FF322000F06AFFD0
:101E5C0003F06AFF322000F065FF03F05FFF01BD65
:101E6C0080B503F081FF03F049FF322000F05AFFE8
:101E7C0003F04CFF322000F055FF03F03FFF3220FF
:101E8C0000F050FF03F042FF322000F04BFF03F054
:101E9C0035FF01BD10B5094C0BE0207880B202F083
:101EAC000DFC80B20300626821780F4805F09CF8A5
:101EBC0008342078FF28F0D110BD00BF380C00206A
:101ECC0010B5084C0AE0207802F0A8FC80B20300A0
:101EDC0062682178044805F087F808342078FF28D8
:101EEC00F1D110BD900A00205C72000880B520482A
:101EFC0004F062FCDFF834054BF6EF610180DFF88B
:101F0C002C0501F03DFC012804D14FF48E711848CA
:101F1C0004F06EFC01F0F4FC4FF49071144804F0E2
:101F2C0053FC0DE013480178134805F05DF801F0FF
:101F3C00DDFC40B20100114805F056F8FFF776FFC2
:101F4C0001F0A8FC0028FBD04FF49371084804F072
:101F5C003BFC00220121074801F0A0FC0128E1D242
:101F6C0040F23111024804F039FCFFF779FFE7E742
:101F7C00A07B00088E0A0020B47A00086C70000860
:101F8C0080B5234804F018FCDFF8A00442F220517D
:101F9C000180DFF8980401F0F3FB012804D14FF421
:101FAC00A7711B4804F024FC01F0B6FCF72130208B
:101FBC0002F04CFC17486021017006E040F26911F8
:101FCC00134804F00BFCFFF74BFF4FF4FA7000F0D2
:101FDC00A9FE104800787A2803D10E4861210170BF
:101FEC0004E00C480078401C0A4908700948017844
:101FFC00094804F0F9FF012206494BF6EF6001F0A5
:10200C00EBFBC0B20028D9D1FFF7F6FEDDE700BF2D
:10201C00AC7B00088D0A00206476000870B596B081
:10202C000025002605A8402105F006FE002400A886
:10203C00102105F001FEDFF8F4034BF6EF6101808F
:10204C00DFF8E80301F09CFB012804D14FF4CE71BA
:10205C003A4804F0CDFB01F053FC31E0701C0090C9
:10206C0000200190002002900198401C0190280053
:10207C0010F00F0F24D1FFF7D9FEBDF90C00202171
:10208C0090FBF1F004F0FCFD04F09EFC03B404980A
:10209C0004F000FE060004980399081804F0FAFDF9
:1020AC000100300003F026F9254903F047FC04F049
:1020BC008BFC03B4069A0599224804F095FF04B0F2
:1020CC006D1C01F0E7FB0028FBD004AA68211E4818
:1020DC0001F0E4FB0128CAD31B480668BDF80C00CC
:1020EC00E4B205A931F81410401AADF80C00E4B2B2
:1020FC0005A8BDF8101020F81410BDF80C00E4B2BF
:10210C0005A931F814100818ADF80C00601C040077
:10211C00C0B2202800D100240098B04203D100980E
:10212C00401C0090A0E70098B04297D2029830185B
:10213C000099401A0290701C009095E77876000880
:10214C000000C842746D00082409002070B50026F8
:10215C0000240025B54842F220510180B34801F01B
:10216C000FFB012804D140F2F311384804F040FB76
:10217C00F721302002F06AFB6821354804F034FF67
:10218C00344804F031FF344804F02EFF334804F097
:10219C002BFF334804F028FF324804F025FFA448F5
:1021AC0000F068FE0600A34804F01EFFF6B2312EC4
:1021BC0006D0322E07D0332E08D0342E08D009E0AA
:1021CC004FF47A7608E042F2107605E0264E03E0F2
:1021DC00264E01E04FF47A763100254804F004FFD6
:1021EC0001F09AFB234800210160002004E0C0B2FA
:1021FC00204941180871401CC0B26428F7D31E480E
:10220C0004F0F2FE8A4800F035FE16E06822194907
:10221C004BF6EF6001F0E0FA16480068401C1549D7
:10222C000860280010F00F0F06D1FFF7E5FD1148EC
:10223C000168124804F0D8FE641C6D1CB442E5D34E
:10224C00002500240B4800210160D8E774720008B7
:10225C00946E00088C760008A07600088C7200083A
:10226C00A4720008BC720008A086010040420F0056
:10227C0088700008BC080020C06E0008B87B0008FD
:10228C0010B5544804F098FA534804F0ADFE534886
:10229C0004F0AAFE524804F0A7FE524804F0A4FE33
:1022AC00514804F0A1FE624800F0E4FD04006148CE
:1022BC0004F09AFEE4B2563C21004C4804F094FE23
:1022CC000B2C04DB1B2C02DA5848047106E0192194
:1022DC00474804F089FE5548192101714FF41B62DF
:1022EC0040F66511434804F07FFE50480079052103
:1022FC0040F62E1200FB01213F4804F075FE4B48BE
:10230C0042F20701418049480121417100F022FD50
:10231C0002F09EFC02F0D0FCC0B20100374804F081
:10232C0063FE02F0CFFCC0B20100354804F05CFE45
:10233C00344804F059FE344804F056FE334804F097
:10234C0053FE334804F050FE324804F04DFE2F4843
:10235C0004F04AFE304804F047FE304804F044FED6
:10236C002A4804F041FE2E4804F03EFE2D4804F0AD
:10237C003BFE264804F038FE2B4804F035FE2C4872
:10238C0000F078FD04002B4804F02EFEE4B220008F
:10239C0031280AD032280BD033280CD034280DD059
:1023AC0035280ED036280FD010E0FFF789FD0DE050
:1023BC00FFF770FD0AE0FFF799FD07E0FFF7E0FD7E
:1023CC0004E0FFF72BFE01E0FFF7C0FEE4B2782C2F
:1023DC00AED110BDC47B0008D47200080C6B000891
:1023EC004C6B00088C6B0008CC6B0008EC7200087E
:1023FC0004730008EC6E0008D46F0008D47A00084F
:10240C00E47A0008A4700008F47A00081C73000831
:10241C00C0700008DC700008047B0008147B000806
:10242C00F870000814710008D07B0008280A0020FE
:10243C0000380140C47A000870B504000D00002675
:10244C0000220020002300215FF0000CDFF838E4AC
:10245C0074451CD0DFF83404844218D0DFF8300403
:10246C00844214D0DFF82C04844210D0DFF8280406
:10247C0084420CD0DFF82404844208D0DFF8200416
:10248C00844204D0B121DFF8100504F0BBF9E878E0
:10249C00002819D0E878042816D0E878282813D01A
:1024AC00E878482810D0E87814280DD0E87810285F
:1024BC000AD0E8781C2807D0E878182804D0B22174
:1024CC00DFF8D40404F09EF92888002804D1B32145
:1024DC00DFF8C40404F096F9E87810F00F06E878F9
:1024EC0010F0100F0FD0A87801280AD0A878022875
:1024FC0007D0A878032804D0BA21DFF89C0404F094
:10250C0081F9A87806432888000624D02168002089
:10251C0006E0EA78482A02D1012282402261401C5E
:10252C00082817D2012383402A881A409A42F6D1F0
:10253C0083005FF00F0C1CFA03FC7FEA0C021140C5
:10254C0016FA03F21143EA78282AE2D101228240DA
:10255C006261E4E7216028884FF4807188422AD3B5
:10256C006168002024E001220300083312FA03F30F
:10257C002A881A409A421AD183005FF00F0C1CFA79
:10258C0003FC7FEA0C02114016FA03F21143EA78BD
:10259C00282A04D10122030008339A406261EA78A8
:1025AC00482A04D10122030008339A402261401CBE
:1025BC000828D8D3616070BD38B504000D00002028
:1025CC00DFF8C4128C421DD0DFF8C002844219D04F
:1025DC00DFF8BC02844215D0DFF8B802844211D077
:1025EC00DFF8B40284420DD0DFF8B002844209D087
:1025FC00DFF8AC02844205D040F21D11DFF89803DD
:10260C0004F000F9ADB2012D42D0ADB2022D3FD095
:10261C00ADB2042D3CD0ADB2082D39D0ADB2102DD9
:10262C0036D0ADB2202D33D0ADB2402D30D0ADB2BE
:10263C00802D2DD04FF48070ADB2854228D04FF450
:10264C000070ADB2854223D04FF48060ADB28542AC
:10265C001ED04FF40060ADB2854219D04FF48050BB
:10266C00ADB2854214D04FF40050ADB285420FD0BC
:10267C004FF48040ADB285420AD04FF40040ADB269
:10268C00854205D04FF48F71DFF80C0304F0BAF8D3
:10269C00A06815EA0001080080B2401E8041C043CA
:1026AC00C00FC0B232BD000038B504000D00764832
:1026BC00844217D07548844214D07548844211D096
:1026CC00744884420ED0744884420BD073488442C0
:1026DC0008D07348844205D04FF4B471DFF8B802C7
:1026EC0004F090F8ADB2002D05D140F26911DFF87D
:1026FC00A80204F087F8ADB2256131BD38B50400ED
:10270C000D006148844217D06048844214D0604860
:10271C00844211D05F4884420ED05F4884420BD073
:10272C005E48844208D05E48844205D04FF4BC71A8
:10273C00DFF8640204F066F8ADB2002D05D140F26A
:10274C007911DFF8540204F05DF8ADB2656131BD6A
:10275C0070B505000E0014004B48854217D04B484D
:10276C00854214D04A48854211D04A4885420ED041
:10277C00494885420BD04948854208D04848854293
:10278C0005D04FF4C671DFF8100204F03BF8B6B276
:10279C00012E42D0B6B2022E3FD0B6B2042E3CD09F
:1027AC00B6B2082E39D0B6B2102E36D0B6B2202E14
:1027BC0033D0B6B2402E30D0B6B2802E2DD04FF4DE
:1027CC008070B6B2864228D04FF40070B6B2864202
:1027DC0023D04FF48060B6B286421ED04FF4006016
:1027EC00B6B2864219D04FF48050B6B2864214D09D
:1027FC004FF40050B6B286420FD04FF48040B6B2C0
:10280C0086420AD04FF40040B6B2864205D040F260
:10281C008D11DFF8840103F0F5FFE4B2002C08D031
:10282C00E4B2012C05D04FF4C771DFF86C0103F052
:10283C00E9FFE4B2002C02D0B6B22E6101E0B6B2D0
:10284C006E6170BD38B504000D000F48844217D07E
:10285C000E48844214D00E48844211D00D48844254
:10286C000ED00D4884420BD00C48844208D00C4842
:10287C00844205D040F2A311DFF81C0103F0C2FF23
:10288C00ADB2E56031BD000000080140000C014014
:10289C00001001400014014000180140001C0140D0
:1028AC000020014038B504000D000020E4B2002CDB
:1028BC0016D0E4B2012C13D0E4B2022C10D0E4B246
:1028CC00032C0DD0E4B2042C0AD0E4B2052C07D0B2
:1028DC00E4B2062C04D04FF411712F4803F092FF90
:1028EC00EDB2002D31D0EDB2012D2ED0EDB2022D76
:1028FC002BD0EDB2032D28D0EDB2042D25D0EDB2A6
:10290C00052D22D0EDB2062D1FD0EDB2072D1CD017
:10291C00EDB2082D19D0EDB2092D16D0EDB20A2D5D
:10292C0013D0EDB20B2D10D0EDB20C2D0DD0EDB2AD
:10293C000D2D0AD0EDB20E2D07D0EDB20F2D04D017
:10294C0040F24521144803F05DFF0F2015F0030100
:10295C00C9B289008840EDB2A9100E4A52F8211074
:10296C00C0430840EDB2A9100A4A42F82100EDB26A
:10297C00A810084951F82000E4B215F00301C9B2BF
:10298C00890014FA01F10843EDB2A910014A42F88A
:10299C00210031BD08000140E465000880B54FF40A
:1029AC007A7000F0BFF901BD80B5642000F0BAF96F
:1029BC0001BD000000B585B05FF4E130009000204F
:1029CC00ADF804000020ADF806000020ADF80800BA
:1029DC000020ADF80C000C20ADF80A0000A9DFF8BF
:1029EC00900400F057FC0121DFF8840400F02EFD68
:1029FC0005B000BD80B502F033FD0121042000F0CC
:102A0C00A3FB0121082000F09FFB0121102000F006
:102A1C009BFB0121202000F097FB01214FF480400B
:102A2C0000F092FB0121012000F08EFB012101201E
:102A3C0000F05CFB01BD000080B500215FF0006080
:102A4C0002F0CAFE4FF4E06002F058FE06208DF84A
:102A5C00000000208DF8010000208DF802000120FC
:102A6C008DF8030000A802F065FE07208DF8000029
:102A7C0000208DF8010001208DF8020001208DF856
:102A8C00030000A802F056FE01BD000080B5002036
:102A9C0000F09EFA01215FF4000000F07FFB01BD05
:102AAC0080B51648032101600121012003F0D2FCFE
:102ABC0001BD000010B5104C5FF4803000F0FAF945
:102ACC0000F036FA012000F04FFA392000F094FBA8
:102ADC000028FAD0022000F05BFA00F073FA082804
:102AEC00FBD1A07A002803D004480521016002E044
:102AFC0002480121016010BDDC0900205C0A0020A5
:102B0C0080B54FF4A06002F0F9FD14208DF80000A0
:102B1C0001208DF8010000208DF8020001208DF8B5
:102B2C00030000A802F006FE2A208DF80000002009
:102B3C008DF8010000208DF8020001208DF80300B3
:102B4C0000A802F0F7FD0B208DF8000000208DF896
:102B5C00010000208DF8020001208DF8030000A870
:102B6C0002F0E8FD01BD000080B5C0B2002805D020
:102B7C004FF48071AB48FFF7C1FD04E04FF4807156
:102B8C00A848FFF791FD01BD80B54FF40070ADF87A
:102B9C00000003208DF8020018208DF8030000A916
:102BAC00A048FFF749FC4FF48060ADF8000004200A
:102BBC008DF8030000A99B48FFF73EFC0320ADF8FD
:102BCC00000004208DF8030000A99648FFF734FCA0
:102BDC004FF44870ADF8000003208DF8020010206F
:102BEC008DF8030000A91648FFF726FC4FF48070FF
:102BFC00ADF8000003208DF8020014208DF80300BE
:102C0C0000A98848FFF718FC4FF4F850ADF8000005
:102C1C0003208DF8020004208DF8030000A98248DF
:102C2C00FFF70AFC0420ADF8000003208DF8020029
:102C3C0004208DF8030000A90248FFF7FDFB01BD3D
:102C4C00000C01400014014000B583B000210020AD
:102C5C00FFF728FE0120009000208DF804000C20C6
:102C6C008DF8050001208DF8060000A802F0D0F8C0
:102C7C0001210020FFF716FE0220009000208DF8A5
:102C8C0004000C208DF8050001208DF8060000A82A
:102C9C0002F0BEF85FF4802002F086F95FF4802029
:102CAC00009008208DF8050001208DF8060000A882
:102CBC0002F0AEF807BD000016480268164800681E
:102CCC0016490968002A24D0154B9A70130ADFF8AC
:102CDC0050C08CF80430130CDFF844C08CF806306C
:102CEC00120E0F4B1A720E4A9072020A0C4B1A7388
:102CFC00020C0B4B9A73000E094A1074084881742D
:102D0C00080A074A1075080C054A9075080E044904
:102D1C0008767047E8F7FF1FECF7FF1FF0F7FF1F6F
:102D2C00DC0E002001B481B009480199016008480B
:102D3C0000680028FBD102B070470000044800680E
:102D4C00002804D002480068401E01490860704702
:102D5C00440A002000B587B0304803F02DFD012156
:102D6C0041F2040000F0F0F90121102000F0ECF920
:102D7C00E020ADF8000003208DF8020018208DF83B
:102D8C00030000A92748FFF757FB1020ADF80000FF
:102D9C0003208DF8020010208DF8030000A92148B3
:102DAC00FFF74AFBC020ADF8000003208DF80200AD
:102DBC0010208DF8030000A91B48FFF73DFB0020F5
:102DCC00ADF804004FF48270ADF806000020ADF8A9
:102DDC0008000020ADF80A000020ADF80C004FF4FC
:102DEC000070ADF80E001820ADF810000020ADF802
:102DFC0012000720ADF8140001A9094800F014FFD7
:102E0C000121074800F0C6FF40210748FFF74CFCA2
:102E1C0080210548FFF748FC07B000BD7C7B00080B
:102E2C0000300140000801400010014010B50400C2
:102E3C000A2C0ED10D210E4800F040FB80210C48CD
:102E4C0000F088FB0028F9D00A21094800F036FB75
:102E5C0005E02100C9B289B2054800F02FFB8021A2
:102E6C00034800F077FB0028F9D0200010BD0000CB
:102E7C000038014038B504002021200000F06AFB26
:102E8C000028F9D0200000F03FFB0500EDB229002E
:102E9C0089B2200000F012FB8021200000F05AFBC8
:102EAC000028F9D0EDB20D2D01D10A2001E0280047
:102EBC00C0B232BD10B50400002C0BD0B4F5803F6D
:102ECC0008D0B4F5802F05D040F21111DFF8C00303
:102EDC0003F098FCDFF8AC0300687FF48031084005
:102EEC00DFF8A0130860DFF89C0300687FF48021F2
:102EFC000840DFF8901308605FF48030241A04D087
:102F0C005FF44030241A09D010E0DFF87803006831
:102F1C0050F48030DFF86C13086007E0DFF86403CE
:102F2C00006850F4A020DFF85C13086010BD0000AE
:102F3C0080B50020009000200021312000F05CF9C9
:102F4C0001000098401C00900098B0F5A06F02D0D2
:102F5C00C9B20029F1D0312000F04EF9401E804159
:102F6C00C043C00FC0B202BD10B50400E4B2002CC7
:102F7C0008D0E4B2012C05D04FF4CA71DFF810036D
:102F8C0003F040FC0148E4B2046010BD6000424212
:102F9C0010B504000020002C09D0012C07D0022C05
:102FAC0005D04FF40D71DFF8E80203F02BFCDFF8CD
:102FBC0038010068032188432043DFF82C11086096
:102FCC0010BD0000DFF82001006810F00C00704705
:102FDC0010B50400002C07D0012C05D040F2D721ED
:102FEC00DFF8AC0203F00EFC0148046010BD00BF1A
:102FFC00D800424210B50022002100235FF0000CE3
:10300C00DFF8E4E0DEF800E01EF00C0E7246002A59
:10301C0004D0042A05D0082A06D025E02C490160EA
:10302C0024E02C49016021E02F49096811F470114A
:10303C002D4A126812F48033890C891C002B04D1A0
:10304C00254A01FB02F1016010E0274A126812F4D4
:10305C00003F04D0214A01FB02F1016006E01D4A49
:10306C0001FB02F1016001E0194901601E49096888
:10307C0011F0F00212091A4912F801C0016831FA74
:10308C000CF141601849096811F4E062120A144904
:10309C0012F801C0416831FA0CF1816012490968DB
:1030AC0011F46052D20A0E4912F801C0416831FA8B
:1030BC000CF1C1600C49096811F44042920B0949AA
:1030CC0012F801C0C168B1FBFCF1016110BD00BF79
:1030DC0000127A00001BB70000093D00808D5B00D8
:1030EC00400F0020700F00200410024038B504007F
:1030FC000D001348204201D1002C05D140F21A4199
:10310C00DFF88C0103F07EFBEDB2002D08D0EDB2A0
:10311C00012D05D040F21B41DFF8740103F072FB66
:10312C00EDB2002D05D00748006820430549086022
:10313C0005E004480068E14308400249086031BDDD
:10314C00A8FAFFFF1410024038B504000D002848FF
:10315C00204201D1002C04D140F237414C4803F0FD
:10316C0051FBEDB2002D07D0EDB2012D04D04FF480
:10317C008761474803F046FBEDB2002D05D00648A9
:10318C00006820430449086005E003480068E143F7
:10319C0008400149086031BD1810024038B50400E0
:1031AC000D001448204201D1002C04D140F25541AD
:1031BC00374803F027FBEDB2002D07D0EDB2012DFF
:1031CC0004D040F25641324803F01CFBEDB2002D06
:1031DC0005D00648006820430449086005E0034810
:1031EC000068E14308400149086031BD1C100240F1
:1031FC000200FFFFC03701C110B5040000210022FE
:10320C000020E4B2212C22D0E4B2312C1FD0E4B245
:10321C00392C1CD0E4B2412C19D0E4B2612C16D05C
:10322C00E4B27A2C13D0E4B27B2C10D0E4B27C2C18
:10323C000DD0E4B27D2C0AD0E4B27E2C07D0E4B2DF
:10324C007F2C04D040F21D51114803F0DBFAE4B29C
:10325C006109C9B2012902D10A48026806E00229B3
:10326C0002D10948026801E008480268E4B214F08F
:10327C001F01012088401040401E8041C043C00FF8
:10328C00C0B210BD001002402010024024100240B9
:10329C00A466000870B586B004000D000020002163
:1032AC00002200230026DFF894C2644514D0DFF816
:1032BC009002844210D0DFF88C0284420CD0DFF8EC
:1032CC008802844208D0DFF88402844204D0AD2105
:1032DC00DFF87C0203F096FA2868002803D02868EF
:1032EC005949884204D3AE21DFF8640203F08AFA0C
:1032FC00A888002809D0A8884FF48051884204D0AF
:10330C00AF21DFF84C0203F07DFAE888002813D0D7
:10331C00E8884FF4805188420ED0E8884FF4005171
:10332C00884209D0E8884FF44051884204D0B0213B
:10333C00DFF81C0203F066FA288900280ED02889D1
:10334C004FF48061884209D028894FF4C0618842CB
:10335C0004D0B121DFF8F80103F054FA68894FF674
:10336C00F371084202D16889002804D1B221DFF838
:10337C00E00103F047FAA889002813D0A8894FF47C
:10338C00807188420ED0A8894FF40071884209D010
:10339C00A8894FF44071884204D0B321DFF8B00102
:1033AC0003F030FAA889002810D0DFF8900184428D
:1033BC000CD0DFF88C01844208D0DFF888018442FD
:1033CC0004D0B721DFF8880103F01CFA2600208A0C
:1033DC004CF6FF710840E98808432082A0894EF61C
:1033EC00F3110840A9882A8911436A8911430843BB
:1033FC00A081A08A4FF6FF410840A9890843A0820A
:10340C0000A8FFF7F7FDDFF83401864201D10399DC
:10341C0000E002991920484329688900B0FBF1F2B9
:10342C006420B2FBF0F000010109642301FB1323BB
:10343C00190132316422B1FBF2F111F00F01084392
:10344C00208106B070BD00BF21AA440038B504002D
:10345C000D00DFF8E800844215D0DFF8E400844268
:10346C0011D0DFF8E00084420DD0DFF8DC0084429C
:10347C0009D0DFF8D800844205D04FF4A171DFF8F1
:10348C00D00003F0BFF9EDB2002D08D0EDB2012D44
:10349C0005D040F24311DFF8B80003F0B3F9EDB2F8
:1034AC00002D04D0A08950F40050A08104E0A08924
:1034BC004DF6FF710840A08131BD000038B5040005
:1034CC000D001E48844210D01D4884420DD01D486A
:1034DC0084420AD01C48844207D01C48844204D041
:1034EC0040F232211A4803F08DF94FF40070ADB25E
:1034FC00854204D340F23321154803F083F9E805E3
:10350C00C00DA08031BD000010B504000B488442F2
:10351C0010D00B4884420DD00A4884420AD00A4885
:10352C00844207D00948844204D040F24321084821
:10353C0003F068F9A088C005C00D10BD003801402B
:10354C000044004000480040004C00400050004047
:10355C006467000838B504000D0000202C498C422B
:10356C0010D02C4884420DD02B4884420AD02B48D2
:10357C00844207D02A48844204D040F213312948AF
:10358C0003F040F9ADB2012D23D0ADB2802D20D087
:10359C00ADB2402D1DD0ADB2202D1AD0ADB2102D34
:1035AC0017D04FF48070ADB2854212D04FF400703A
:1035BC00ADB285420DD0ADB2082D0AD0ADB2042DFE
:1035CC0007D0ADB2022D04D04FF44571154803F06D
:1035DC0019F94FF40070ADB285420DD10C488442FC
:1035EC000AD00C48844207D00B48844204D04FF4D4
:1035FC0046710C4803F006F9208815EA0001080012
:10360C0080B2401E8041C043C00FC0B232BD00BF6B
:10361C00003801400044004000480040004C00408D
:10362C0000500040646700080B320270984A126820
:10363C005279002A02D048F6610201E048F64102B4
:10364C00427092B2120A8270B94A1278C270904AD1
:10365C00126852888280C1808D490968098801816D
:10366C000A20704738B50D0014002200D2B20100B8
:10367C0089B28648FFF7D8FF002109E0C0B2C9B271
:10368C000A18824BC9B211F805C002F803C0491CD4
:10369C00C9B2E4B2A142F1D32018C0B232BD0000CD
:1036AC0010B5334C01F096FB04F0C2FA0121200056
:1036BC0001F038FB207810F07F002070207805286E
:1036CC001AD121782B4801F02DFB607810F02001E5
:1036DC00481E8041C043C00F884908732648407873
:1036EC0010F0800F3ED0E07891490978884239D1AA
:1036FC008F480121417035E094F900000B387F4967
:10370C00887121781B4801F00DFB607810F02001C6
:10371C00481E8041C043C00F7849087377482189FF
:10372C004180764815498160744890F906007349C8
:10373C0089684018714990F900204A73407810F05C
:10374C00800F0CD06D480078E178884207D0607803
:10375C0010F0DF00412802D1684801218173E07824
:10376C006649087004F066FA01F040FB10BD00BF1A
:10377C0048080020490800204C080020520800206E
:10378C0010B5040001F064FA012801D1012022E0F7
:10379C0004F050FA3E4804605848002181606448A7
:1037AC00012181706248002141603948006800792C
:1037BC0001F092FA36480068008801F099FA344812
:1037CC000068408801F09CFA882001F00FF8012075
:1037DC0002F000FB002010BD70B505000E001400B7
:1037EC0053488078002801D100F08AF86721200026
:1037FC00C0B204F099F9040001F0FEFA01F0EAFA03
:10380C002200D2B23100280080B2FFF72BFF01005A
:10381C00C9B21E4801F07EFA01F0E8FA01F08AFA0A
:10382C00002805D04FF4E771174802F0D7FF0124A8
:10383C0017480068407900280BD03D4800214170A2
:10384C00C820FFF76FFA3A484078441EA441E40FB1
:10385C0000E00024E4B2012C04D140F2E7110A4844
:10386C0002F0BCFF32488078002801D100F054F8F7
:10387C00E4B2002C04D12E480078401C2C4908706E
:10388C002000C0B270BD00BF94730008D4070020A4
:10389C00380A00201948807B7047000070B505007D
:1038AC000C00160004F0C6F92100C9B2134890F9B7
:1038BC000600C0B204F038F9C0B202000F488168AB
:1038CC00280004F039F9002E02D000F00FF83080F7
:1038DC000A480021817304F0ABF92100C9B20748F2
:1038EC0090F90600C0B204F01FF970BD80B501F06C
:1038FC00EFF90249497B081A40B202BD300F002093
:10390C0080B5044802F058FF09480121817001F08C
:10391C0055FA01BDA873000880B5044802F04CFFAD
:10392C0003480021817001F04FFA01BDBC730008FF
:10393C00200A002010B5002442E0DFF8E4020078F1
:10394C00DFF8D81251F82040A4B2200010F4004F38
:10395C001AD0DFF8CC020078DFF8C01251F8200042
:10396C0040F68F710840DFF8B8120978DFF8AC2206
:10397C0042F82100DFF8A8020078DFF8941211EB6E
:10398C00800050F8040C804714F0800F18D0DFF83A
:10399C0090020078DFF8841251F8200080B248F6CB
:1039AC000F710840DFF8781209789C4A42F8210020
:1039BC009B4800789B4911EB800050F8040C804721
:1039CC00944800689449088010F4004F00F01B8163
:1039DC00904847F6FF7101608F48008810F00F0087
:1039EC008F4908708E4800780028A6D18B48006853
:1039FC0010F44050844908808848006810F030006A
:103A0C0082490880854800684BF68F71084090F415
:103A1C000050824980B208608048006848F6BF7147
:103A2C00084090F020007D4980B208607A480088F8
:103A3C0010F0100F36D17948006880B248F60F713B
:103A4C00084076490860FEF723F9744800684BF685
:103A5C008F7108406C49098811F4805F01D090F493
:103A6C0080506949098811F4005F01D090F400502E
:103A7C006A4980B208606948006848F6BF7108401E
:103A8C006249098811F0100F01D090F010005F49C5
:103A9C00098811F0200F01D090F020005F4980B20E
:103AAC000860B0E05D480468A4B2200010F0800FFC
:103ABC0036D05A48006880B248F60F710840574912
:103ACC000860FEF7E5F8554800684BF68F71084022
:103ADC004D49098811F4805F01D090F480504A4917
:103AEC00098811F4005F01D090F400504B4980B26A
:103AFC0008604A48006848F6BF7108404349098885
:103B0C0011F0100F01D090F010004049098811F00D
:103B1C00200F01D090F02000404980B2086072E084
:103B2C00200010F4006F35D03C48006840F68F71CF
:103B3C0008403A490860FEF763F8384800684BF6CD
:103B4C008F7108403049098811F4805F01D090F4DE
:103B5C0080502D49098811F4005F01D090F4005079
:103B6C002E4980B208602D48006848F6BF710840A5
:103B7C002649098811F0100F01D090F0100023494C
:103B8C00098811F0200F01D090F02000234980B259
:103B9C00086038E014F4004F3FF412AF1F4800687F
:103BAC0040F68F7108401D490860FEF7A9F81B48C4
:103BBC0000684BF68F7108401349098811F4805F37
:103BCC0001D090F480501049098811F4005F01D0A5
:103BDC0090F40050114980B208601048006848F613
:103BEC00BF7108400949098811F0100F01D090F0FD
:103BFC0010000649098811F0200F01D090F0200028
:103C0C00064980B2086010BD820A0020840A002098
:103C1C00140F0020445C0040860A0020005C004029
:103C2C008B0A0020F80E002038B504000D0000208F
:103C3C00DFF890128C420CD0DFF88C02844208D052
:103C4C00DFF88802844204D0A221DFF8840202F05B
:103C5C00D9FD2888002813D028884FF48061884229
:103C6C000ED028884FF40041884209D028884FF4A0
:103C7C004041884204D0A521DFF8540202F0C2FD75
:103C8C0068884FF48271884207D06888002804D075
:103C9C00A621DFF83C0202F0B5FDA8884FF40061C4
:103CAC00884207D0A888002804D0A721DFF820027A
:103CBC0002F0A8FDE888002807D0E888022804D084
:103CCC00A821DFF80C0202F09DFD2889002807D0FE
:103CDC002889012804D0A921DFF8F40102F092FD13
:103CEC0068894FF40071884207D06889002804D095
:103CFC00AA21DFF8DC0102F085FDA889002819D083
:103D0C00A889082816D0A889102813D0A8891828A3
:103D1C0010D0A88920280DD0A88928280AD0A889D5
:103D2C00302807D0A889382804D0AB21DFF8A001AF
:103D3C0002F068FDE889002807D0E889802804D0C3
:103D4C00AC21DFF88C0102F05DFD288A012804D239
:103D5C00AD21DFF87C0102F055FD208810F44150B4
:103D6C0029886A881143AA881143EA8811432A8951
:103D7C0011436A891143AA891143EA891143084303
:103D8C002080A08B4FF2FF710840A083288A2082EC
:103D9C0031BD000038B504000D00DFF82801844265
:103DAC000DD0DFF82401844209D0DFF820018442D1
:103DBC0005D040F2AD11DFF8180102F023FDEDB291
:103DCC00002D08D0EDB2012D05D04FF4D771DFF8DE
:103DDC00000102F017FDEDB2002D04D0208850F048
:103DEC004000208004E020884FF6BF7108402080FE
:103DFC0031BD000038B504000D00DFF8C800844266
:103E0C000DD0DFF8C400844209D0DFF8C000844232
:103E1C0005D040F22521DFF8B80002F0F3FCA581B3
:103E2C0031BD000010B50400DFF8980084420DD0BD
:103E3C00DFF89400844209D0DFF89000844205D06A
:103E4C0040F23521DFF8880002F0DCFCA08910BDBF
:103E5C0038B504000D0000201A498C420AD01A48CB
:103E6C00844207D01948844204D040F201311848EA
:103E7C0002F0C8FCADB2802D19D0ADB2402D16D0D9
:103E8C00ADB2202D13D0ADB2102D10D0ADB2082D87
:103E9C000DD0ADB2042D0AD0ADB2022D07D0ADB20B
:103EAC00012D04D040F20231094802F0ABFC20890C
:103EBC0015EA0001080080B2401E8041C043C00FCB
:103ECC00C0B232BD0030014000380040003C004020
:103EDC00046700084FF4001C1CEB410F38BF1CEBAF
:103EEC00430F17D31CEB410F09D31CEB430F28BF17
:103EFC006FF000011B4248BF81F0004170471CEB82
:103F0C00430F18BF6FF0000102BF594001F0004190
:103F1C0000207047BCEB410F98BFBCEB430F39D965
:103F2C0050EA410C18BF52EA430C13D150EA410C31
:103F3C0081EA030101F000414FF000001EBF41F087
:103F4C00E04141F07F61704752EA430C08BF6FF0CB
:103F5C0000017047F0B475464FF40014B4EB410FF8
:103F6C0011D9B4EB430F07D902F0F0FE02F0E0FEDA
:103F7C00E41B7608AE4614E002F0DAFE5F00A4EB18
:103F8C005754AE460DE002F0E1FE4C00C7EB545422
:103F9C00AE4606E0F0B44C007641640D5F00A4EB35
:103FAC00575446F1000C04F580646FF0404606EA65
:103FBC00812545EA9055800206EA832343EA925311
:103FCC000221920227D0861A9D4143F0804304D2ED
:103FDC00641E76006D41B6185D4176006D419642C7
:103FEC0075EB030724BFB61A3D464941F5D34FF490
:103FFC00006076006D41964275EB030724BFB61A3C
:10400C003D464041F5D376006D41B61A75EB03077A
:10401C0008BF364249E0ED1A43F0804303D2641ED8
:10402C00400043EB45055B4200421AD041F48061ED
:10403C00001853EB450538BFED1A4941001853EBF6
:10404C00450538BFED1A4941001853EB450538BFFB
:10405C00ED1A4941001853EB450538BFED1A49419B
:10406C00ECD313EB450538BFED1A494113EB45056D
:10407C0038BFED1A494113EB450538BFED1A4941DC
:10408C00F4D34FF4006013EB450538BFED1A4041F3
:10409C0013EB450538BFED1A404113EB450538BF0E
:1040AC00ED1A4041EFD313EB45052CBF4FF0004503
:1040BC00002518BF45F0804540EA4150C90A641EEE
:1040CC002FDC41F48011D4F10104202C10DAC4F15E
:1040DC0020072D4225FA04F518BF45F0010500FA1A
:1040EC0007F63543E04001FA07F63043E14026E09D
:1040FC00342C12DC203C2D4208BF5FEA4007C4F18F
:10410C00200720FA04F518BF45F0010501FA07F65F
:10411C00354331FA04F0002111E000205FEACC7144
:10412C001AE021F4801111EB04515CBF11F5801FD2
:10413C0005E000204FF07F6141F0E0410AE06D00A6
:10414C0008BF10F0010F98BF5FEA350550F1000071
:10415C0041F1000141EACC71F0BC704780B5FEF72B
:10416C00ABFD994800680021817201F025FA0748DF
:10417C000021016006484FF43F4101800548044985
:10418C00098801603B480021016001BD445C00408E
:10419C00800A0020405C004080B58B4800680021FC
:1041AC008172894800680021C172874800682549DE
:1041BC00C9794172002000F00BF94FF40071002016
:1041CC0000F00EF91021002000F01AF9182100203F
:1041DC0000F0C4F95821002000F0B0F9002000F0E4
:1041EC006BF9194890F82C1089B2002000F0ECF90A
:1041FC00002000F04DF94FF4C061012000F0F0F800
:10420C004FF48071012000F099F94FF48271012074
:10421C0000F0A4F90221012000F0C8F902210120CC
:10422C0000F0D2F94FF44051012000F003F92021A5
:10423C00012000F0E5F80F48012101600020FDF796
:10424C00ADFD01BD686E0008400E002080B55E48D3
:10425C000068807A002806D00648052101600121FB
:10426C00014802F083F801BD0024014001480421FB
:10427C00016070475C0A0020704700007047000026
:10428C0080B50021C0B2062819D14F4A12681278A5
:10429C0012F07F02012A12D14B4A12685279002A7D
:1042AC000DD1494800688078222801D1114911E0CC
:1042BC0045480068807821280CD10F490AE0424A11
:1042CC001268127812F07F02212A03D1C0B203289F
:1042DC0000D10A490800002801D1022009E03A481F
:1042EC0000688161384800680022428200208847BB
:1042FC00002002BD7543000885430008BD4300083B
:10430C0080B531490968097811F07F01212905D15F
:10431C00C0B20B2802D100F043F800E0022002BD2D
:10432C0080B5024980B2FDF799F902BD500F00200B
:10433C0080B5024980B2FDF791F902BD580F0020FB
:10434C0080B521490968C978C9B2052901D3002073
:10435C0006E0C9B2034A12EBC10180B2FDF77EF947
:10436C0002BD00BFBC0E002080B5024980B2FDF733
:10437C0075F902BD600F002080B5024980B2FDF7CF
:10438C006DF902BD680F0020C9B2012901D30220CA
:10439C0005E0C0B2012801D3022000E000207047E4
:1043AC0009480068C0780949C0B20860002070470D
:1043BC0080B2002805D10448006801210182002048
:1043CC0000E00248704700004C0A0020580A002008
:1043DC004FF6F8710840DFF8401208607047000093
:1043EC00C0B2DFF83C2252F8202048F68F131A4056
:1043FC00114389B2C0B2DFF8282242F8201070476E
:10440C00C0B2DFF81C2252F8202048F6BF731A40C5
:10441C000B0013F0100F01D092F0100211F0200FCE
:10442C0001D092F02002C0B2DFF8F41192B241F840
:10443C0020207047C0B2DFF8E82152F820204BF65C
:10444C008F731A4011F4805F01D092F4805211F4F2
:10445C00005F01D092F40052C0B2DFF8C41192B2E6
:10446C0041F8202070470000C0B2DFF8B41151F8B9
:10447C00201048F6BF72114091F0100191F020010C
:10448C00C0B2DFF89C2189B242F8201070470000BE
:10449C00C0B2DFF88C1151F820104BF68F7211401E
:1044AC0091F4805191F40051C0B2DFF8742189B2BB
:1044BC0042F8201070470000C0B2DFF8641151F8C8
:1044CC00201048F68F621140C0B2DFF8542142F838
:1044DC0020107047C0B2DFF8481151F8201011F4C9
:1044EC00804F0FD0C0B2DFF8381151F8201089B2CC
:1044FC0048F68F72114051F48041C0B2DFF8202190
:10450C0042F8201070470000C0B2DFF8141151F8C7
:10451C00201011F0400F0FD0C0B2DFF8041151F889
:10452C00201089B248F68F72114051F04001C0B290
:10453C00DFF8EC2042F8201070470000DFF8D8209C
:10454C00126892B2C0B212EBC000304A89B249086C
:10455C0089B2490042F8101070470000DFF8B8200B
:10456C00126892B2C0B212EBC000294A89B2490853
:10457C0089B2490042F8101070470000DFF898101B
:10458C00096889B2C0B211EBC000204951F8100083
:10459C0080B27047DFF88010096889B2C0B211EBA5
:1045AC00C0001B4951F8100080B27047DFF868203A
:1045BC00126892B2C0B212EBC000DFF8602089B270
:1045CC0042F8101070470000134A126892B2C0B241
:1045DC0012EBC0000F4A12EB400089B23F290BD3FB
:1045EC0089B24A0911F01F0F00D1521E92B29102EA
:1045FC0051F40041016008E089B24A0811F0010F42
:10460C0000D0521C92B291020160704700600040D1
:10461C00086000400C600040505C004004600040AA
:10462C00005C0040010080B2C9B289B2090251EAB3
:10463C00102080B27047000080B5C0B201F014FCAD
:10464C0001F028FC01F020FC02BD000038B505008B
:10465C000C0008E0002001F007FC01F01BFC01F04D
:10466C0013FC2070641C2800451E80B20028F1D178
:10467C0031BD000038B505000C0005E0207801F0D4
:10468C00F3FB641C01F006FC2800451E80B20028D8
:10469C00F4D131BD10B504001021DFF8AC01FEF7E8
:1046AC002DF82000C0B2FFF7C7FF04001021DFF87F
:1046BC009801FDF7F9FF2000C0B210BD10B5040041
:1046CC001021DFF88401FEF719F8A4B2200A50F08B
:1046DC001000C0B2FFF7B0FF2000C0B2FFF7ACFF74
:1046EC000020FFF7A9FF04001021DFF85C01FDF7A3
:1046FC00DBFF2000C0B210BD70B504000D0010210E
:10470C00DFF84401FDF7FAFFA4B2200A50F02000B4
:10471C00C0B2FFF791FF06002000C0B2FFF78CFF7C
:10472C002800C0B2FFF788FF1021DFF81C01FDF74D
:10473C00BBFF3000C0B270BD70B504000D0010217D
:10474C00DFF80401FDF7DAFFA4B2200A50F02000D4
:10475C00C0B2FFF771FF06002000C0B2FFF76CFF7C
:10476C002800C0B2FFF768FFADB2280AC0B2FFF74D
:10477C0063FF1021DFF8D000FDF796FF3000C0B2C8
:10478C0070BD000070B504000D001021DFF8B800FA
:10479C00FDF7B4FF3020FFF74FFF06002900E4B20D
:1047AC00200080B2FFF752FF1021DFF89C00FDF7CC
:1047BC007BFF3000C0B270BD70B504000D0010213D
:1047CC00DFF88400FDF79AFF3A20FFF735FF06006B
:1047DC002900E4B2200080B2FFF74CFF1021DFF873
:1047EC006800FDF761FF3000C0B270BD38B5040041
:1047FC001021DFF85400FDF781FF5820FFF71CFF54
:10480C0005002000C0B2FFF717FF1021DFF83800B9
:10481C00FDF74AFF2800C0B232BD000010B50400FD
:10482C0010210948FDF76AFF54F08000C0B2FFF771
:10483C0003FF0020FFF700FF040010210248FDF7E2
:10484C0033FF2000C0B210BD0008014038B5040091
:10485C000D0010210848FDF751FF54F0C000C0B204
:10486C00FFF7EAFE2800C0B2FFF7E6FE102102486F
:10487C00FDF71AFF31BD00BF000801407047000072
:10488C00FEE70000FEE70000FEE70000FEE7000088
:10489C0070470000704700007047000080B5FEF7BD
:1048AC004DFA01BD704700007047000070470000D2
:1048BC0070470000704700007047000080B5012071
:1048CC0000F022FB002826D0134802F08DFB46484E
:1048DC000521017011480078002806D00F480021EE
:1048EC00017041480121417005E00C480121017023
:1048FC003D480021417002224FF480713A4802F089
:10490C0039F802210120FFF751FE0120FFF7ACFD21
:10491C00012000F049FB01BD44720008880A002008
:10492C0080B5022000F0F0FA002826D0134802F0DF
:10493C005BFB2D480621017011480078002806D039
:10494C000F480021017028480121417005E00C48F6
:10495C000121017024480021417002224FF4807122
:10496C00214802F007F802210120FFF71FFE012069
:10497C00FFF77AFD022000F017FB01BD5070000814
:10498C00890A002070470000704700007047000043
:10499C0080B51548072101701148006800091149BC
:1049AC000968B0EB1110052815D30D4800680009F3
:1049BC000D49487002224FF480710B4801F0DAFF68
:1049CC0002210120FFF7F2FD0120FFF74DFD054804
:1049DC00034909680160022002F012F901BD00BF11
:1049EC003C0A0020400A00207C0A0020704700008E
:1049FC0070470000704700007047000070470000CF
:104A0C0070470000704700007047000080B501F04F
:104A1C0017F801BD704700007047000080B54FF4D7
:104A2C00807000F071FA002805D0FEF739FE4FF4C3
:104A3C00807000F0B9FA01BD7047000070470000AB
:104A4C00704700007047000070470000704700007E
:104A5C00704700007047000070470000704700006E
:104A6C00704700007047000070470000704700005E
:104A7C00704700007047000070470000704700004E
:104A8C0080B55FF4802000F08FFA01BD40B20028A1
:104A9C0009D540B210F00F00064A8018C9B20901BE
:104AAC0000F8041C04E040B2034AC9B20901815465
:104ABC00704700BF18ED00E000E400E080B5B0F1F5
:104ACC00807F01D3012010E00002000A401E07493C
:104ADC0008600F215FF0FF30FFF7D8FF044800217A
:104AEC000160044807210160002002BD14E000E0D1
:104AFC0018E000E010E000E080B50E4801F05CFE2C
:104B0C00524801680C4802F06FFA504841680B4853
:104B1C0002F06AFA4D488168094802F065FA4B4880
:104B2C00C168084802F060FA48480169064802F07A
:104B3C005BFA01BDE4730008847100089C710008E5
:104B4C00B4710008CC710008E471000880B5FDF761
:104B5C00D7FFFDF79BFF02F073F801BD10B5FDF711
:104B6C0049FF3A48FEF746FAFDF766FFFEF70CF8E8
:104B7C00FEF76AF8FDF71EFF344800684FF47A71AF
:104B8C00B0FBF1F0FFF79AFF002800D0FEE7FFF72B
:104B9C00DDFF4FF4FA70FEF7C5F8214802F024FA55
:104BAC00204802F021FA204802F01EFA1F4802F0B9
:104BBC001BFA1F4802F018FA1C4802F015FA1D489F
:104BCC0002F012FA1C4802F00FFA1C4802F00CFA20
:104BDC00164802F009FA1A4802F006FA1948FEF7CC
:104BEC0049F90400184802F0FFF9E4B2200030281B
:104BFC0006D0312807D0322808D0332809D00AE053
:104C0C00FFF77AFF07E001F0D7F804E001F088FE27
:104C1C0001E0FDF735FBE4B2782CC1D1002010BDCA
:104C2C0034700008FC710008147700081472000836
:104C3C002C720008247700083477000844770008A9
:104C4C00887B00080038014054770008F8090020E0
:104C5C0010B5164801F0B0FD002001F0BBF80020A3
:104C6C0001F0E4F810211248FDF71EFD002001F0C0
:104C7C00EBF86E20FEF756F8012001F0E5F8C8209D
:104C8C00FEF750F8012001F0D1F8C820FEF74AF8E1
:104C9C00084C05E06178207880B2FFF72DFDA41C4C
:104CAC0020780028F6D1002010BD00BF707B0008D2
:104CBC0000080140700E002080B54020FFF7FEFC7C
:104CCC0002BD000080B54220FFF7F8FC02BD0000D9
:104CDC000F4800787047000080B5C0B205217FF006
:104CEC002B0200FB0121C9B22E20FFF7AFFD01BD45
:104CFC0080B5010089B24FF47D70FFF71DFD01BD39
:104D0C0080B5010089B240F2F230FFF715FD01BD0C
:104D1C007C0F002080B50A0001001000C0B2FFF724
:104D2C004BFD01BD80B50A0001001000C0B2FFF7B9
:104D3C0029FD01BD38B540F6C41400254FF480613F
:104D4C003248FDF739FC0028F8D002212220FFF769
:104D5C007DFD02E01420FDF7E5FF641E200080B20B
:104D6C00012809D34420FFF795FC4FF40071274824
:104D7C00FDF722FC0028EDD0A4B2002C09D140F2A2
:104D8C00D3110D4801F02AFD01254820FFF782FCC4
:104D9C000AE000254FF480611C48FDF70DFC00284B
:104DAC00F8D08120FFF722FD2C212220FFF74EFDA9
:104DBC002800C0B232BD00BF0477000880B5422085
:104DCC00FFF768FC01BD000080B54520FFF762FCD1
:104DDC0001BD000080B58820FFF708FD4FF48070FE
:104DEC0000F0E2F8002000F0F5FF01BD80B50120D5
:104DFC0000F0F0FF01BD000080B54FF400610348E6
:104E0C00FDF7DAFB0028F8D101BD000000100140CD
:104E1C0010B5040000202179002906D0207904283F
:104E2C0003D06921684801F0EDFC6079082809D0AD
:104E3C0060790C2806D06079102803D06A2162486A
:104E4C0001F0E0FC2068000D0005002802D120686C
:104E5C00002803D16B215C4801F0D4FCA079002818
:104E6C0006D0A079012803D06C21574801F0CAFC68
:104E7C004C48A179002939D04A4909682268D243A3
:104E8C001140484A11601D4909682268D2431140FB
:104E9C001A4A1160217908180168226811430160CF
:104EAC00174800682168C94308401549086015482F
:104EBC0000682168C94308401249086060791028CD
:104ECC000CD10F480068216808430D4908600D4853
:104EDC000068216808430B4908600EE0314861798D
:104EEC000818016822681143016006E0217908184E
:104EFC0001682268D2431140016010BD04040140D6
:104F0C00080401400C04014010B5040000200021ED
:104F1C00012C35D0022C33D0042C31D0082C2FD0BE
:104F2C00102C2DD0202C2BD0402C29D0802C27D0ED
:104F3C00B4F5807F24D0B4F5007F21D0B4F5806F18
:104F4C001ED0B4F5006F1BD0B4F5805F18D0B4F54B
:104F5C00005F15D0B4F5804F12D0B4F5004F0FD0D0
:104F6C00B4F5803F0CD0B4F5003F09D0B4F5802FD8
:104F7C0006D0B4F5002F03D0E421134801F042FC15
:104F8C000848006814EA000110480068044205D083
:104F9C000800401E8041C043C00F00E00020C0B29A
:104FAC0010BD00000004014010B50400200D0005E8
:104FBC00002801D1002C03D1FB21034801F022FC75
:104FCC000248046010BD0000846500081404014010
:104FDC00B0B581EA030C0CF0004C40F2FF7515EAF9
:104FEC0011541DBF15EA1357AC42AF423AE0E41915
:104FFC0023EA455343F48013C90241F0004141EACE
:10500C0050574FEAC02E1100AEFB020200284FF0A1
:10501C000000E7FB01204FF00001E3FB0E2118BF5D
:10502C0042F00102401800214941E3FB0701A4F5BD
:10503C0080640F0302D252004041494154F10104F3
:10504C006BDD470872F1004250F1000051EB045146
:10505C00A1F580115CBF41EA0C01B0BD4CEA0551D1
:10506C000020B0BD05EA1357AC4214BFAF4240E07C
:10507C0050EA410E1CBF52EA430E02E0614600208A
:10508C00B0BD24423C441AD13F42F7D0090302BFC1
:10509C0001460020143FB1FA81FEA7EB0E0401FA81
:1050AC000EF70EF10C0ECEF1200100FA0EFEC840E8
:1050BC0047EA000723EA455343F48013A3E733F090
:1050CC000043B3FA83F704BFB2FA82FE77440B3F76
:1050DC00E41BB7F1200E2FBF02FA0EF3BB40C7F151
:1050EC00200E22FA0EFE38BF43EA0E03BA40641CAF
:1050FC0082E750EA410E14BF52EA430E6FF00001F2
:10510C004FF4001717EB430F8ABF194617EB410FEB
:10511C00B6E74CEA05510020B0BDD4F10104B4F15E
:10512C0020070FDAC4F12007520828BF42F0010211
:10513C0010FA07F501FA07F7E1BF2A43E0403843BC
:10514C00E1400FE0352C99DCC7F1200452EA400213
:10515C0020FA07F218BF42F0010231FA07F0A14021
:10516C000A43002172F1004250F1000051EB0C0196
:10517C00B0BD0000F0B44FF0004591EA030F44BFFE
:10518C006B4000F0E2BC8B4208BF824205D98446DA
:10519C00100062464C19591923004FF4001C1CEBEB
:1051AC00410F06D308BF1CEB430F28BF6FF0000163
:1051BC0062E0BCEB430F14D9AB4352EA43060BD06D
:1051CC004FEA4C0CBCEB410F04D80C0D661E342E70
:1051DC0057DD51E0801A994150EA410608BF002181
:1051EC004AE00C0DA4EB1356362E45DC012E45DCA3
:1051FC004FEA045445EAC32343EA525312BFD20286
:10520C0092025B0845EAC12141EA5051D2EBC02021
:10521C00994125D404BF01460020B1FA81F601FA68
:10522C0006F1C6F1200220FA02F241EA020100FA6C
:10523C0006F002BF203609421EE04FEAF474B4EBCC
:10524C00465434F001064FEA740409D8D6F500161A
:10525C00760D2C40F04071FA06F25040F140484077
:10526C00C00A40EA415021EA050128BF5FEA500517
:10527C0050F1000044EBD121F0BC704745EAC32348
:10528C00DB0A45EAC121C90A202E0DDD203E63FA56
:10529C0006F5F3405D40124218BF45F001056D4222
:1052AC00984161F100010DE062FA06F5F24085EAE1
:1052BC00020563FA06FC82EA0C02F3405A406D4286
:1052CC009041994111F4801F05D1641E620502D0F2
:1052DC006D004041494121F480116D0008BF10F070
:1052EC00010F98BF5FEA350550F1000041EB045106
:1052FC00F0BC704710B5FF2313EAD0541DBF13EA5E
:10530C00D1529C429A4246E0A41ADA0780EA010381
:10531C00134042EA012142EA0020421A3CBF641EBB
:10532C0001EB4202090AB2FBF1F001FB102212025E
:10533C00B2FBF1FE01FB1E224EEA00201202B2FB70
:10534C00F1FE01FB1E224EEA00207F3410DDE40545
:10535C0052EAC07272F1004154EB500058BF10F584
:10536C00000F5CBF184310BDFF2043EAC05010BDB6
:10537C00D4F1020440F08070192C0ADCC4F1200135
:10538C0010FA01F10A4372F1004120FA04F058417D
:10539C0010BD180010BD4FF0807212EB400F3CBFD7
:1053AC0012EB410F14E012EB400F08D312EB410F3C
:1053BC0028BF6FF0000001F00041484010BD12EB17
:1053CC00410F12BF6FF00000484000F0004010BDCC
:1053DC0044001CBF5FEA41040DE0440080EA010078
:1053EC0000F000401CBF40EAC35010BD4A0008BF8B
:1053FC006FF0000010BD4FF08072B2EB400F20D95F
:10540C00B2EB410F0DD980EA010303F000434002D7
:10541C004902B0FA80F2B1FA81F49040A140A41A8A
:10542C007BE703EAD15490EA010303F00043400206
:10543C00B0FA80F290406442A41A090241F0004193
:10544C006BE703EAD05490EA010303F000434902EE
:10545C00B1FA81F29140A418000240F000405CE7E0
:10546C0080B55348006850F001005149086051481C
:10547C0000680F4908404F4908604D4800680D49C5
:10548C0008404B4908604A4800687FF48021084076
:10549C0047490860474800687FF4FE0108404549C9
:1054AC00086005485FF41F01016000F007F801BDBA
:1054BC000000FFF8FFFFF6FE0810024080B500F078
:1054CC0001F801BD82B00020019000200090384806
:1054DC00006850F48030364908603548006810F494
:1054EC00003000900198401C01900098002803D1D6
:1054FC000198B0F5A06FF0D12D48006810F4003081
:10550C00401E8041C043C00F0090009801284BD131
:10551C002648006850F010002449086023480068B1
:10552C0003218843214908602048006850F002009C
:10553C001E4908601F481F49096801601D481D4924
:10554C00096801601B48006850F4806019490860C4
:10555C00184800687FF47C1108401649086015480B
:10556C00006850F48810134908601148006850F026
:10557C0080700F4908600E48006810F0007FFAD068
:10558C000C480068032188430A49086009480068F0
:10559C0050F00200074908600648006810F00C0043
:1055AC000828F9D102B07047FEE700BF0020024086
:1055BC00001002400410024080B50120FDF7D4FA1F
:1055CC0001204D4980B208600948002101804A48F9
:1055DC0007490988016007480021016004484FF41D
:1055EC00E05101804448024909880160002002BD55
:1055FC00800A0020445C004080B53F48006850F0B1
:10560C0008003D4980B208603B48006850F0040037
:10561C00394980B20860FDF743FA01BD80B53648C0
:10562C0000684FF6FB710840334980B20860FDF703
:10563C0041FA31484FF43F41016001BD80B5C0B221
:10564C00072801D02B4908702A48007800280AD076
:10565C0001280ED0022812D0032817D0042822D0FB
:10566C0005282ED042E0FFF7D9FF22480621017011
:10567C003FE0FFF7D3FF1F480421017039E01D48BC
:10568C00022141701B480321017032E01948407817
:10569C00401E1849487017484078002829D11548F1
:1056AC000421017025E01448006850F010001249E4
:1056BC0080B208600F48052101700E480A21417024
:1056CC0017E00C484078401E0A4948700948407859
:1056DC0000280ED1084800684FF6EF7108400649C3
:1056EC0080B2086003480621017002E001480621DF
:1056FC00017001BD600A0020405C004010B5040040
:10570C00B4F5E06F0FD0B4F5C06F0CD0B4F5A06F4A
:10571C0009D0B4F5806F06D0B4F5407F03D0622178
:10572C003D4801F06FF8024820432A49086010BD3B
:10573C000000FA0538B50400002000210F25E2789E
:10574C00002A06D0E078012803D07421324801F0F9
:10575C0059F86078102803D375212F4801F052F8BE
:10576C00A078102803D376212B4801F04BF8E07871
:10577C0000281DD01748006810F4E060D0F5E060F8
:10578C00000AD0F10401C54060788840A178294016
:10579C000843000121780C4A8854207840110B49A9
:1057AC000122237813F01F039A4041F8202009E0CE
:1057BC002078401106490122237813F01F039A40E8
:1057CC0041F8202031BD00BF00E400E000E100E022
:1057DC0080E100E00CED00E038B504000D00B4F100
:1057EC00005F06D0B4F1006F03D09D210A4801F090
:1057FC0009F80648854203D39E21074801F002F8B8
:10580C000348284020430349086031BDFFFF0700CF
:10581C0080FFFF1F08ED00E02468000870B505004C
:10582C000C00E88847F6F0710840001140F2FF7652
:10583C00B0420DD1E88810F00F0F05D1A88818B927
:10584C00688808B9288808B1022070BD012070BD95
:10585C0030B9280000F0E4F9012801DB002070BD0C
:10586C000419B4420BDBE88810F4004F02D000207E
:10587C00304901E000203049C5E90001E6E7012C80
:10588C00E88809DB48F20F010840A4B240EA041092
:10589C00E8804FF0FF3070BD00F40040E98801F063
:1058AC000F0141F01001E980641E6FF033018C424E
:1058BC0005DAE8800020A8806880288070BD24B2BA
:1058CC006FF00E018C420BDA6A882A80AA886A80F3
:1058DC00EA88AA800022EA80103424B28C42F3DBDE
:1058EC00614209B20A001FD0C2F110022B880B4191
:1058FC00B5F802C00CFA02FC4CEA03032B806B884F
:10590C000B41B5F804C00CFA02FC4CEA03036B80A3
:10591C00AB880B41B5F806C00CFA02F21A43AA8008
:10592C00EA8822FA01F1E980E9880843E8804FF01F
:10593C00FF3070BD0000F0FF0000F07FA446FF2296
:10594C0012EAD0541DBF12EAD1539442934222E082
:10595C00E418D30780EA01021A4043EA012143EA22
:10596C000020A1FB003000424CBF641C4000803C76
:10597C0051DB5B08E40553EA006373F1004154EB1F
:10598C00102064465EBF10F5000F10437047FF20D7
:10599C0042EAC050704702EAD153944214BF93427A
:1059AC0023E042001CBF5FEA410204E0484000F0E3
:1059BC0000406446704780EA010202F00042244233
:1059CC000AD11B4238D04002B0FA80F4A0401C1B14
:1059DC00090241F00041C4E74902B1FA81F3994050
:1059EC00E41A000240F00040BBE7430014BF5FEA3A
:1059FC0041036FF000004FF0807313EB410F6446CE
:105A0C008ABF084613EB400F7047484000F0004037
:105A1C0040EAC2507047D4F10804202C0CDCC4F1CD
:105A2C0020015B0810FA01F10B4373F1004120FADD
:105A3C0004F05041644670471046644670470000BD
:105A4C0080B53748374909680180354800883649A0
:105A5C000988084010F4806F06D032484FF6FF31A9
:105A6C0001603248406880472D4800882E490988DB
:105A7C00084010F4005F03D02A484DF6FF71016016
:105A8C002748008828490988084010F4805F06D010
:105A9C0024484EF6FF7101600020FFF7CFFD20482F
:105AAC00008821490988084010F4006F0DD0204867
:105ABC000078002802D0FFF79FFD02E00220FFF7DC
:105ACC00BDFD18484FF2FF7101601548008816495A
