:020000040800F2
:1000000000500020A508000808B50020014B9847C3
:1000100008BD00BF3D0C000800B50A4B83B09847EF
:100020000024094B9847094D20464FF47A7102226B
:10003000074B0094A847074B20469847064B984724
:10004000FEE700BF490900085D000008B10E000886
:1000500009000008CD0E00080D010008704700BF20
:1000600038B5114D114C1248A0472846A0471148F9
:10007000A0472846A0471048A0471048A04710486E
:10008000A0471048A0471048A0471048A047104874
:10009000A0471048A0471048A0471048A04728464E
:1000A000A0470F48A04738BD44340008CD060008DB
:1000B0004034000880340008BC340008F8340008DC
:1000C0003435000870350008AC350008E835000804
:1000D00024360008603600089C360008D836000830
:1000E000A437000838B50548054CA047054B98478C
:1000F00005460548A047284638BD00BF143700080C
:10010000CD060008510B0008A43700082DE9F04F78
:100110004D4B8BB09847002001464C4A4C4B9847BA
:100120004C4B98474C4C4D4F4D4EDFF864814D4B36
:1001300098470346002860D0332B66D052D8312B25
:100140005ED0322BF3D1484DDFF848911CE00329F3
:10015000ACBF82464FF0030A4FF02C0B12B25A4547
:1001600004DC032AACBF9B464FF0030B3F4B984780
:100170005046594603220023DFF81CC1E047354BA7
:10018000984764203A4B9847A8470028CFD101A848
:10019000C8473848BDF90410A0473748BDF90610D4
:1001A000A0473648BDF90810A047BDF90A103448E9
:1001B000A047BDF90620BDF9043088FB021088FB7A
:1001C00003E1D217A2EBA010DB172A30A3EBA11397
:1001D00080B2183301B29BB250299AB2B7DD4FF00A
:1001E000500AB9E74D2B01D06D2BA0D1164B984783
:1001F0001C4B9847034600289ED10BB0BDE8F08FFA
:100200002048A047194B984791E700250CE00023B0
:10021000E8B205A98DF814300135B8471A489DF8A1
:100220001410A047762D82D0ABB2A6FB0312D208E1
:1002300002EB8202A3EB42039BB2002BE7D11348EF
:100240002946A047E3E700BF61000008183700080F
:1002500079130008D1130008CD060008A51B00087B
:10026000CDCCCCCCE5000008610B0008E5120008FD
:10027000F9090008343700083C3700084437000803
:100280004C3700082837000860370008543700084A
:100290001F85EB51451C0008E113000838B5094BD8
:1002A0001B7863B10446084B084A196810684D1C56
:1002B0001D6044541B6812680021D15438BD044BA2
:1002C000984738BD0404002000040020BC0400202E
:1002D000250B000858B138B50C4639B1087828B15B
:1002E000034DA84714F8010F0028FAD138BD704714
:1002F0009D020008E8B10378DBB100230B600278AF
:10030000E2B130B4A2F13004E2B2092A02D912E01B
:10031000092D10D803EB830304EB43030B6010F8A3
:10032000012FA2F13004E5B2002AF1D1012030BC46
:10033000704700207047002030BC70470120704794
:100340002DE9F047002784B0B1F1000980460097FD
:100350000378C0F2AE80B3B3642B34D00024A2463D
:100360002646624DA3F13102082A56D818F80A2011
:10037000A2F13003092B00F2998001A886460AF108
:100380000103434400210EF8012BC8EB030A13F8C4
:10039000012B0131A2F1300CBCF1090FF3D904ABF0
:1003A0005A18694602F80C6C0AF1FF3AA8470AF19C
:1003B000010A18F80A300BB1642BD3D1002F40F09A
:1003C0008180009868BB0A25494C0122494E4A4F5A
:1003D0000AE0B04787FB0413013D4FEAE4744FF095
:1003E0000002C4EBA30415D099FBF4F3D8B230306B
:1003F00004FB1399002BECD1012CEAD0002AE8D0A1
:1004000087FB0413013D4FEAE4744FF00102C4EB93
:10041000A304E9D104B0BDE8F087302B08BF012464
:10042000C5E709283DDC0128A0F1020150D0C21E19
:100430000A23013903EB83034D1C4FEA4303F8D130
:1004400099FBF3F6022803FB16963FD013460A25C4
:10045000013B05EB85055A1C4FEA4505F8D1254FB0
:10046000DFF894804FF001090FE0012D15D0B9F1AC
:10047000000F12D0302004B92020B84788FB052394
:10048000ED17C5EBA305002DC4DD96FBF5F2D0B248
:10049000303005FB1266002AE7D0B8474FF000095C
:1004A000ECE70920009006220721C1E7002101A8FE
:1004B00075E7C9F100091C4623B1642B01D001275F
:1004C0004CE73C462D200B4FB8477AE70A25C6E794
:1004D000094B4FEAE97683FB0923C6EBA30606EB3B
:1004E0008603A9EB43066FF00103B0E7F5020008AD
:1004F00000CA9A3B9D020008676666662DE9F043D4
:10050000037887B00024814601910294002B5BD0D0
:10051000782B59D0A04626466A4DA3F13102082A0D
:100520004ED819F80820A2F13003092B00F2AC8054
:1005300003A8074608F101034B44002107F8012BEB
:10054000C9EB030813F8012B0131A2F1300EBEF103
:10055000090FF3D906AB5A1802A902F80C6C08F17E
:10056000FF38A84708F1010819F808300BB1782BBB
:10057000D3D1019A029B12BA019243B3DA074FD446
:100580000122C3F1080303EBD3735D10032D38DCA4
:1005900001AB1D4415F8013B4B4E03F00F071B093F
:1005A000B1460DF108085DD0092B88BF03F1370073
:1005B00040F28180B047002F46D107F1300047E07C
:1005C000302B08BF0124CDE7019B1BBA01933E4F9E
:1005D00001AE0122002516F8013B03F00F041B09B0
:1005E0001AD0092B88BF03F1370061D9B84700231F
:1005F00054B9032D62D00122002B5FD00135042DA8
:10060000E9D107B0BDE8F083092C88BF04F13700B9
:1006100054D9B8470022F1E7002A49D00123E7E77F
:10062000C3F1070303EBD37306AA02EB630313F8CA
:10063000143C13F00F032AD0092B36D903F13700ED
:10064000214EB047002227E0092FB6D907F1370025
:10065000B04700224545D4D015F8013B03F00F0701
:100660001B09A1D13AB33CB13020B047002FEBD1E8
:100670003020C8470122EDE72020B047002FE3D10A
:100680002020C8470122E5E7002103A862E73CB12A
:1006900030200D4EB0470122029B013B029370E7D0
:1006A0002020094EB0470122F6E703F13000C7E7EA
:1006B00003F130009AE703F130007BE704F13000EA
:1006C000A7E700BFF50200089D0200080FB4F0B5CF
:1006D00085B00AAD314B002255F8044B304E1A70EC
:1006E000207858B325282ED101A98DF80400631C69
:1006F00004F10A0C1F1B9E4613F8010BA0F16302C4
:10070000012A2ED978282CD073282AD0252828D041
:1007100063451A4601F8010FECD19EF80100541C04
:1007200064282BD012D825282FD06328D8D1287838
:10073000B04720782F1D3D460028D3D105B0BDE835
:10074000F04004B07047B0470134C9E773281ED0A9
:100750007828C5D12A1D296801A8124B154698474B
:10076000BEE7724604AB1F4464284FF0000307F84D
:100770000C0C07F80B3C02F10104D3D12A1D2968A7
:1007800001A8094B15469847AAE7B047A8E72A1DD4
:10079000296801A8054B15469847A1E704040020E5
:1007A0009D020008FD04000841030008D50200086E
:1007B000F0B50C461546344B0026DFF8E4E0334F25
:1007C0004FF0010C1E60324E85B08EF800C03860CC
:1007D000207858B325282BD101A98DF80400631C7B
:1007E00004F10A0C1F1B9E4613F8010BA0F16302D3
:1007F000012A2BD9782829D0732827D0252825D05D
:1008000063451A4601F8010FECD19EF80100541C13
:10081000642828D00FD825282CD06328D8D1287850
:10082000B04720782F1D3D460028D3D105B0F0BD3C
:10083000B0470134CCE773281ED07828C8D12A1DD0
:10084000296801A8134B15469847C1E7724604ABC7
:100850001F4464284FF0000307F80C0C07F80B3C0A
:1008600002F10104D6D12A1D296801A80A4B1546B8
:100870009847ADE7B047ABE72A1D296801A8074BA9
:1008800015469847A4E700BF00040020BC040020E0
:100890009D020008FD04000841030008D50200087D
:1008A00004040020684620F007018D461E4A1F4BB5
:1008B00001B59A420DD2D0431D4918440B4620F091
:1008C00003000430084453F8041B834242F8041B1D
:1008D000F9D11B481B494FF000028842B8BF40F8CD
:1008E000042BFADB134A4FF4A0631068114640F45E
:1008F0008030106001E0013B02D00A689203FAD513
:100900000D4B0E491A6842F010021A601A6822F064
:1009100003021A601A6842F002021A608847BDE8B2
:1009200001408546704700BF000000200C030020F6
:100930006038000800100240002002401900000842
:10094000000400202C160020F8B5124B9847124BDB
:100950009847124E12491348134A144F144D154C20
:100960004FF033331360144A37602B602360086004
:100970009047124B9847124B9847124B9847124B8F
:100980009847124B9847124B9847124B9847124B77
:100990009847F8BD750B00088D0D0008040801404C
:1009A000041001404444443300080140B33433335D
:1009B000000C0140040C014051170008C50A000852
:1009C000FD0B0008BD0D00081110000809120008F9
:1009D000190F0008F50E0008D51B000882B000238F
:1009E0000193019B984205D9019B01330193019B1F
:1009F0008342F9D302B0704741F2707382B003FBB7
:100A000000F000220192019B984205D9019B01331D
:100A10000193019B9842F9D802B0704700B5064B8C
:100A200083B01A6802A9054B01F8012D00209847F0
:100A300003B05DF804FB00BF04380140A10C0008BE
:100A40002DE9F84340F2712E154D164C2B68DFF856
:100A50006CC0DFF86C80144F002243F48043134EC7
:100A60004FF00C092B60C4F80090C8F80020CCF8B7
:100A70000020C7F800E033680D4D43F020033360D9
:100A8000236843F0200323606860A960094B252098
:100A900009499847236843F400532360BDE8F8836D
:100AA000181002400C3801400838014004E100E011
:100AB000C00400209D0D00081D0A000814380140E4
:100AC0001038014008B5084B9847084B002203F145
:100AD0003C015A609A600C338B42FAD14FF4E130FA
:100AE0000021034B984708BD510C0008C0040020AA
:100AF000410A000830B5044683B00023074D8DF845
:100B000007302046A8470028FBD020460DF10701FA
:100B1000034B98479DF8070003B030BD710C0008E7
:100B2000190D00080A2807D0074A13681B06FCD5D0
:100B3000064BC0B218607047034A13681906FCD50B
:100B4000024B0D221A60EFE70038014004380140E3
:100B500008B50020014B984708BD00BFF50A000802
:100B600008B50020024B9847003018BF012008BD8F
:100B7000710C00081E481F4902460B6823F47C13C1
:100B800023F0F0030B600B6843F4E8130B60036879
:100B900043F08073036013689B01FCD5154B1A4624
:100BA000196821F003011960196841F00201196008
:100BB000196821F480011960196821F4E061196055
:100BC000196841F480611960196821F46051196055
:100BD00019681960136803F00C03082BFAD1064A50
:100BE000136843F4804343F01D031360704700BF54
:100BF0000010024004100240181002400C4A0D4B35
:100C000011680D4821F0E0611160116841F08061C8
:100C100011601A6822F470421A601A6842F4405255
:100C20001A601A681A60036843F00803036070478B
:100C300004000140000C01400C0C014020B9034AA3
:100C4000136883F008031360704700BF0C0C014069
:100C5000054B064903F10E00002223F8022F8342C0
:100C600021F8022FF9D17047F2050020020600207A
:100C7000084B094A33F9103032F9102007489B1A03
:100C800020331840002800DB7047013860F01F0057
:100C90000130704704060020F40500201F0000808A
:100CA00070B4194E194A36F8103032F910401DB29E
:100CB0002C1B174A20342240002A16DB1F2A1AD088
:100CC00001339BB2124A26F810301BB20E781A403C
:100CD00000EB40110F4C0D44002A66550A4B0DDB0A
:100CE00070BC23F8102001207047013A62F01F0207
:100CF00001321F2AE4D170BC00207047013A62F033
:100D00001F020132ECE700BF04060020F4050020BA
:100D10001F000080FC04002070B4184E184B36F8F9
:100D2000104033F9102025B2521B164B20321340CD
:100D3000002B15DBD3B100EB4013134A1D44535D68
:100D4000013426F810400B7036F910100D4B0B4A89
:100D50000B40002B0DDB70BC22F8103001207047D7
:100D6000013B63F01F030133002BE4D170BC184634
:100D70007047013B63F01F030133ECE7F4050020EB
:100D8000040600201F000080FC040020014A024BE2
:100D90001A6070470008002008ED00E0024B103098
:100DA00043F82010704700BF00080020024B800865
:100DB00043F82010704700BF0008002038B5154DDB
:100DC0002B78012B24D0144B002203F170011A70F0
:100DD0005A809A809A6010338B424FF00004F6D10B
:100DE0003C200E4922460E4B98470E490E4A0F48AA
:100DF0000F4B086014601A68012142F004021A6067
:100E00001A6842F002021A601A680A431A602970CE
:100E100038BD00BF7804002008040020A50E00089B
:100E2000AD0D000814E000E018E000E03F190100FB
:100E300010E000E0184A38B5136818490133136010
:100E40000B889BB21BB10B88013B9BB20B80144CEF
:100E500004F1700502E01034AC421BD014F8043CDD
:100E6000012BF8D134F8023C013B9BB224F8023C40
:100E7000002BF0D114F8032C1034012A34F8102C74
:100E800008BF04F8143C24F8122C54F80C3C984782
:100E9000AC42E3D138BD00BF7C04002080040020B8
:100EA0000C04002008B5014B984708BD350E00081A
:100EB00030B4054C029D04EB00104270C5608360A5
:100EC0004180818030BC704708040020062803D888
:100ED000024B000101221A54704700BF0804002091
:100EE000034A108013889BB2002BFBD1704700BFD0
:100EF0008004002008B5044B9847044B9847044BE6
:100F00009847044B984708BD152400083124000871
:100F100071240008852F000808B5014B984708BDCB
:100F20006D0F00080F49104B0A6842F002020A6078
:100F30001A6822F00F021A601A6842F003021A605F
:100F40001A6842F00C021A601A6822F0F0021A6065
:100F50001A6842F030021A601A6842F0C0021A6041
:100F6000704700BF04000140040C0140F8B548F28E
:100F70001E05114B9847114E114B124A124C134942
:100F800004204FF0000E2427C3F800E037602560EE
:100F900010600A680E4842F400120A601A68A1F54F
:100FA000DE3122F002021A601A68043942F00102AE
:100FB0001A6003680B68F8BD250F00080454004050
:100FC00000540040205400401C5400401C100240BB
:100FD0001454004038B50C4C0C4D6420A8472368CD
:100FE000642043F020032360A84723684FF4FA707D
:100FF00023F020032360A8472368642043F02003E4
:101000002360A84738BD00BF0C0C0140DD09000873
:1010100008B5084B9847084B08491A6822F4700233
:101020001A601A6842F440121A601A681A608847F7
:1010300008BD00BF190F0008000C0140D50F0008C3
:10104000194B30B4196844F21C0521F47021196061
:101050001968164A41F4403119601968144841F47E
:10106000002119601968042421F4700119601968BD
:1010700041F440111960196841F4000119601968C0
:1010800021F070411960196841F0405119601968E8
:1010900041F00041196015600460136830BC43F0F2
:1010A00040031360704700BF040C0140003800404B
:1010B0000438004010B5074C2378012B08D0064AAD
:1010C0000649136843F48043136088470123237063
:1010D00010BD00BF820400201C1002404110000817
:1010E000012808D1044B1A6842F002021A601A68FB
:1010F00042F001021A6070470438004001280CD108
:1011000042F20F730F4802E013F1FF3307D3026876
:101110009207F9D51BB901207047002070470A4A91
:1011200042F20F730748116002E013F1FF3304D35A
:101130000268D207F9D5002BEDD0034B00201B68C5
:10114000704700BF083800400C38004008B50D4B10
:10115000984701280DD00C4B1B6803B908BD0B48FC
:101160000B494FF4FC720B4B984701200A4B9847F0
:1011700008BD054A1368002BF0D0013B1360002B1B
:10118000ECD0ECE7E51700088C0B0020900900205C
:10119000900B002071170008E110000810B5064CF4
:1011A0000A202368054A23F480632360904723685C
:1011B00043F48063236010BD0C0C0140E10E000875
:1011C00010B5074C01462368012023F40063236017
:1011D000044B9847236843F40063236010BD00BFAD
:1011E0000C0C0140FD10000870B50646054D41F09D
:1011F0004000A847044646F08000A847204380B23C
:1012000070BD00BFC1110008F0B52A4B83B09847EC
:10121000294B2A4D1A682A4922F470621A601A680A
:10122000284E42F440721A601A6800241A601A6844
:10123000254F22F470421A601A6842F440521A6034
:101240001A681A602B6843F480632B602B6823F4C0
:1012500000632B6088472120B047C620B047062096
:10126000B0471320B0472020B0470C20B04721469C
:10127000164B204698472B68154E43F400632B60AD
:101280002121009402220320124B134D34803C6034
:10129000A847124B032098472246114B03F5FC71D7
:1012A00003F8012F8B42FBD13B6802333B6003B054
:1012B000F0BD00BFB5100008040C01400C0C01404B
:1012C0009D110008C11100088C0B0020E9110008D5
:1012D000880B00204D110008B10E0008CD0E00084B
:1012E0008F090020064B002103F5FC7203F8011F53
:1012F0009342FBD1034A0020136801331360704707
:101300008F0900208C0B0020037853B3DFF860C0F6
:101310002DE9F041144FBCF80040DFF858E0134EBF
:10132000203B03EB430359008D1D75447144621C3F
:1013300092B2D308A6FB038311F8018BDB08C3EB41
:101340008313A2EBC303A94207F804809CB2EED139
:10135000ACF8004010F8013F002BE1D10020BDE8BF
:10136000F0810020704700BF9009002021088220F2
:10137000880B0020000000200CB430B50D46044658
:10138000B3B036AA52F8041B68460D4B05EB450571
:1013900004EB44049847C5EBC5050A4A640004EB16
:1013A00085046846084B14809847084A0020136853
:1013B0000133136033B0BDE8304002B0704700BF66
:1013C000B1070008880B0020091300088C0B0020CF
:1013D000024A136801331360704700BF8C0B002072
:1013E0002DE9F04F8BB004910C465100C1F103017F
:1013F00089B203910021059383460690D34B029155
:101400004FF0540A92E0049F012102EB070E1FFAED
:101410008EFE4FEADE060AFB06F6BF1ABFB2FD08D3
:1014200006EB0B080AFB05F50EF0070E13F808C0D3
:1014300001FA0EFE5FFA8EFE4CEA0E0C03F808C0AD
:1014400007F0070705EB0B0801FA07FC13F8087013
:101450005FFA8CFC47EA0C0703F80870064413F89F
:10146000068001994EEA080E03F806E0049EE7089C
:101470000544C1EB060E0AFB07F7069E13F805802C
:101480001FFA8EFE96194CEA080CB6B24FEADE0837
:1014900003F805C007EB06090AFB08F8012104F070
:1014A000070C13F8095001FA0CFC5FFA8CFC45EAB2
:1014B0000C0503F8095046440EF0070E069D13F87C
:1014C000069001FA0EFE5FFA8EFEAD1A49EA0E0989
:1014D000ADB203F806902F44DE5D45444CEA060C9D
:1014E00003F807C05E5D4EEA060E03F805E0039DB3
:1014F000290400F1A180039D01990A358E1A05EB9C
:101500008605013AADB2039592B20199029D01316F
:1015100089B20BF1010B0138013401358A421FFAFF
:101520008BFB80B2A4B20295C0F00C81BDF808100C
:10153000059D0191002D3FF466AF059D012D00F042
:101540008280059D022DD2D1049F012102EB070E5E
:101550001FFA8EFE4FEADE060AFB06F6BF1ABFB27E
:10156000FD0806EB0B080AFB05F50EF0070E13F855
:1015700008C001FA0EFE5FFA8EFE8CEA0E0C03F82C
:1015800008C007F0070705EB0B0801FA07FC13F882
:1015900008705FFA8CFC87EA0C0703F808700644B1
:1015A00013F8068001998EEA080E03F806E0049EFF
:1015B000E7080544C1EB060E0AFB07F7069E13F881
:1015C00005801FFA8EFE96198CEA080CB6B24FEA17
:1015D000DE0803F805C007EB060901210AFB08F83D
:1015E00004F0070C13F8095001FA0CFC5FFA8CFCAC
:1015F00085EA0C0503F8095046440EF0070E069DD7
:1016000013F8069001FA0EFE5FFA8EFEAD1A89EA13
:101610000E09ADB203F806902F44DE5D45448CEA16
:10162000060C03F807C05E5D8EEA060E03F805E0BF
:10163000039D29047FF55FAF0199063505EB810510
:10164000A9B2039161E704995618B6B2059906F05C
:10165000070501FA05F8049D6FEA0809AD1AADB255
:1016600005F0070701FA07FC04F0070701FA07F77E
:10167000FF436FEA0C0E08970199049FCDF81CE018
:10168000C1EB070E1FFA8EFE05990EF0070701FA4F
:1016900007F86FEA0801F6080AFB06F6ED0806EB04
:1016A0000B0C0AFB05F513F80C705FFA89F807EAD2
:1016B000080703F80C7005EB0B0913F809709DF887
:1016C0001CC0064407EA0C0703F809709F5D054437
:1016D00008EA0708E70803F8068009910AFB07F7FC
:1016E000069913F805804FEADE0602EB010E0CEABC
:1016F000080C1FFA8EFE03F805C00AFB06F607EB7E
:101700000E0C13F80C509DF82090B64405EA09051C
:1017100003F80C5013F80EC09DF824808D1A0CEAC3
:10172000080CADB203F80EC02F4413F807E035449F
:1017300009EA0E0903F807905E5D08EA060803F857
:101740000580D4E60BB0BDE8F08F00BF9009002003
:10175000054A1378012B05D0044901200B68034387
:101760000B601070704700BF83040020141002400B
:101770002DE9F041DFF860C0134CDFF860E0134D55
:10178000134F00264FF484532660CCF80050CEF857
:1017900000103A60236021680E4BDFF8448041F06E
:1017A0000101902721601E60C8F80050CCF8180095
:1017B000CEF80C201F601A680EF10C0E42F00102E8
:1017C0001A60BDE8F08100BF440002400C380040C0
:1017D00048000240580002404C00024050000240C5
:1017E00060000240064B186810F4005007D01868DB
:1017F00010F4003003D04FF408325A6001207047D3
:10180000000002400F49104B0A6842F002020A60D1
:101810001A6822F00F021A601A6842F003021A6076
:101820001A6842F00C021A601A6822F0F0021A607C
:101830001A6842F030021A601A6842F0C0021A6058
:10184000704700BF04000140040C0140F8B5154C7E
:101850002378012B24D048F21E06134B9847134DD2
:10186000134B144A144F15490B204FF0000C4FF046
:10187000240EC3F800C0C7F800E02E6010600A68AC
:101880000F4842F400120A601A68012122F0020295
:101890001A601A680A431A6055F8083C03682170F8
:1018A000F8BD00BF84040020051800081C54004047
:1018B0000054004020540040045400401C100240DA
:1018C000185400400B4B19681A6811F4006F14BFCC
:1018D0000B20002012F4806F1A681B6818BF0A20C2
:1018E00012F4007F18BF092013F4807F18BF08206E
:1018F000704700BF14540040F0B53B4F87B03D68BF
:1019000042F2107445F48075384E3D6001E0013CB0
:1019100042D035680095009DED07F8D5344C400065
:101920002060324D42F2107001E001384ED02C6838
:101930000194019CA707F8D52E4C42F21070246840
:101940002A4D01E0013845D02C680294029C2606FD
:10195000F8D542F21070254D01E001383AD02C68DC
:101960000394039C2406F8D5214E3160002B33D01C
:101970001E4C002542F2107101E001390FD02068A1
:10198000049004980006F8D5515D0135EDB29D42F2
:101990003160EFD3002003E0022007B0F0BD042047
:1019A00042F21073114901E0013B1BD00A68059215
:1019B000059A5207F8D50C4A136843F40073136074
:1019C0000028EAD10C4B984707B0F0BD094B032023
:1019D0001B68E2E70420E0E7034A136843F400735E
:1019E0001360EFE70620D8E700540040145400408D
:1019F0001054004018540040C518000810B582B0BB
:101A000002AA02F8011D01230146024C6820A047EA
:101A100002B010BDF9180008F0B58DB0002B00F031
:101A20009F805F1EFFB25A4D42F21074D5F800E05D
:101A30002E46CDF804E004352D68DFF860E102950C
:101A4000DEF8005045F48075CEF8005002E0013C0D
:101A500000F0888035680395039DED07F7D542F2C5
:101A600010744C4E01E0013C7CD035680495049D17
:101A7000ED07F8D5484C40002060454E42F2107406
:101A800001E0013C71D035680595059DAD07F8D59D
:101A9000404D42F210742D683D4E029501E0013C2C
:101AA00068D035680695069D2D06F8D542F210746B
:101AB000374E01E0013C5DD035680795079D2D0646
:101AC000F8D5354D42F210742960043501E0013C2F
:101AD0005CD02968089108994907F8D52F4E42F241
:101AE000107134682A4D44F48074346001E0013987
:101AF00038D02C680994099CE607F8D5264940F0AF
:101B000001000860224C42F2107101E001392CD032
:101B100020680A900A988507F8D51E49096802913D
:101B2000DBB11E4E1A4CDFF870E00025AF42316881
:101B300022D941F48061316042F2107101E0013933
:101B400022D020680B900B984006F8D5DEF80000F4
:101B5000691C5055CDB2AB42E8D8114B984702E012
:101B60001F4660E702200DB0F0BD0A4B03201B6842
:101B70000293F8E70420F6E721F4806131603168D0
:101B800041F400713160D7E70520ECE70620EAE771
:101B900014540040185400401054004000540040B9
:101BA000C5180008034610B50A46034C19466820BC
:101BB0000123A04710BD00BF191A000810B50C463C
:101BC0001346014622466820014CA04710BD00BFC5
:101BD000191A000810B5134C86B0207801280FD0D0
:101BE0002420114B9847114B9847752001A9104BA1
:101BF000984738B10F48104B9847012323700020B5
:101C000006B010BD01460D4B6B20984720B901234B
:101C10001846237006B010BD0146074B0848984788
:101C2000EBE700BF85040020F90900084D18000803
:101C3000A51B000868370008CD060008FD1900083C
:101C4000803700082DE9F04F85B0044669463B20F7
:101C50000E22204B9847002839D19DF806309DF878
:101C600007201D4942EA032213B281FB032E9DF88F
:101C700000B09DF80170DB17C3EBEE1347EA0B27AA
:101C80009DF802A09DF803609DF804909DF8055012
:101C90009DF808809DF809109DF80AC09DF80B205A
:101CA0009DF80CE09DF80DB0243346EA0A2645EA7B
:101CB000092541EA082142EA0C224BEA0E2EE38074
:101CC00027806680A58021816281A4F80CE005B0A0
:101CD000BDE8F08FBD1B00086160606038B5154B32
:101CE0001A78012A00D038BD13490A6802B3402A85
:101CF000124814D80368002594B21A4402609BB2BB
:101D00000D600F4822461844C0210E4B98472146CB
:101D100001200D4B984701200C4B984738BD0368B4
:101D2000403A0A6003F1400202609BB24024E8E7B7
:101D30001A7038BDA8040020B4040020B0040020AC
:101D4000F00D0020BD2F0008DD310008A53000088F
:101D500010B5064C064B214603209847054BC1B2EF
:101D6000204698470320044B984710BD880D00205B
:101D70009132000821250008CD30000808B5094B34
:101D80001B68052B00D008BD074A1368052B03F11B
:101D9000010101D0116008BD0021044B116098477A
:101DA000F1E700BF9C040020880400204D250008B6
:101DB000594930B50B68594C9BB2594D2380228844
:101DC0002B8889B01A40900555D4228802F400422D
:101DD00013424CD1228802F4806213423ED1228801
:101DE00002F40052134203D04DF6FF714A4A1160CB
:101DF000228802F48052134227D1228802F4006222
:101E000013420AD0474B1B78E3B90220464B984750
:101E10004FF2FF72404B1A602B88228802F48072C6
:101E200013420DD04FF6FF613B4A404B11601B68D7
:101E300019042CD43E4B00221A6007203A4B9847D5
:101E400009B030BD3B4B9847E2E74EF6FF72324B8C
:101E500000201A60344B98472B88CEE74FF6FF31AD
:101E60002D4A354B11605B6898472B88B7E7334B99
:101E700098472B88AEE74FF6FF53314A0B60137833
:101E800030490133DBB2137088472B889DE728481F
:101E90000368013303600368032BCED952F8043C76
:101EA000043A13F00803C8D11268274D92B22749AB
:101EB0002A6051F8042B08AC04EB8304013392B27E
:101EC000082B44F8202CF4D12B68214A43F001035D
:101ED0002B602B6810499BB213602B6823F0010321
:101EE0002B602B689BB213600B680B4A5B05FBD51C
:101EF0004FF6FF3315491360002308AA02EB830253
:101F000052F8202C013392B2082B41F8042BF4D163
:101F10000023036091E700BF445C0040C80D00202F
:101F200024160020A0040020E9220008485C00409C
:101F3000940400200122000884020020C13200081D
:101F4000900400207D1D00088C040020005C0040EF
:101F5000405C0040034B9B7A13B1034B05221A608F
:101F6000704700BF001600209C040020014B042293
:101F70001A6070479C040020034B1A78202A04BF83
:101F800000221A70704700BF98040020704700BFFD
:101F9000212810B5034603D0202810D0022010BD00
:101FA0000E4B1A68137803F07F03212BF6D10C49EE
:101FB00000249161548220468847204610BD074A7C
:101FC0001268117801F07F01212903D0054A02200F
:101FD000137010BD034804490370E9E72016002080
:101FE000212000089804002039200008074B1B68B6
:101FF0001B7803F07F03212B01D00220704700F0F3
:10200000DF00022814BF02200020704720160020A5
:1020100009B10220704701288CBF022000207047C0
:1020200008B103487047034B08221B681A827047A7
:10203000000300202016002008B103487047034B1E
:1020400008221B681A827047000300202016002017
:1020500010B5064B9847064B00241A68054B94723E
:102060009847054B9847054B1C6010BDF1250008AB
:1020700020160020CD210008693200089C040020B1
:10208000304B314A1B68D2792DE9F04700245A724F
:102090009C72DC7220462D4B98472D4E20464FF403
:1020A0000071B0472B4D20461021A847DFF8C0A093
:1020B00020464021D047DFF8BC8080212046C04721
:1020C0002046254B9847254B204693F82C10DFF8E7
:1020D000A890C847224B2046984721460120B04788
:1020E0000120C021C04701202021A8471D4F2146C3
:1020F0000120B84702204FF4C061B04702204FF4DE
:102100008071C04721460220B84702202021A847FD
:1021100021460320B04703204FF48871D0470320A5
:102120004021C84703204FF44051B84721460320BF
:10213000A8470D4B204698470C4B01221A60BDE87A
:10214000F08700BF201600201C380008113000085E
:10215000213000083D300008F530000884020020DE
:10216000CD30000871300008C92E00089C04002002
:102170007D3100085D310008F931000808B50249D9
:10218000024B984708BD00BFD8020020D1290008A3
:1021900008B50249024B984708BD00BF7C020020E9
:1021A000D129000808B5064B1B68DB78042B05D83D
:1021B0000449054A01EBC301904708BD002008BD52
:1021C00020160020E0020020D129000838B50120A7
:1021D000074B9847074D084B084C00224FF4E0513D
:1021E000012018601A6010462A602180196038BDED
:1021F00005250008445C0040405C00402416002097
:102200000022134670B5314982B001920C68304803
:102210004039A4B251F8042B92B240F82320013384
:10222000082BF7D144F4806224F001051446274BB3
:10223000ADB245F4806642F0010226491C601A6086
:102240001E600B68234A5C05FBD54FF6FF3322491D
:102250001360002350F82320013392B2082B41F879
:10226000042BF7D1194A45F48165156013681B49A1
:102270009BB243F0040313600B68194C01930B6885
:10228000144823F0030343F001030B60236843F079
:10229000040323600368DB040FD54EF6FF754FF689
:1022A000F7730560106803401360019B0B6023689F
:1022B00023F00403236002B070BD0A4B98472368E3
:1022C00023F00403236002B070BD00BF405C0040F7
:1022D000D00D0020445C0040005C004000700040D5
:1022E00010ED00E02926000870B5324C072818BF11
:1022F00020702378052B4BD8DFE803F0181F30350A
:102300003F0363782B49013BDBB26370637803F0D2
:10231000FF02002B3ED14FF6EF732748274C06688B
:102320000625334003600D70226070BD234B1B688F
:10233000002B30D00523237070BD4FF6FB731E4D6C
:102340001F4A29680B402B6090471C4B4FF43F40BD
:1023500004210122286021701A6070BD022203232B
:102360006270237070BD6378124A013BDBB2637008
:1023700063787BB90423137070BD0F4A052013687E
:102380000A219BB243F0100313602070617070BD8E
:102390000623237070BD4FF6FB73074D084A29686A
:1023A0000B402B6090474FF43F4206232A60237076
:1023B00070BD00BFCC0D0020405C0040A404002094
:1023C00051240008024B4FF480221A60704700BF6E
:1023D00014040140B2B1002370B41E46541EE4B28E
:1023E00001346400020F092A02F1300586BF37323A
:1023F000CA54CD54CA180233A3424FEA0010567093
:10240000F0D170BC704700BF08B5014B984708BDBC
:10241000B11D0008054B1A6822F470021A601A6890
:1024200042F400121A601A681A60704704100140E2
:102430000549064A0B6823F480030B60136843F4D4
:1024400000031360704700BF041002401C100240DC
:10245000054B9B7A1BB9054B01221A607047034B51
:1024600005221A60704700BF001600209C0400205F
:102470001A4A1B4B4FF4802110B511601A68194994
:1024800022F480221A600A68174822F480220A6027
:102490000268164C42F4802202608A68902022F47E
:1024A00080228A601A68124942F480221A6000224F
:1024B000A047104A10491368E82043F480131360C2
:1024C0000022A0470D490E4A0B6843F480630B605D
:1024D000136843F48023136010BD00BF140401404F
:1024E000000401400404014008040140AD0D00084F
:1024F0000924000800E100E0C523000804E100E031
:1025000010040140054A136818B943F400531360DE
:10251000704723F400531360704700BF0C10014054
:1025200081B170B50446084E82B0451814F8013BDD
:1025300005200DF107018DF80730B047AC42F5D109
:1025400002B070BD704700BFA10C0008F8B5204D67
:102550002B78012B23D01F4A1368B3F5006F2CD0C2
:102560001D4909688B422FD01AD898B2C91A1B4E40
:10257000402931601BD94033403913603160402419
:10258000174B01261844C0212246164B2E7098473F
:102590003046154B214698473046144B9847F8BDB6
:1025A000C3F500610D4E4029316098B2E3D80B4469
:1025B000002713608CB23760E2E7074B00201968F0
:1025C000106009B10346D1E700232B70F8BD00BFAE
:1025D000A8040020B0040020AC040020B4040020B3
:1025E000F00D0020BD2F0008DD310008A5300008E7
:1025F00038B5084A084B10681B6852F8044C181884
:1026000007D006490822064DA8472046054904225E
:10261000A84738BDF0F7FF1FE8F7FF1F2A02002088
:10262000D52300083A02002030BF704708B538B102
:10263000064B1B681B689847054B18680A3008BD95
:10264000034B01221B681A8208BD00BF1C16002024
:102650002016002008B538B1064B1B689B689847C8
:10266000054B18680C3008BD034B01221B681A8209
:1026700008BD00BF1C1600202016002008B51F4B07
:10268000002832D01E481A6800210180137813F008
:102690007F0316D0012B27D0022B24D1527902F0D0
:1026A0000F039B0003F1804303F5B84312061B6838
:1026B0001FD403F44053B3F5805F0ED101230370A0
:1026C0000BE0527A930654BF0378022351064CBFA5
:1026D00043F0010323F0010303700A4B1B681B69DD
:1026E0009847074808BD084608BD1B6802221A82A1
:1026F00008BD03F03003102BEFD1DFE720160020D8
:10270000F01500201C1600202DE9F041244F3C68F4
:10271000238A267A23B9042E2AD0A58A042603E028
:10272000A58AAB42FAD902269D4228BF1D46A3695D
:10273000284698471B4B8046002098472A4601466A
:10274000194B4046984729460020184B9847638A02
:10275000228A1749521B1D44164B22826582302063
:102760004FF440523C6808801A802672BDE8F08120
:10277000114A1178012906D00D4B07261022267226
:102780001A80BDE8F0810D480D490068084D80B2FF
:102790000144490030200B804B8013702880E4E70F
:1027A000201600209D310008BD2F0008DD310008F3
:1027B0002816002026160020B8040020505C004097
:1027C000023000200B4B0C4A1B685178DA7891429A
:1027D00001D20220704799780029FAD110B59C885F
:1027E0000CB1022010BD05499A720B685B689847CE
:1027F000204610BD20160020080300201C160020D3
:1028000038B5104A104C126823685879D978936902
:10281000984723689A7A0AB9022038BD0028FBD16C
:102820001A79002AF8D19D78002DF5D1074B1B6845
:10283000DB689847236828465979DA78D9721A7381
:1028400038BD00BFF8150020201600201C160020FF
:1028500038B5314B1B68187810F07F0003D0022880
:1028600006D0022038BD5A7A22F020025A7238BDB2
:102870005A88002AF6D11A79002AF3D15A7922F01F
:1028800080008400150604F18041244D01F5B84113
:1028900009682D784CBF01F0300101F44051A84285
:1028A000DFD20029DDD09B7A002BDAD004F18044FE
:1028B00004F5B8441206236809D503F03003102B41
:1028C0001ED0174B1B685B699847002038BD03F486
:1028D0004053B3F5805FF4D1D8B9124B93F82C1064
:1028E000114B9847236823F4804323F070039BB275
:1028F00083F4405343F4004343F080032360E0E754
:10290000C4B22046094B984720463021084B9847CF
:10291000D7E7084B9847E5E720160020080300207A
:102920001C16002084020020F9310008393100080B
:102930003D3000081531000838B5224B186842793F
:1029400022F080018C00150604F180431E4D03F532
:10295000B8431B682D784CBF03F0300303F4405399
:10296000A94201D3022038BD41880029FAD1002BA9
:10297000F8D0837A002BF5D004F1804404F5B844F4
:102980001206236811D523F4E04323F040039BB2E1
:1029900083F0100343F4004343F0800323600B4BA8
:1029A0001B689B699847002038BD23F4804323F0BF
:1029B00070039BB283F4805343F4004343F08003DD
:1029C0002360ECE720160020080300201C160020DE
:1029D000054B1B685A8A10B10868104470478988F3
:1029E0008A1A1A82704700BF2016002010B50C4BBF
:1029F000002093F82C100B4B98470B4B1B68187A50
:102A0000082806D109490A4B4FF4805410220C8043
:102A10001A80A0F10900B0FA80F0400910BD00BF93
:102A200084020020F931000820160020261600201C
:102A300028160020F0B5A14BA14E1A683468A14BAE
:102A400092B21344227A5B00092A83B01D6847D0F2
:102A5000ADB26D0005F1804505F5C0452B789A4F64
:102A600023706B786370A888B847608028893468C1
:102A7000B847A080AB8934680122E3802272002B22
:102A800033D06078062800F08A80002849D1618818
:102A9000002900F098808D4D2B681B69984703280A
:102AA00000F0EA804FF6FF7133681A8A8A4248D0F4
:102AB00002280FD072B193F900100029C0F2B8803B
:102AC000834903224FF4405008801A72814B984783
:102AD00003B0F0BD08221A727E4B984703B0F0BDD8
:102AE000E38801222272002BCBD12378657813F082
:102AF0007F032CD0012B00F0B280022B00F0D58098
:102B0000724B28461B685B699847032800F01081C8
:102B10003468002834D0082323726E4B984703B0E2
:102B2000F0BD082861D123785B06B4D16A4B002040
:102B3000A361608298474FF6FF7133681A8A8A4210
:102B4000B8D109221A72634B984703B0F0BD092D22
:102B500000F0E880052D00F09680032D00F0D08075
:102B6000012DCDD1E378012BCAD1A388002BC7D189
:102B7000637A9F06C4D5594B98470028C0D1346862
:102B80004E4A574B1268574992B213445B000022D9
:102B90001A805A803020062308802372BDE72378EC
:102BA0005D067FF478AFA378484D012B00F0BD801F
:102BB000022B65D0032B7FF46FAF2B685B6A002B71
:102BC000B5D1062068E7636823F47F43B3F5003F7F
:102BD0007FF461AF207810F07F0040F0AD80A388D3
:102BE000002B7FF458AF404BA1E70A287FF453AF86
:102BF000237803F07F03012B7FF44DAFA37A002BE2
:102C00003FF449AF618800297FF445AF63682F4DD9
:102C100023F47F43B3F5803F7FF43EAF2B686079A8
:102C20009B699847002840F0C78034682F4B7EE7A7
:102C3000D98801910198824217D88A4280F0838016
:102C40002249096891F82C0081B28A4280F0808084
:102C5000274A002010709982264B98473CE70B2D9D
:102C60007FF44EAF244B984787E7184A01991268C2
:102C7000198292F82C10EEE7336809221A722BE7BA
:102C80002B681B6A9BE794F90330002BFFF643AFD8
:102C9000A378002B7FF43FAFA388002B7FF43BAFDA
:102CA000A37A002B3FF46CAF35E7012D3FF463AFFF
:102CB000032D7FF425AF114B98475EE7505C004031
:102CC00020160020043000205D320008F815002096
:102CD00026160020ED2900082D260008512800089E
:102CE00002300020281600207D2600085526000806
:102CF000B804002009270008012800083929000825
:102D0000E378012B7FF4FCAEA388002B7FF4F8AEB0
:102D1000637A2B4A43F0200312686372D3699847A1
:102D200034682DE7274B984727E72B68DB6946E790
:102D3000346809232372F0E6012830D0022812D02B
:102D40000846214DA8E6204A126892F82C1082E726
:102D500092FBF0F400FB1422002A7FF47CAF1B4AA4
:102D60000120107077E7607900F00F0293000106F0
:102D700003F18043164903F5B8431B6809784CBF3B
:102D800003F0300303F440538A4206D210F070007F
:102D900003D1002B7FF427AF7DE600207BE60A4DB0
:102DA00060792B689B69984730B93468A37A002B07
:102DB0007FF419AF60786FE6336858786CE600BF2F
:102DC0001C160020C5270008F8150020B8040020B4
:102DD00008030020F8B5324D2C68237A022B07D067
:102DE000042B05D0032B08D0052B06D0072B36D09B
:102DF000082323722B4B9847F8BDA369228AB3B1ED
:102E0000B2B1A68A964228BF164630469847228A13
:102E1000638A921B33440746228263820020224B3E
:102E2000984732460146214B38469847228AEAB9EC
:102E3000A38A002B29D01E492C6806221D4B227222
:102E40001A681D4B92B213445B0000221A805A800C
:102E5000237A30222372134B0A809847F8BD174B10
:102E60001B68DB6898472C680823C2E7144A0020D7
:102E70000146144B4FF4405616809847238AA28A85
:102E80000B4930209A42088003D82C680323237210
:102E9000AFE7002BD0D02C6805232372A9E700BF31
:102EA00020160020ED290008BD310008F12F000890
:102EB00028160020505C004002300020F815002049
:102EC00026160020DD31000870B40C4B1E787EB150
:102ED0000B4C002240F60F73256842F400412B4052
:102EE00041F0800101320B43964244F8043BF1D19A
:102EF000044B40F08000186070BC7047080300204D
:102F0000005C00404C5C004010B5174C23681A7AF6
:102F1000022A15D0042A13D0062A04D008221A72D5
:102F2000124B984710BD5A78052A11D0104B1B68D8
:102F30009B689847236808221A720C4B984710BD6B
:102F40000C4B984723681A7A1A72084B984710BDA1
:102F50001A785206EAD1D878074B9847074B1B6876
:102F60001B6A9847E2E700BF20160020ED29000801
:102F7000F815002009270008C92E00081C1600209B
:102F8000704700BF70B4074A074E084C084B022533
:102F9000084909481572236032601B68086070BCDC
:102FA000184700BF0016002020160020F81500204A
:102FB000840200201C160020B402002001F1005100
:102FC000013201F5405152104FEA41010FD030B4A7
:102FD0000230002310F8015C10F8024C023044EA81
:102FE000052421F8234001339A42F3D130BC7047C5
:102FF00001F10051013201F5405152104FEA4101F7
:1030000005D051F8043B013A20F8023BF9D1704752
:103010004FF6F873014A034013607047505C00405C
:10302000800000F1804000F5B840036823F4EC43D1
:1030300023F07003194389B201607047800000F1EA
:10304000804000F5B8400368CA0623F4E04323F04B
:1030500040039BB248BF83F010038A0648BF83F049
:10306000200343F4004343F080030360704700BF34
:10307000800000F1804000F5B8400368CA0423F4E2
:10308000804323F070039BB248BF83F480538A04CB
:1030900048BF83F4005343F4004343F080030360CC
:1030A000704700BF800000F1804000F5B840036821
:1030B00023F4E04323F040039BB283F0300343F456
:1030C000004343F080030360704700BF800000F1BD
:1030D000804000F5B840036823F4804323F0700378
:1030E0009BB283F4405343F4004343F080030360F6
:1030F000704700BF40F60F62800000F1804000F58D
:10310000B8400368134043F4004343F08003036076
:10311000704700BF800000F1804000F5B8400368B0
:103120005B0408D540F60F730268134043F4404334
:1031300043F0800303607047800000F1804000F599
:10314000B84003685B0608D540F60F730268134069
:1031500043F4004343F0C00303607047064B490843
:103160001B6849009BB203EBC00000F1005000F562
:103170004050400001607047505C0040054A064BDB
:103180001268490892B202EBC000034449005B0098
:1031900019607047505C004004300020064B1B68EB
:1031A0009BB203EBC00000F1005000F5405040001E
:1031B000006880B2704700BF505C0040054A064B73
:1031C000126892B202EBC00003445B00186880B240
:1031D000704700BF505C004004300020044A054B9B
:1031E000126892B202EBC00003445B0019607047A2
:1031F000505C0040023000200E4A0F4B12683E29FE
:1032000092B202EBC00003444FEA43030AD94A09D1
:10321000C80604BF02F1FF3292B2920242F40042A9
:103220001A6070474A08C90748BF013292021A6003
:10323000704700BF505C004006300020054A064B36
:10324000126892B202EBC00003445B001868C0F33E
:1032500009007047505C004006300020C3B2000AED
:1032600040EA0320704700BF10B40649064C074AE5
:1032700000204FF43F4320600B805DF8044B136047
:10328000704700BF24160020445C0040405C0040B2
:1032900070B500F07F052846064B0E469847064B52
:1032A00004462846984722460146044B3046984734
:1032B000204670BD3D320008BD310008F12F0008E6
:1032C0002DE9F043002385B0DFF85C81514F524D6A
:1032D000ADF80E303B68514C9AB213F4004F504E8B
:1032E0005048A8F800205049DFF82C9100F08A805F
:1032F0000B8803F00F039A0002F1804202F5B842F6
:10330000037063BB4BF6BF73226892B22A802A888F
:1033100002F0300232802A8802F440522A80226869
:10332000134083F4005383F0200343F4004343F03D
:10333000800323600B88DA063CD523689BB2ADF886
:103340000E30BDF80E301B055FD4BDF80E301BB239
:10335000002BBFDA40F68F732168344A2EE01168E3
:1033600089B2ADF80E10BDF80E1009B2002914DBB9
:10337000BDF80E301B06ADD548F60F7102782C480B
:10338000930003F1804303F5B8431C68013A2140E0
:10339000196050F8223098479CE740F68F71166804
:1033A000244C3140013B54F8233011600190984780
:1033B0000198DDE748F60F7321681F4A0B40236030
:1033C00090474BF6BF732168B9F800200B40D40436
:1033D000B9F8002048BF83F480539004328848BF76
:1033E00083F40053D106328848BF83F0100392065D
:1033F00048BF83F0200343F4004343F08003074AAF
:103400009BB2136005B0BDE8F08340F68F7321686E
:103410000A4AD3E7445C004026160020005C0040C6
:1034200028160020FC150020C80D0020D52D00080E
:103430004402002060020020092F0008352A0008FD
:103440000A0A00002A2A2A2A2A2A2A2A2A2A2A2A70
:103450002A2A2A2A2A2A2A2A2A2A2A2A2A2A2A2ACC
:103460002A2A2A2A2A2A2A2A2A2A2A2A2A2A2A2ABC
:103470002A2A2A2A2A2A2A2A2A2A2A0A0000000074
:10348000202020202020202020202020202020203C
:103490002020202020204D5055363035302020204F
:1034A000202020202020202020202020202020201C
:1034B000202020202020200A000000002A20312E79
:1034C000204C434420436C65617220202020202042
:1034D00020202020202020202020202020202020EC
:1034E00020202020202020202020202020202020DC
:1034F00020202A0A000000002A20322E2053686F64
:1035000077204163632020202020202020202020BD
:1035100020202020202020202020202020202020AB
:1035200020202020202020202020202020202A0AA7
:10353000000000002A20332E2053686F77204D5062
:1035400055363035302052656773202020202020EA
:10355000202020202020202020202020202020206B
:10356000202020202020202020202A0A00000000E7
:103570002A20342E2020202020202020202020201F
:10358000202020202020202020202020202020203B
:10359000202020202020202020202020202020202B
:1035A0002020202020202A0A000000002A20352E7A
:1035B000202020202020202020202020202020200B
:1035C00020202020202020202020202020202020FB
:1035D00020202020202020202020202020202020EB
:1035E00020202A0A000000002A20362E2020202039
:1035F00020202020202020202020202020202020CB
:1036000020202020202020202020202020202020BA
:1036100020202020202020202020202020202A0AB6
:10362000000000002A20372E2020202020202020EB
:10363000202020202020202020202020202020208A
:10364000202020202020202020202020202020207A
:10365000202020202020202020202A0A00000000F6
:103660002A20382E2020202020202020202020202A
:10367000202020202020202020202020202020204A
:10368000202020202020202020202020202020203A
:103690002020202020202A0A000000002A20392E85
:1036A000202020202020202020202020202020201A
:1036B000202020202020202020202020202020200A
:1036C00020202020202020202020202020202020FA
:1036D00020202A0A000000002A206D2E20204D659F
:1036E0006E75202020202020202020202020202037
:1036F00020202020202020202020202020202020CA
:1037000020202020202020202020202020202A0AC5
:10371000000000003E3E2000536D617274526F62E3
:103720006F742042440000004C434420436C6561A8
:1037300072200A00415820256420000041592025AC
:1037400064200000415A2025642000005420256494
:10375000200A00000A203078253032783A20000014
:10376000253032782000000043616E27742066699E
:103770006E64204D505536303530200A0000000070
:10378000457272207772697465204D505536303518
:10379000305F52415F5057525F4D474D545F31206B
:1037A0003A2025640A0000002603530054004D000F
:1037B0006900630072006F0065006C0065006300C3
:1037C000740072006F006E006900630073000000F7
:1037D000120100020200004083044057000201026F
:1037E00003010000040309043203530054004D0098
:1037F000330032002000560069007200740075002A
:1038000061006C00200043004F004D00200050007C
:103810006F007200740020002000000009024300C5
:10382000020100C032090400000102020100052467
:1038300000100105240100010424020205240600F1
:1038400001070582030800FF09040100020A0000C5
:103850000007050302400000070581024000000048
:103860000000000000000000002F00000000070022
:10387000070000147F147F1400242A7F2A1200629C
:103880006408132300364955225000000503000048
:1038900000001C224100000041221C000014083ED0
:1038A00008140008083E0808000000A06000000896
:1038B00008080808000060600000002010080402EA
:1038C000003E5149453E0000427F400000426151A8
:1038D0004946002141454B31001814127F10002742
:1038E00045454539003C4A49493000017109050305
:1038F00000364949493600064949291E0000363636
:103900000000000056360000000814224100001498
:103910001414141400004122140800020151090675
:1039200000324959513E007C1211127C007F4949F6
:103930004936003E41414122007F4141221C007F27
:1039400049494941007F09090901003E4149497A35
:10395000007F0808087F0000417F410000204041AF
:103960003F01007F08142241007F40404040007F1B
:10397000020C027F007F0408107F003E4141413E5F
:10398000007F09090906003E4151215E007F0919A7
:1039900029460046494949310001017F0101003FA4
:1039A0004040403F001F2040201F003F4038403F24
:1039B0000063140814630007087008070061514988
:1039C000454300007F41410000552A552A5500001B
:1039D00041417F0000040201020400404040404099
:1039E000000001020400002054545478007F484431
:1039F000443800384444442000384444487F003868
:103A00005454541800087E0901020018A4A4A47C90
:103A1000007F080404780000447D4000004080845A
:103A20007D00007F102844000000417F4000007CA2
:103A300004180478007C08040478003844444438AE
:103A400000FC242424180018242418FC007C0804FA
:103A5000040800485454542000043F444020003CD3
:103A60004040207C001C2040201C003C4030403C5A
:103A7000004428102844001CA0A0A07C00446454EA
:103A80004C440000060909061A03530054004D0077
:103A900033003200000000000000000000000000C1
:103AA00000000000DD1C0008812F0008812F0008A5
:103AB000812F0008812F0008812F0008812F000826
:103AC000812F0008812F0008511D0008812F000858
:103AD000812F0008812F0008812F00081C38000862
:103AE000430000005120000881200008791F0008D1
:103AF0008D1F0008911F0008ED1F0008112000080D
:103B00007D21000891210008A52100080000000087
:103B100040000000812F0008551F0008812F000879
:103B2000812F0008812F0008812F0008812F0008B5
:103B3000812F00086D1F0008D03700081200000018
:103B4000E437000804000000A83700082600000041
:103B5000E837000832000000280200201A000000A8
:0C3B600000C20100000008000401000089
:04000005080008A542
:00000001FF
