:020000040800F2
:10000000005000200D01000800000000000000006A
:1000100009010008090100080901000800000000AA
:1000200000000000000000000000000009010008BE
:10003000090100080000000009010008090100088A
:100040000901000809010008090100080901000868
:100050000901000809010008090100080901000858
:100060000901000809010008090100080901000848
:100070000901000809010008090100080901000838
:100080000901000809010008090100080901000828
:100090000901000809010008090100080901000818
:1000A0000901000809010008090100080901000808
:1000B00009010008090100080901000809010008F8
:1000C00009010008090100080901000809010008E8
:1000D00009010008090100080901000809010008D8
:1000E00009010008090100080901000800000000DA
:1000F0000000000000000000000000000000000000
:100100000000000000000000FEE700BF684620F08D
:1001100007018D462DE9F941594B4FF4A06219684A
:10012000184641F48031196001E0013A02D00368B9
:100130009903FAD5534B544A1868514940F01000BE
:10014000186018680C4620F007001860186840F026
:1001500002001860136823F47C131360136843F4DF
:10016000E81313600B6843F0807343F480330B6033
:1001700023689B01FCD5444B1A68194622F0030200
:100180001A601A6842F002021A600A683E4B02F0D6
:100190000C02082AF9D11A683C491A6018683C4ACE
:1001A00018601C683B4844F480641C600B68DFF8EE
:1001B00014E143F001030B601368374F43F4944399
:1001C00043F01D0313600168344E354D354CDFF8A4
:1001D000F880DFF8F8C041F480014FF03333A2F526
:1001E000883241F007010160143AC8F80030CEF8B7
:1001F00000C03B6033602B60236013682A4923F002
:10020000E0631360136806F5305604F52054A0F53A
:1002100058400C34083843F0806E0436002340F216
:10022000712742F20C05C2F800E037600D602360D0
:1002300003600C681D481E4A44F4005490420C6050
:100240000CD01C498A4209D2D443214421F0030432
:100250000434C158D1500433A342FAD1164B174A83
:1002600093420AD2D9430A4422F0030119440022DE
:10027000043B43F8042F8B42FBD1114B9847FEE718
:1002800000100240002002400410024014100240FE
:10029000181002401C100240000C0140040C0140E8
:1002A00000100140041001400C38014040090008D2
:1002B00000000020000000200000002000000020BE
:1002C000210800080408014000080140B33433331A
:1002D0000A2810B5044606D0054A13681B06FCD54B
:1002E000044B1C6010BD0D20FFF7F2FFF4E700BFC8
:1002F000003801400438014030B4D0B10378D3B1A4
:1003000000230B6002789AB1A2F13004E2B2092A0C
:1003100002D913E0092D11D803EB830304EB430347
:100320000B6010F8012FA2F13004E5B2002AF1D1E0
:10033000012030BC7047184630BC7047002030BCEC
:10034000704700BF0FB42DE9F04F8BB00DF1500A8C
:100350005AF8044BBF4DC04F2078A0B3252837D1A1
:100360008DF81000631C01221E4613F8010BA0F14A
:100370006301C9B201291C4640F29C80782800F034
:100380009980732800F09680252800F0938002F170
:1003900010010132EC460A2A01F80C00E4D1707811
:1003A0000134642800F0938015D8252800F01B81C3
:1003B0006328D1D19AF80000A84720780AF10406F2
:1003C000B2460028CAD10BB0BDE8F04F04B0704768
:1003D000A8470134C0E7732800F007817828BBD113
:1003E000DAF800909DF8103000260AF1040ACDF8E2
:1003F0000890CDF804A00396002B00F03381782BF1
:1004000000F03081B346B0460DF1100AA3F131027D
:10041000D2B2082A4AD81AF80B200AEB0B01A2F133
:100420003003DBB2092B07A84FF000030DD8C254EC
:1004300011F8012F0BF1010BA2F1300E5FFA8EFEC5
:10044000BEF1090F03F10103F1D90AA90B4403A975
:1004500003F80C8C0BF1FF3BB8470BF1010B0AAB17
:100460005B4413F8183C0BB1782BCFD1039B99FA5E
:1004700089F20292002B00F0F880DA0740F128811F
:10048000C3F1070303EBD3730AAA02EB630313F868
:10049000203C13F00F0300F06081092B40F28081B3
:1004A00003F13700A8474FF000095BE1302B08BF8C
:1004B0000126D2E70AA90A4400233446642802F838
:1004C000180C02F8173C04F101047FF46DAF9DF89D
:1004D000103000260AF1040203960192DAF800B007
:1004E000002B00F09780642B00F09480B246B04659
:1004F0000DF11009A3F13102D2B2082A00F2868070
:1005000019F80A2009EB0A01A2F13003DBB2092B2A
:1005100007A84FF000030DD8C25411F8012F0AF1BB
:10052000010AA2F1300E5FFA8EFEBEF1090F03F14F
:100530000103F1D90DF1280C634403A903F80C8CD5
:100540000AF1FF3AB8470AF1010A0AAB534413F81B
:10055000183C0BB1642BCDD1039900295AD009293D
:1005600040F3B08009210391062007220A23013AB3
:1005700003EB8303B2F1FF3F4FEA4303F7D19BFB49
:10058000F3FA022903FB1ABA00F0048103464FF084
:100590000A08013B08EB8808591C4FEA4808F8D1C3
:1005A0004FF0010B13E0B8F1010F18D0BBF1000FB1
:1005B00015D0302006B92020A847284A82FB0823FE
:1005C0004FEAE878C8EBA308B8F1000F6BDD9AFB9F
:1005D000F8F3D8B2303008FB13AA002BE3D0A847B9
:1005E0004FF0000BE9E7A847B6E6DAF800600AF139
:1005F000040A002E3FF4B0AE307800283FF4ACAED1
:10060000A84716F8010F0028FAD1A5E6302B08BF3D
:10061000012698E74FF00A080122114E0CE0A84786
:100620000022DFF838C0B8F101088CFB06C34FEA9E
:10063000E676C6EBA30636D09BFBF6F3D8B2303095
:1006400006FB13BB002BEAD1012EE8D0002AE6D02E
:100650000122E6E7D1020008F90200086766666633
:1006600000CA9A3B99FA89F30293012200260DF100
:100670000808A14618F8063003F00F041B091DD026
:10068000092B88BF03F1370040F29380A84700236D
:1006900064B9032E00F081800122002B7DD0013649
:1006A000042EE7D14C46DDF804A055E6092C88BF9E
:1006B00004F1370071D9A8470022F0E7002A78D06A
:1006C0000123E5E70129A1F1020254D0C81E4DE73C
:1006D0004FF00109C3F1080303EBD3735B10032B45
:1006E000E1DC0DF10808984433464E46A1461C460D
:1006F00018F8013B0DF10C0B03F00F0A1B0919D080
:10070000092B88BF03F1370050D9A8470026BAF15A
:10071000000F17D0BAF1090F88BF0AF1370042D98C
:10072000A8470026D845BDD018F8013B03F00F0AB2
:100730001B09E5D1002E39D04CB13020A847BAF1C1
:10074000000FE7D17EB32CB13020A847EAE7202084
:10075000A847DCE72020A847E4E73EB13020A847BF
:100760004FF00109039B013B0393B3E72020A84707
:100770004FF00109F6E701F1663181FB0B1A4FEAF0
:10078000EB73C3EBAA0A0AEB8A0AABEB4A0A6FF0D7
:100790000103FCE64FF00A0802E704F130008AE7A3
:1007A00003F130007EE60AF13000B9E703F13000D2
:1007B000ABE703F1300069E7144A70B41668144CD3
:1007C0001449154B46F01F06082540F28F1016609D
:1007D000256008601A68114842F010021A60026829
:1007E00042F4D04242F06802026051F80C5C40F2E0
:1007F000171245F4885541F80C5C626142611A6831
:1008000070BC42F081021A60704700BF040C0140C6
:10081000280800402C080040000800401C08004048
:10082000F8B52C482C4FB8472C4B98472C4C2D4EE4
:100830002D4D23689B06FCD53368DBB2613B082B4A
:10084000F7D801A252F823F0BD080008A708000855
:10085000910800087B0800083308000833080008E6
:1008600033080008330800086D0800081F48B8471F
:100870002B6843F0F0032B60DBE71D48B8472B687B
:1008800023F0FF032B602B6843F0A0032B60D0E71D
:100890001848B8472B6823F0FF032B602B6843F000
:1008A00050032B60C5E71448B8472B6823F0FF03BB
:1008B0002B602B6843F090032B60BAE70F48B847D2
:1008C0002B6823F0FF032B602B6843F060032B6041
:1008D000AFE700BF0009000845030008B90700089A
:1008E00000380140043801400C0C01403809000870
:1008F000180900080C0900082C0900082009000844
:100900004D6F726F725F4374726C0A00666F72771C
:100910006172640A000000006261636B0A000000FB
:100920007475726E206C6566740A00007475726E60
:100930002072696768740A0073746F700A0000009F
:040000050800010DE1
:00000001FF
