:020000040800F2
:10000000005000208908000808B50020014B9847DF
:1000100008BD00BF090C000800B50A4B83B0984723
:100020000024094B9847094D20464FF47A7102226B
:10003000074B0094A847074B20469847064B984724
:10004000FEE700BF2D0900085D000008A50E0008AE
:1000500009000008C10E000861010008704700BFD8
:100060000138012800D9704738B5044B00201A88A0
:100070000349551C034C1D80A04738BD00020020D9
:1000800058300008391700080138012800D9704796
:1000900038B5054C0020238804499A1E92B2013BD2
:1000A000034D2380A84738BD0002002058300008C7
:1000B0003917000838B5114D114C1248A047284691
:1000C000A0471148A0472846A0471048A04710481D
:1000D000A0471048A0471048A0471048A047104824
:1000E000A0471048A0471048A0471048A047104814
:1000F000A0472846A0470F48A04738BD60300008F9
:10010000B10600085C3000089C300008D8300008B8
:1001100014310008503100088C310008C831000843
:1001200004320008403200087C320008B83200086F
:10013000F43200089C33000838B50548054CA04748
:10014000054B984705460548A047284638BD00BFDF
:1001500030330008B1060008110B00089C3300087A
:100160002DE9F84F3B4B98473B4C02203B49A047B9
:1001700000203B49A047DFF828813A4FC04703469B
:1001800040B3332B5BD03CD8312B41D0322BF5D14F
:100190003548364EB047364D364CDFF8089106E00C
:1001A000420719D483071DD4A04701280CD84FF467
:1001B0007A70A847C107F3D50020B84701462E48FA
:1001C000B047A0470128F2D92C48B047C0470346A2
:1001D0000028D6D1BDE8F88F0220B847014628484C
:1001E000B047E1E7274B0120984782460120B847F6
:1001F00083465FFA8AF0C847594602462248B0470C
:10020000D2E74D2B01D06D2BB8D1124B9847B5E7F3
:100210001E4D00201E4CA8474FF4FA70A047012045
:10022000A8474FF4FA70A0470220A8474FF4FA708D
:10023000A0470320A8474FF4FA70A0479EE7154B4C
:10024000144D1A880020541C1349144B2C809847D5
:1002500094E700BFB500000895150008610000088C
:10026000890000080516000834330008B1060008AC
:10027000D5150008C91500085C3300089433000840
:100280006C330008191600087C330008090C0008BC
:10029000D50E000800020020583000083917000869
:1002A00039010008AD15000838B5094B1B7863B15A
:1002B0000446084B084A196810684D1C1D604454D8
:1002C0001B6812680021D15438BD044B984738BDD3
:1002D0000802002004020020F8020020E50A0008BD
:1002E00058B138B50C4639B1087828B1034DA84744
:1002F00014F8010F0028FAD138BD7047A902000890
:10030000E8B10378DBB100230B600278E2B130B4CE
:10031000A2F13004E2B2092A02D912E0092D10D864
:1003200003EB830304EB43030B6010F8012FA2F1EE
:100330003004E5B2002AF1D1012030BC7047002022
:100340007047002030BC7047012070472DE9F0470E
:10035000037884B00024804689460094002B00F086
:100360008180642B7ED0A2462646594DA3F13102EE
:10037000082A73D818F80A20A2F13003092B00F2DA
:10038000948001A807460AF101034344002107F8BD
:10039000012BC8EB030A13F8012B0131A2F1300E37
:1003A000BEF1090FF3D904AB5A18694602F80C6C78
:1003B0000AF1FF3AA8470AF1010A18F80A300BB10E
:1003C000642BD3D1009800284CD0092868DC012880
:1003D000A0F102016CD0C21E0A23013903EB830392
:1003E0004D1C4FEA4303F8D199FBF3F6022803FBB7
:1003F00016966BD013460A25013B05EB85055A1C62
:100400004FEA4505F8D1DFF8D480324F4FF00109AB
:100410000FE0012D15D0B9F1000F12D0302004B932
:100420002020C04787FB0523ED17C5EBA305002D52
:1004300011DD96FBF5F2D0B2303005FB1266002AD2
:10044000E7D0C04787FB0523ED17C5EBA305002DBB
:100450004FF00009EDDC04B0BDE8F087302B08BF99
:100460000124A8E70A251C4C01221C4E194F09E063
:10047000B047002287FB0413013D4FEAE474C4EB4C
:10048000A304E8D099FBF4F3D8B2303004FB1399FD
:10049000002BEDD1012CEBD0002AE9D00122E9E7B5
:1004A000092000900622072196E7002101A87AE79B
:1004B000084B4FEAE97683FB0923C6EBA30606EB5C
:1004C0008603A9EB43066FF0010394E70A259AE738
:1004D000010300086766666600CA9A3BA902000825
:1004E0002DE9F043037887B00024814601910294FE
:1004F000002B5BD0782B59D0A04626466A4DA3F13D
:100500003102082A4ED819F80820A2F13003092B2D
:1005100000F2AC8003A8074608F101034B44002118
:1005200007F8012BC9EB030813F8012B0131A2F1E5
:10053000300EBEF1090FF3D906AB5A1802A902F822
:100540000C6C08F1FF38A84708F1010819F80830C9
:100550000BB1782BD3D1019A029B12BA019243B30B
:10056000DA074FD40122C3F1080303EBD3735D1004
:10057000032D38DC01AB1D4415F8013B4B4E03F055
:100580000F071B09B1460DF108085DD0092B88BF84
:1005900003F1370040F28180B047002F46D107F1C8
:1005A000300047E0302B08BF0124CDE7019B1BBA88
:1005B00001933E4F01AE0122002516F8013B03F0E6
:1005C0000F041B091AD0092B88BF03F1370061D92A
:1005D000B847002354B9032D62D00122002B5FD00D
:1005E0000135042DE9D107B0BDE8F083092C88BF9F
:1005F00004F1370054D9B8470022F1E7002A49D066
:100600000123E7E7C3F1070303EBD37306AA02EB69
:10061000630313F8143C13F00F032AD0092B36D9C7
:1006200003F13700214EB047002227E0092FB6D949
:1006300007F13700B04700224545D4D015F8013BFB
:1006400003F00F071B09A1D13AB33CB13020B047EA
:10065000002FEBD13020C8470122EDE72020B04722
:10066000002FE3D12020C8470122E5E7002103A89D
:1006700062E73CB130200D4EB0470122029B013BA6
:10068000029370E72020094EB0470122F6E703F1FC
:100690003000C7E703F130009AE703F130007BE751
:1006A00004F13000A7E700BF01030008A902000819
:1006B0000FB4F0B585B00AAD314B002255F8044BAC
:1006C000304E1A70207858B325282ED101A98DF804
:1006D0000400631C04F10A0C1F1B9E4613F8010B57
:1006E000A0F16302012A2ED978282CD073282AD0B1
:1006F000252828D063451A4601F8010FECD19EF851
:100700000100541C64282BD012D825282FD0632830
:10071000D8D12878B04720782F1D3D460028D3D166
:1007200005B0BDE8F04004B07047B0470134C9E7F8
:1007300073281ED07828C5D12A1D296801A8124B1C
:1007400015469847BEE7724604AB1F4464284FF035
:10075000000307F80C0C07F80B3C02F10104D3D19D
:100760002A1D296801A8094B15469847AAE7B047F2
:10077000A8E72A1D296801A8054B15469847A1E757
:1007800008020020A9020008E10400084D03000847
:10079000E1020008F0B50C461546344B0026DFF8A0
:1007A000E4E0334F4FF0010C1E60324E85B08EF8FE
:1007B00000C03860207858B325282BD101A98DF8C6
:1007C0000400631C04F10A0C1F1B9E4613F8010B66
:1007D000A0F16302012A2BD9782829D0732827D0C9
:1007E000252825D063451A4601F8010FECD19EF863
:1007F0000100541C642828D00FD825282CD0632849
:10080000D8D12878B04720782F1D3D460028D3D175
:1008100005B0F0BDB0470134CCE773281ED078286E
:10082000C8D12A1D296801A8134B15469847C1E76E
:10083000724604AB1F4464284FF0000307F80C0C09
:1008400007F80B3C02F10104D6D12A1D296801A842
:100850000A4B15469847ADE7B047ABE72A1D296814
:1008600001A8074B15469847A4E700BF04020020E3
:10087000F8020020A9020008E10400084D03000866
:10088000E102000808020020684620F007018D46BA
:100890001E4A1F4B01B59A420DD2D0431D49184440
:1008A0000B4620F003000430084453F8041B834235
:1008B00042F8041BF9D11B481B494FF00002884243
:1008C000B8BF40F8042BFADB134A4FF4A06310685A
:1008D000114640F48030106001E0013B02D00A680C
:1008E0009203FAD50D4B0E491A6842F010021A60B5
:1008F0001A6822F003021A601A6842F002021A60B3
:100900008847BDE801408546704700BF00000020D1
:10091000F400002070340008001002400020024063
:10092000190000080002002018130020F8B5114B30
:100930009847114B9847114E11491248124A134FCC
:10094000134D144C4FF033331360134A37602B6050
:10095000236008609047114B9847114B9847114B03
:100960009847114B9847114B9847114B9847114B9B
:100970009847F8BD210B0008810D000804080140CC
:10098000041001404444443300080140B33433337D
:10099000000C0140040C0140850A0008B10D00085C
:1009A00009110008F50E0008E50B00082D150008D8
:1009B000611600088918000882B00023019300EB3B
:1009C0004000019B4000984205D9019B01330193EF
:1009D000019B9842F9D802B0704700BF00B5064BA2
:1009E00083B01A6802A9054B01F8012D0020984731
:1009F00003B05DF804FB00BF04380140950C00080B
:100A00002DE9F84340F2712E154D164C2B68DFF896
:100A10006CC0DFF86C80144F002243F48043134E07
:100A20004FF00C092B60C4F80090C8F80020CCF8F7
:100A30000020C7F800E033680D4D43F02003336019
:100A4000236843F0200323606860A960094B2520D8
:100A500009499847236843F400532360BDE8F883AD
:100A6000181002400C3801400838014004E100E051
:100A7000FC020020910D0008DD0900081438014037
:100A80001038014008B5084B9847084B002203F185
:100A90003C015A609A600C338B42FAD14FF4E1303A
:100AA0000021034B984708BD450C0008FC020020BC
:100AB000010A000830B5044683B00023074D8DF8C5
:100AC00007302046A8470028FBD020460DF107013B
:100AD000034B98479DF8070003B030BD650C000834
:100AE0000D0D00080A2807D0074A13681B06FCD51D
:100AF000064BC0B218607047034A13681906FCD54C
:100B0000024B0D221A60EFE7003801400438014023
:100B100008B50020014B984708BD00BFB50A000882
:100B20001E481F4902460B6823F47C1323F0F00390
:100B30000B600B6843F4E8130B60036843F08073A9
:100B4000036013689B01FCD5154B1A46196821F008
:100B500003011960196841F002011960196821F454
:100B600080011960196821F4E0611960196841F485
:100B700080611960196821F4605119601968196061
:100B8000136803F00C03082BFAD1064A136843F4E8
:100B9000804343F01D031360704700BF0010024004
:100BA000041002401810024008B5032807D8DFE8F7
:100BB00000F0110C070212200321094B984708BDD1
:100BC00012200221064B984708BD12200121044B38
:100BD000984708BD12200021014B984708BD00BF6F
:100BE000B512000810B50021054B12209847054C9E
:100BF0000120A0470220A0470320A04710BD00BF4E
:100C0000B5120008A90B000808B5032807D8DFE8CB
:100C100000F0110C070212200321094B984708BD70
:100C200012200221064B984708BD12200121044BD7
:100C3000984708BD12200021014B984708BD00BF0E
:100C400035130008054B064903F10E00002223F876
:100C5000022F834221F8022FF9D170472E04002081
:100C60003E040020084B094A33F9103032F91020B5
:100C700007489B1A20331840002800DB70470138D2
:100C800060F01F0001307047400400203004002055
:100C90001F00008070B4194E194A36F8103032F92E
:100CA00010401DB22C1B174A20342240002A16DBAC
:100CB0001F2A1AD001339BB2124A26F810301BB2F9
:100CC0000E781A4000EB40110F4C0D44002A665577
:100CD0000A4B0DDB70BC23F8102001207047013A4D
:100CE00062F01F0201321F2AE4D170BC002070475D
:100CF000013A62F01F020132ECE700BF400400201D
:100D0000300400201F0000803803002070B4184E0B
:100D1000184B36F8104033F9102025B2521B164BF1
:100D200020321340002B15DBD3B100EB4013134AE4
:100D30001D44535D013426F810400B7036F9101035
:100D40000D4B0B4A0B40002B0DDB70BC22F8103012
:100D500001207047013B63F01F030133002BE4D1F6
:100D600070BC18467047013B63F01F030133ECE78A
:100D700030040020400400201F00008038030020C1
:100D8000014A024B1A6070470006002008ED00E09F
:100D9000024B103043F82010704700BF00060020BF
:100DA000024B800843F82010704700BF0006002067
:100DB00038B5154D2B78012B24D0144B002203F1AC
:100DC000A0011A705A809A809A6010338B424FF0BB
:100DD0000004F6D13C200E4922460E4B98470E499E
:100DE0000E4A0F480F4B086014601A68012142F048
:100DF00004021A601A6842F002021A601A680A4372
:100E00001A60297038BD00BFAC0200200C0200201F
:100E1000990E0008A10D000814E000E018E000E0C1
:100E20003F19010010E000E0184938B50B68184A76
:100E300001330B6013889BB21BB11388013B9BB23B
:100E40001380144C04F1A00502E01034AC421BD016
:100E500014F8043C012BF8D134F8023C013B9BB25E
:100E600024F8023C002BF0D114F8032C1034012A92
:100E700034F8102C08BF04F8143C24F8122C54F851
:100E80000C3C9847AC42E3D138BD00BFB002002013
:100E9000B40200201002002008B5014B984708BD9D
:100EA000290E000830B4054C029D04EB001042707E
:100EB000C56083604180818030BC70470C02002097
:100EC000092803D8024B000101221A54704700BFC1
:100ED0000C020020034A108013889BB2002BFBD128
:100EE000704700BFB4020020014B1868704700BF74
:100EF000B002002008B5044B9847044B9847044BB8
:100F00009847044B984708BD2D2000084920000849
:100F1000892000089D2B0008284B1A6822F00F0238
:100F20001A601A6842F003021A601A681A601A6896
:100F300022F0F0021A601A6842F030021A601A6851
:100F40001A601A6822F470621A601A6842F44072D9
:100F50001A601A681A601A6822F470421A601A68D5
:100F600042F440521A601A681A601A6822F4702219
:100F70001A601A6842F440321A601A681A601A68D5
:100F800022F470021A601A6842F440121A601A6859
:100F90001A601A6822F070621A601A6842F0407291
:100FA0001A601A681A601A6822F070421A601A6889
:100FB00042F040521A601A681A607047000C0140F3
:100FC000284B1A6822F00F021A601A681A601A6811
:100FD00042F004021A601A6822F0F0021A601A68DD
:100FE0001A601A6842F040021A601A6822F47062AD
:100FF0001A601A681A601A6842F480621A601A68E5
:1010000022F470421A601A681A601A6842F4804228
:101010001A601A6822F470221A601A681A601A6834
:1010200042F480221A601A6822F470021A601A6868
:101030001A601A6842F480021A601A6822F070621C
:101040001A601A681A601A6842F080621A601A6898
:1010500022F070421A601A681A601A6842F08042E0
:101060001A607047000C0140164AC10713684CBF54
:1010700043F4005323F400531360124A81071368AA
:101080004CBF43F4804323F4804313600D4A41076F
:1010900013684CBF43F4004323F4004313600A4A2F
:1010A000010713684CBF43F4804323F4804313606B
:1010B000054AC10613684CBF43F4004323F40043C0
:1010C000136070470C0801400C1001400A4A38B503
:1010D00013680A4843F4804313601168084C41F4D4
:1010E0000041457E116023680C2023F0FF032B4351
:1010F0002360044B984738BD0C1001409007002036
:101100000C0C01406910000838B500231C46324819
:1011100000F813400133B3F5807F2F4A4FF00001F0
:10112000F6D12E4B012518682D4C20F0E060186098
:101130001868117540F080601860117682F82010F0
:1011400082F8241082F8261082F828105175517602
:1011500082F8211082F8231082F8251082F82710D7
:1011600082F8291082F82250A0471E4B1E4A1968A7
:101170001E4821F470011960196841F4401119608A
:1011800019681960196821F070611960196841F0D7
:101190004071196019681960196821F0704119606F
:1011A000196841F04051196019681960136823F0FB
:1011B00070631360136843F0407313601368136027
:1011C000136823F070431360136843F040531360B7
:1011D00013681360804738BD900700200400014069
:1011E000190F00080408014004100140CD10000848
:1011F00010B5044672B60B4B0B491A6842F4804294
:101200001A601A6842F400421A6088472046074B69
:101210009847074A074B14689847074B984762B6A8
:10122000E0B210BD0C100140C10F000869100008A9
:10123000080C0140CD100008190F000838B50F4BFD
:1012400013F8104003EB400314F0FD0F597014D154
:1012500072B60B4B0B4C1A680B4D42F480421A606D
:101260001A6842F400421A60236823F0FF0319430E
:101270002160A847054B984762B638BD900700200B
:101280000C1001400C0C014069100008CD10000842
:1012900008B5064B13F81020013A012A03D903EBD5
:1012A0004003587808BD024B984708BD90070020BE
:1012B000F111000838B50B4B044613F810200D4609
:1012C000013A012A0AD903EB400358780121A940C9
:1012D0000143C9B22046044B984738BD034B984799
:1012E000F4E700BF900700203D120008F11100084C
:1012F00010B50D4B82B013F810200446013A012AB4
:101300000DD903EB40035878012303FA01F120EAD9
:101310000101C9B22046054B984702B010BD044BED
:10132000019198470199EFE7900700203D120008CE
:10133000F111000838B50B4B044613F810200D4688
:10134000013A012A0AD903EB400358780121A94048
:101350004140C9B22046044B984738BD034B9847DB
:10136000F4E700BF900700203D120008F1110008CB
:101370002DE9F041036882B0042B69D8DFE803F05F
:101380001D244C5A03004E4900240B6804600BB125
:10139000013B0B604B490B685C0704D44A4C43F09B
:1013A00004030B60A260C36A002B51D0022098474F
:1013B0000021084602B0BDE8F081002948D0012391
:1013C00000210360C160F4E7C368C4690133A3422C
:1013D000C3603DD93A4E3B4F35683B680024DFF887
:1013E000ECE005F1010C4FF0020804614461DC07F8
:1013F000C0F80080C6F800C04EF8252004D4324C56
:1014000043F001033B602260C36A002BD1D00191FD
:10141000002098470199CCE7036901330361002953
:1014200031D14469056A0134AC4244612DD90423A9
:101430000360BEE703690133036171B94469056A5A
:101440000134AC4244610AD9042381610360B0E7EE
:101450000021084602B0BDE8F08100244461846A9E
:10146000A342A6D9174D83692C6800260133066173
:10147000A60783611DD5C36A002B9AD00191012074
:101480009847019995E700244461446AA34290D9A2
:101490000C4D03272B680024012607609F07046179
:1014A00044618661E7D4084C43F002032B6062601C
:1014B000E1E7054B44F002042C605A60DBE700BF13
:1014C000BC020020B802002094090020600A00201D
:1014D0002DE9F8431120114B984700260746344662
:1014E0000F4DDFF844904FF0010808FA04F33B4039
:1014F000E2B212BF28462846E2B24FF0010108BF0F
:101500001946C847A0400134042C46EA000605F1FC
:101510003005EAD1034B1E60BDE8F8839112000844
:10152000A0090020900900207113000870B514482C
:10153000144B00210A46016082B003F1C006052168
:10154000642532241A609A601A71DA601A615A614D
:101550009A61D96119625D629C62DA623033B3428A
:101560004FF00000EED100900A2102220420064B29
:10157000064CA0470420064B984702B070BD00BF40
:1015800090090020A0090020D1140008A50E000831
:10159000C10E0008032805D8034B00EB400003EB05
:1015A0000010C162704700BFA0090020032806D8C0
:1015B000044B00EB400003EB0010806970470020F3
:1015C000704700BFA0090020014B1868704700BF9A
:1015D000BC020020F8B5094D0446A8470746084E4E
:1015E0000023336004B9FEE7A847C01B844203D33D
:1015F00030680028F6D0F8BD0020FCE7E90E0008AE
:10160000B8020020034B012253F8203002FA03F005
:10161000704700BF94090020014B53F82000704729
:101620009409002038B50B4C0B4A23780A20D15C72
:101630000A4DA847237801219940C9430C20C9B21B
:10164000A84723780133DBB2032B88BF0023237024
:1016500038BD00BFC0020020700A00203D12000803
:1016600030B50D4B002483B021460C4D0A201C7070
:101670005C709C70DC70A8470C200F21A8470520E7
:10168000014600940222064B064CA0470520064B5B
:10169000984703B030BD00BF700A00203D1200081B
:1016A00025160008A50E0008C10E0008032830D832
:1016B000202910B42ED02D2932D0A1F13003092BCE
:1016C00009D81B4C1B4A235C0A4412F8302C23F027
:1016D0007F0313432354A1F14103052B09D8144C74
:1016E000144A235C0A4412F8372C23F07F03134377
:1016F0002354A1F16103052B09D80D4C0D4A235C3D
:10170000114411F8572C23F07F03134323545DF841
:10171000044B7047064A135C23F07F031354DAE747
:10172000034A135C23F07F0343F040031354D2E7D2
:10173000700A0020000000200EB4F0B5B2B037AA45
:10174000164B52F8041B05466846984700240DF1D5
:10175000FF3302E00134642C1AD013F8012F002A61
:10176000F8D1631E622B13D8032D11D86FEA4506FA
:101770000B4F26446E44AC42E8B24FF0200194BFB8
:10178000E8B231780135B847042D06F1FF36F2D1C1
:1017900032B0BDE8F04003B0704700BF95070008C5
:1017A000AD16000838B50546094C01211420A047A4
:1017B00014200021074B98472946074B10209847D3
:1017C00000211420A0473220044B9847002038BD48
:1017D000F1120008B51200083D120008B90900080E
:1017E00038B50546094C01211420A04714200021DA
:1017F000A04729461020064B984700211420054B8E
:1018000098473220044B9847002038BDB512000895
:101810003D120008F1120008B909000870B50378FC
:1018200005465BB1064E00241846B04715F8013F47
:10183000204384B2002BF7D1204670BD1C46FBE745
:10184000E11700080CB430B50D460446B3B036AA13
:1018500052F8041B6846094B984744EA851060F02B
:101860007F00074BC0B298476846064B9847002058
:1018700033B0BDE8304002B0704700BF95070008A4
:10188000A51700081D18000838B51420134C0021B6
:10189000A04701211420A047114D42F21070114CB5
:1018A000A8473C20A0470C20A0470120A0474FF4A8
:1018B000FA60A8470620A0478020A0470120A04743
:1018C0004FF4FA60A84700200146074A074CA0479A
:1018D0000121074A0020A04738BD00BFF1120008CF
:1018E000B9090008A5170008A0330008451800082A
:1018F000B033000838B5154B1A78012A00D038BD2E
:1019000013490A6802B3402A124814D80368002514
:1019100094B21A4402609BB20D600F4822461844EC
:10192000C0210E4B9847214601200D4B98470120BE
:101930000C4B984738BD0368403A0A6003F14002F7
:1019400002609BB24024E8E71A7038BDE402002030
:10195000F0020020EC020020DC0A0020D52B000859
:10196000F52D0008BD2C000810B5064C064B21468D
:1019700003209847054BC1B2204698470320044BEB
:10198000984710BD740A0020A92E000839210008CC
:10199000E52C000808B5094B1B68052B00D008BDD5
:1019A000074A1368052B03F1010101D0116008BD3E
:1019B0000021044B11609847F1E700BFD8020020D6
:1019C000C402002065210008594930B50B68594C04
:1019D0009BB2594D238022882B8889B01A409005EC
:1019E00055D4228802F4004213424CD1228802F4DA
:1019F000806213423ED1228802F40052134203D087
:101A00004DF6FF714A4A1160228802F48052134257
:101A100027D1228802F4006213420AD0474B1B7878
:101A2000E3B90220464B98474FF2FF72404B1A60D1
:101A30002B88228802F4807213420DD04FF6FF618A
:101A40003B4A404B11601B6819042CD43E4B0022CA
:101A50001A6007203A4B984709B030BD3B4B984776
:101A6000E2E74EF6FF72324B00201A60344B984783
:101A70002B88CEE74FF6FF312D4A354B11605B685E
:101A800098472B88B7E7334B98472B88AEE74FF63C
:101A9000FF53314A0B60137830490133DBB21370C6
:101AA00088472B889DE72848036801330360036853
:101AB000032BCED952F8043C043A13F00803C8D1E2
:101AC0001268274D92B227492A6051F8042B08ACBE
:101AD00004EB8304013392B2082B44F8202CF4D198
:101AE0002B68214A43F001032B602B6810499BB2FD
:101AF00013602B6823F001032B602B689BB21360EB
:101B00000B680B4A5B05FBD54FF6FF331549136095
:101B1000002308AA02EB830252F8202C013392B270
:101B2000082B41F8042BF4D10023036091E700BF98
:101B3000445C0040B40A002010130020DC020020A6
:101B4000011F0008485C0040D0020020191E000858
:101B50006C000020D92E0008CC0200209519000846
:101B6000C8020020005C0040405C0040034B9B7AB0
:101B700013B1034B05221A60704700BFEC1200201E
:101B8000D8020020014B04221A607047D8020020BE
:101B9000034B1A78202A04BF00221A70704700BF36
:101BA000D4020020704700BF212810B5034603D09F
:101BB000202810D0022010BD0E4B1A68137803F0B5
:101BC0007F03212BF6D10C490024916154822046D9
:101BD0008847204610BD074A1268117801F07F013E
:101BE000212903D0054A0220137010BD034804497F
:101BF0000370E9E70C130020391C0008D402002010
:101C0000511C0008074B1B681B7803F07F03212B36
:101C100001D00220704700F0DF00022814BF02202C
:101C2000002070470C13002009B1022070470128E2
:101C30008CBF02200020704708B103487047034B57
:101C400008221B681A827047E80000200C1300204D
:101C500008B103487047034B08221B681A8270477B
:101C6000E80000200C13002010B5064B9847064BE7
:101C700000241A68054B94729847054B9847054B0A
:101C80001C6010BD092200080C130020E51D00088F
:101C9000812E0008D8020020304B314A1B68D279CF
:101CA0002DE9F04700245A729C72DC7220462D4BBD
:101CB00098472D4E20464FF40071B0472B4D2046DB
:101CC0001021A847DFF8C0A020464021D047DFF808
:101CD000BC8080212046C0472046254B9847254B95
:101CE000204693F82C10DFF8A890C847224B2046D6
:101CF000984721460120B0470120C021C04701205C
:101D00002021A8471D4F21460120B84702204FF44B
:101D1000C061B04702204FF48071C04721460220C5
:101D2000B84702202021A84721460320B0470320BE
:101D30004FF48871D04703204021C84703204FF457
:101D40004051B84721460320A8470D4B20469847ED
:101D50000C4B01221A60BDE8F08700BF0C13002075
:101D60002C340008292C0008392C0008552C0008B8
:101D70000D2D00086C000020E52C0008892C0008BF
:101D8000E12A0008D8020020952D0008752D0008D2
:101D9000112E000808B50249024B984708BD00BF44
:101DA000C0000020E925000808B50249024B984709
:101DB00008BD00BF64000020E925000808B5064BF7
:101DC0001B68DB78042B05D80449054A01EBC301E5
:101DD000904708BD002008BD0C130020C80000205B
:101DE000E925000838B50120074B9847074D084BF7
:101DF000084C00224FF4E051012018601A60104690
:101E00002A602180196038BD1D210008445C004013
:101E1000405C0040101300200022134670B5314989
:101E200082B001920C6830484039A4B251F8042BBA
:101E300092B240F823200133082BF7D144F480629A
:101E400024F001051446274BADB245F4806642F0FC
:101E5000010226491C601A601E600B68234A5C055B
:101E6000FBD54FF6FF3322491360002350F823209F
:101E7000013392B2082B41F8042BF7D1194A45F4EB
:101E80008165156013681B499BB243F0040313601E
:101E90000B68194C01930B68144823F0030343F0BB
:101EA00001030B60236843F0040323600368DB0431
:101EB0000FD54EF6FF754FF6F773056010680340B7
:101EC0001360019B0B60236823F00403236002B0BE
:101ED00070BD0A4B9847236823F00403236002B0C7
:101EE00070BD00BF405C0040BC0A0020445C004064
:101EF000005C00400070004010ED00E0412200084E
:101F000070B5324C072818BF20702378052B4BD8AA
:101F1000DFE803F0181F30353F0363782B49013B9E
:101F2000DBB26370637803F0FF02002B3ED14FF603
:101F3000EF732748274C06680625334003600D7071
:101F4000226070BD234B1B68002B30D0052323700B
:101F500070BD4FF6FB731E4D1F4A29680B402B6066
:101F600090471C4B4FF43F40042101222860217010
:101F70001A6070BD022203236270237070BD637803
:101F8000124A013BDBB2637063787BB904231370A0
:101F900070BD0F4A052013680A219BB243F010035D
:101FA00013602070617070BD0623237070BD4FF602
:101FB000FB73074D084A29680B402B6090474FF48C
:101FC0003F4206232A60237070BD00BFB80A00207C
:101FD000405C0040E002002069200008024B4FF402
:101FE00080221A60704700BF14040140B2B1002380
:101FF00070B41E46541EE4B201346400020F092A74
:1020000002F1300586BF3732CA54CD54CA180233A4
:10201000A3424FEA00105670F0D170BC704700BF69
:1020200008B5014B984708BDC9190008054B1A6847
:1020300022F470021A601A6842F400121A601A68D8
:102040001A607047041001400549064A0B6823F4E2
:1020500080030B60136843F400031360704700BFF4
:10206000041002401C100240054B9B7A1BB9054B23
:1020700001221A607047034B05221A60704700BFA7
:10208000EC120020D80200201A4A1B4B4FF480218A
:1020900010B511601A68194922F480221A600A6882
:1020A000174822F480220A600268164C42F480220B
:1020B00002608A68902022F480228A601A6812499D
:1020C00042F480221A600022A047104A1049136887
:1020D000E82043F4801313600022A0470D490E4A04
:1020E0000B6843F480630B60136843F48023136030
:1020F00010BD00BF1404014000040140040401406D
:1021000008040140A10D00082120000800E100E0C2
:10211000DD1F000804E100E010040140054A1368D7
:1021200018B943F400531360704723F4005313604D
:10213000704700BF0C10014081B170B50446084ED5
:1021400082B0451814F8013B05200DF107018DF808
:102150000730B047AC42F5D102B070BD704700BF48
:10216000950C0008F8B5204D2B78012B23D01F4A81
:102170001368B3F5006F2CD01D4909688B422FD02E
:102180001AD898B2C91A1B4E402931601BD9403366
:102190004039136031604024174B01261844C02198
:1021A0002246164B2E7098473046154B21469847CD
:1021B0003046144B9847F8BDC3F500610D4E4029D9
:1021C000316098B2E3D80B44002713608CB23760BB
:1021D000E2E7074B00201968106009B10346D1E718
:1021E00000232B70F8BD00BFE4020020EC020020A9
:1021F000E8020020F0020020DC0A0020D52B0008B5
:10220000F52D0008BD2C000838B5084A084B1068A9
:102210001B6852F8044C181807D006490822064DCE
:10222000A847204605490422A84738BDF0F7FF1FFC
:10223000E8F7FF1F12000020ED1F00082200002019
:1022400030BF704708B538B1064B1B681B6898470C
:10225000054B18680A3008BD034B01221B681A821F
:1022600008BD00BF081300200C13002008B538B1CA
:10227000064B1B689B689847054B18680C3008BDD7
:10228000034B01221B681A8208BD00BF08130020FF
:102290000C13002008B51F4B002832D01E481A68C6
:1022A00000210180137813F07F0316D0012B27D073
:1022B000022B24D1527902F00F039B0003F18043DB
:1022C00003F5B84312061B681FD403F44053B3F55B
:1022D000805F0ED1012303700BE0527A930654BF46
:1022E0000378022351064CBF43F0010323F001039E
:1022F00003700A4B1B681B699847074808BD0846CE
:1023000008BD1B6802221A8208BD03F03003102B9F
:10231000EFD1DFE70C130020DC12002008130020AF
:102320002DE9F041244F3C68238A267A23B9042EF4
:102330002AD0A58A042603E0A58AAB42FAD9022650
:102340009D4228BF1D46A369284698471B4B8046DF
:10235000002098472A460146194B4046984729468F
:102360000020184B9847638A228A1749521B1D4444
:10237000164B2282658230204FF440523C68088020
:102380001A802672BDE8F081114A1178012906D021
:102390000D4B0726102226721A80BDE8F0810D48E9
:1023A0000D490068084D80B20144490030200B807F
:1023B0004B8013702880E4E70C130020B52D000833
:1023C000D52B0008F52D000814130020121300204F
:1023D000F4020020505C0040023000200B4B0C4AFD
:1023E0001B685178DA78914201D2022070479978BF
:1023F0000029FAD110B59C880CB1022010BD054906
:102400009A720B685B689847204610BD0C13002039
:10241000F00000200813002038B5104A104C126854
:1024200023685879D9789369984723689A7A0AB9C2
:10243000022038BD0028FBD11A79002AF8D19D78F6
:10244000002DF5D1074B1B68DB68984723682846A9
:102450005979DA78D9721A7338BD00BFE4120020B6
:102460000C1300200813002038B5314B1B68187876
:1024700010F07F0003D0022806D0022038BD5A7A1F
:1024800022F020025A7238BD5A88002AF6D11A79F1
:10249000002AF3D15A7922F080008400150604F155
:1024A0008041244D01F5B84109682D784CBF01F0F9
:1024B000300101F44051A842DFD20029DDD09B7ADF
:1024C000002BDAD004F1804404F5B84412062368E6
:1024D00009D503F03003102B1ED0174B1B685B6926
:1024E0009847002038BD03F44053B3F5805FF4D122
:1024F000D8B9124B93F82C10114B9847236823F44A
:10250000804323F070039BB283F4405343F40043B1
:1025100043F080032360E0E7C4B22046094B9847AC
:1025200020463021084B9847D7E7084B9847E5E706
:102530000C130020F0000020081300206C00002085
:10254000112E0008512D0008552C00082D2D0008D3
:1025500038B5224B1868427922F080018C001506AC
:1025600004F180431E4D03F5B8431B682D784CBF22
:1025700003F0300303F44053A94201D3022038BDD5
:1025800041880029FAD1002BF8D0837A002BF5D0AE
:1025900004F1804404F5B8441206236811D523F4ED
:1025A000E04323F040039BB283F0100343F4004365
:1025B00043F0800323600B4B1B689B699847002006
:1025C00038BD23F4804323F070039BB283F480531F
:1025D00043F4004343F080032360ECE70C13002036
:1025E000F000002008130020054B1B685A8A10B128
:1025F00008681044704789888A1A1A82704700BF99
:102600000C13002010B50C4B002093F82C100B4B32
:1026100098470B4B1B68187A082806D109490A4BC2
:102620004FF4805410220C801A80A0F10900B0FAF7
:1026300080F0400910BD00BF6C000020112E000882
:102640000C1300201213002014130020F0B5A14B2E
:10265000A14E1A683468A14B92B21344227A5B00EF
:10266000092A83B01D6847D0ADB26D0005F18045E1
:1026700005F5C0452B789A4F23706B786370A88856
:10268000B847608028893468B847A080AB8934682F
:102690000122E3802272002B33D06078062800F0FC
:1026A0008A80002849D16188002900F098808D4DEA
:1026B0002B681B699847032800F0EA804FF6FF71EA
:1026C00033681A8A8A4248D002280FD072B193F92F
:1026D00000100029C0F2B880834903224FF4405013
:1026E00008801A72814B984703B0F0BD08221A7215
:1026F0007E4B984703B0F0BDE38801222272002B85
:10270000CBD12378657813F07F032CD0012B00F018
:10271000B280022B00F0D580724B28461B685B69A3
:102720009847032800F010813468002834D008232B
:1027300023726E4B984703B0F0BD082861D123780F
:102740005B06B4D16A4B0020A361608298474FF6C4
:10275000FF7133681A8A8A42B8D109221A72634B10
:10276000984703B0F0BD092D00F0E880052D00F07A
:102770009680032D00F0D080012DCDD1E378012B80
:10278000CAD1A388002BC7D1637A9F06C4D5594B01
:1027900098470028C0D134684E4A574B12685749B1
:1027A00092B213445B0000221A805A803020062324
:1027B00008802372BDE723785D067FF478AFA378A5
:1027C000484D012B00F0BD80022B65D0032B7FF418
:1027D0006FAF2B685B6A002BB5D1062068E7636892
:1027E00023F47F43B3F5003F7FF461AF207810F00E
:1027F0007F0040F0AD80A388002B7FF458AF404BA2
:10280000A1E70A287FF453AF237803F07F03012B5D
:102810007FF44DAFA37A002B3FF449AF61880029C4
:102820007FF445AF63682F4D23F47F43B3F5803FBA
:102830007FF43EAF2B6860799B699847002840F091
:10284000C78034682F4B7EE7D98801910198824276
:1028500017D88A4280F083802249096891F82C00B9
:1028600081B28A4280F08080274A002010709982CD
:10287000264B98473CE70B2D7FF44EAF244B9847EF
:1028800087E7184A01991268198292F82C10EEE72E
:10289000336809221A722BE72B681B6A9BE794F9AD
:1028A0000330002BFFF643AFA378002B7FF43FAF3C
:1028B000A388002B7FF43BAFA37A002B3FF46CAFCF
:1028C00035E7012D3FF463AF032D7FF425AF114BA6
:1028D00098475EE7505C00400C1300200430002055
:1028E000752E0008E41200201213002005260008AF
:1028F000452200086924000802300020141300203B
:10290000952200086D220008F4020020212300080F
:102910001924000851250008E378012B7FF4FCAE50
:10292000A388002B7FF4F8AE637A2B4A43F0200390
:1029300012686372D369984734682DE7274B98472C
:1029400027E72B68DB6946E7346809232372F0E642
:10295000012830D0022812D00846214DA8E6204A8E
:10296000126892F82C1082E792FBF0F400FB14221C
:10297000002A7FF47CAF1B4A0120107077E7607952
:1029800000F00F029300010603F18043164903F59E
:10299000B8431B6809784CBF03F0300303F440537D
:1029A0008A4206D210F0700003D1002B7FF427AFCB
:1029B0007DE600207BE60A4D60792B689B6998478D
:1029C00030B93468A37A002B7FF419AF60786FE6D2
:1029D000336858786CE600BF08130020DD23000838
:1029E000E4120020F4020020F0000020F8B5324D7F
:1029F0002C68237A022B07D0042B05D0032B08D098
:102A0000052B06D0072B36D0082323722B4B984773
:102A1000F8BDA369228AB3B1B2B1A68A964228BF93
:102A2000164630469847228A638A921B33440746EB
:102A3000228263820020224B984732460146214B76
:102A400038469847228AEAB9A38A002B29D01E4922
:102A50002C6806221D4B22721A681D4B92B2134439
:102A60005B0000221A805A80237A30222372134B93
:102A70000A809847F8BD174B1B68DB6898472C689D
:102A80000823C2E7144A00200146144B4FF4405675
:102A900016809847238AA28A0B4930209A420880E0
:102AA00003D82C6803232372AFE7002BD0D02C6807
:102AB00005232372A9E700BF0C1300200526000898
:102AC000D52D0008092C000814130020505C00408C
:102AD00002300020E412002012130020F52D00081F
:102AE00070B40C4B1E787EB10B4C002240F60F7375
:102AF000256842F400412B4041F0800101320B4334
:102B0000964244F8043BF1D1044B40F08000186039
:102B100070BC7047F0000020005C00404C5C00403E
:102B200010B5174C23681A7A022A15D0042A13D03C
:102B3000062A04D008221A72124B984710BD5A7800
:102B4000052A11D0104B1B689B6898472368082200
:102B50001A720C4B984710BD0C4B984723681A7A91
:102B60001A72084B984710BD1A785206EAD1D878E5
:102B7000074B9847074B1B681B6A9847E2E700BF63
:102B80000C13002005260008E41200202123000871
:102B9000E12A000808130020704700BF70B4074AFC
:102BA000074E084C084B0225084909481572236056
:102BB00032601B68086070BC184700BFEC12002030
:102BC0000C130020E41200206C00002008130020E9
:102BD0009C00002001F10051013201F540515210DA
:102BE0004FEA41010FD030B40230002310F8015CED
:102BF00010F8024C023044EA052421F82340013346
:102C00009A42F3D130BC704701F10051013201F515
:102C1000405152104FEA410105D051F8043B013AAE
:102C200020F8023BF9D170474FF6F873014A034090
:102C300013607047505C0040800000F1804000F558
:102C4000B840036823F4EC4323F07003194389B2BE
:102C500001607047800000F1804000F5B8400368D3
:102C6000CA0623F4E04323F040039BB248BF83F03D
:102C700010038A0648BF83F0200343F4004343F067
:102C800080030360704700BF800000F1804000F5C2
:102C9000B8400368CA0423F4804323F070039BB256
:102CA00048BF83F480538A0448BF83F4005343F43D
:102CB000004343F080030360704700BF800000F1D1
:102CC000804000F5B840036823F4E04323F040035C
:102CD0009BB283F0300343F4004343F0800303606E
:102CE000704700BF800000F1804000F5B8400368E5
:102CF00023F4804323F070039BB283F4405343F4E6
:102D0000004343F080030360704700BF40F60F624A
:102D1000800000F1804000F5B8400368134043F4A0
:102D2000004343F080030360704700BF800000F160
:102D3000804000F5B84003685B0408D540F60F7387
:102D40000268134043F4404343F08003036070473C
:102D5000800000F1804000F5B84003685B0608D5AC
:102D600040F60F730268134043F4004343F0C0037E
:102D700003607047064B49081B6849009BB203EB90
:102D8000C00000F1005000F5405040000160704765
:102D9000505C0040054A064B1268490892B202EBAB
:102DA000C000034449005B0019607047505C00405C
:102DB00004300020064B1B689BB203EBC00000F1FF
:102DC000005000F540504000006880B2704700BFDE
:102DD000505C0040054A064B126892B202EBC000FC
:102DE00003445B00186880B2704700BF505C00402D
:102DF00004300020044A054B126892B202EBC00076
:102E000003445B0019607047505C004002300020B2
:102E10000E4A0F4B12683E2992B202EBC0000344E7
:102E20004FEA43030AD94A09C80604BF02F1FF3238
:102E300092B2920242F400421A6070474A08C907EF
:102E400048BF013292021A60704700BF505C0040D8
:102E500006300020054A064B126892B202EBC00011
:102E600003445B001868C0F309007047505C0040E1
:102E700006300020C3B2000A40EA0320704700BFBA
:102E800010B40649064C074A00204FF43F43206027
:102E90000B805DF8044B1360704700BF10130020D7
:102EA000445C0040405C004070B500F07F0528465F
:102EB000064B0E469847064B04462846984722463E
:102EC0000146044B30469847204670BD552E0008F9
:102ED000D52D0008092C00082DE9F043002385B00A
:102EE000DFF85C81514F524DADF80E303B68514CCC
:102EF0009AB213F4004F504E5048A8F800205049A1
:102F0000DFF82C9100F08A800B8803F00F039A0001
:102F100002F1804202F5B842037063BB4BF6BF7307
:102F2000226892B22A802A8802F0300232802A88EF
:102F300002F440522A802268134083F4005383F045
:102F4000200343F4004343F0800323600B88DA0638
:102F50003CD523689BB2ADF80E30BDF80E301B0592
:102F60005FD4BDF80E301BB2002BBFDA40F68F7372
:102F70002168344A2EE0116889B2ADF80E10BDF810
:102F80000E1009B2002914DBBDF80E301B06ADD5BA
:102F900048F60F7102782C48930003F1804303F543
:102FA000B8431C68013A2140196050F82230984714
:102FB0009CE740F68F711668244C3140013B54F871
:102FC00023301160019098470198DDE748F60F73B0
:102FD00021681F4A0B40236090474BF6BF7321685E
:102FE000B9F800200B40D404B9F8002048BF83F49E
:102FF00080539004328848BF83F40053D10632884E
:1030000048BF83F01003920648BF83F0200343F4C7
:10301000004343F08003074A9BB2136005B0BDE84C
:10302000F08340F68F7321680A4AD3E7445C00407E
:1030300012130020005C004014130020E81200204E
:10304000B40A0020ED2900082C00002048000020D0
:10305000212B00084D260008256400000A0A000004
:103060002A2A2A2A2A2A2A2A2A2A2A2A2A2A2A2AC0
:103070002A2A2A2A2A2A2A2A2A2A2A2A2A2A2A2AB0
:103080002A2A2A2A2A2A2A2A2A2A2A2A2A2A2A2AA0
:103090002A2A2A2A2A2A2A0A000000002020202080
:1030A0002020202020202020202020202020202020
:1030B00020204564752056302E33202020202020EB
:1030C0002020202020202020202020202020202000
:1030D0002020200A000000002A20312E204C4544E8
:1030E00020546573742020202020202020202020C0
:1030F00020202020202020202020202020202020D0
:1031000020202020202020202020202020202A0ACB
:10311000000000002A20322E204B65795061642087
:10312000546573742020202020202020202020207F
:10313000202020202020202020202020202020208F
:10314000202020202020202020202A0A000000000B
:103150002A20332E2037536567205465737420204E
:10316000202020202020202020202020202020205F
:10317000202020202020202020202020202020204F
:103180002020202020202A0A000000002A20342E9F
:10319000202020202020202020202020202020202F
:1031A000202020202020202020202020202020201F
:1031B000202020202020202020202020202020200F
:1031C00020202A0A000000002A20352E202020205E
:1031D00020202020202020202020202020202020EF
:1031E00020202020202020202020202020202020DF
:1031F00020202020202020202020202020202A0ADB
:10320000000000002A20362E202020202020202010
:1032100020202020202020202020202020202020AE
:10322000202020202020202020202020202020209E
:10323000202020202020202020202A0A000000001A
:103240002A20372E2020202020202020202020204F
:10325000202020202020202020202020202020206E
:10326000202020202020202020202020202020205E
:103270002020202020202A0A000000002A20382EAA
:10328000202020202020202020202020202020203E
:10329000202020202020202020202020202020202E
:1032A000202020202020202020202020202020201E
:1032B00020202A0A000000002A20392E2020202069
:1032C00020202020202020202020202020202020FE
:1032D00020202020202020202020202020202020EE
:1032E00020202020202020202020202020202A0AEA
:1032F000000000002A206D2E20204D656E752020D4
:1033000020202020202020202020202020202020BD
:1033100020202020202020202020202020202020AD
:10332000202020202020202020202A0A0000000029
:103330003E3E20004B657950616420537461727485
:10334000203A2070726573732074776F206B6579F3
:103350007320746F20657869740A00002578204B0B
:103360006579507265737365640A00002578204B97
:10337000657952656C65617365640A002578204B38
:10338000657952657065617420436E74203A20251A
:10339000640A00004B657920457869740A000000D2
:1033A000536D617274526F626F742042440000006A
:1033B000426172616D0000002603530054004D000D
:1033C0006900630072006F0065006C0065006300B7
:1033D000740072006F006E006900630073000000EB
:1033E0001201000202000040830440570002010263
:1033F00003010000040309043203530054004D008C
:10340000330032002000560069007200740075001D
:1034100061006C00200043004F004D002000500070
:103420006F007200740020002000000009024300B9
:10343000020100C03209040000010202010005245B
:1034400000100105240100010424020205240600E5
:1034500001070582030800FF09040100020A0000B9
:10346000000705030240000007058102400000003C
:103470003F065B4F666D7D277F675F7C395E7971A4
:103480001A03530054004D003300320000000000C6
:10349000000000000000000000000000F518000817
:1034A000992B0008992B0008992B0008992B0008EC
:1034B000992B0008992B0008992B0008992B0008DC
:1034C00069190008992B0008992B0008992B00080E
:1034D000992B00082C34000843000000691C0008E8
:1034E000991C0008911B0008A51B0008A91B0008D7
:1034F000051C0008291C0008951D0008A91D0008CE
:10350000BD1D00080000000040000000992B0008CD
:103510006D1B0008992B0008992B0008992B0008B7
:10352000992B0008992B0008992B0008851B00088F
:10353000E033000812000000F4330008040000002B
:10354000B833000826000000F833000832000000FD
:10355000100000201A00000000C201000000080056
:043560000401000062
:04000005080008895E
:00000001FF
