:020000040800F2
:10000000005000200D01000800000000000000006A
:1000100009010008090100080901000800000000AA
:1000200000000000000000000000000009010008BE
:100030000901000800000000090100087D10000807
:100040000901000809010008090100080901000868
:100050000901000809010008090100080901000858
:100060000901000809010008090100080901000848
:100070000901000809010008090100080901000838
:100080000901000809010008090100080901000828
:100090000901000809010008090100080901000818
:1000A0000901000809010008090100080901000808
:1000B00009010008090100080901000809010008F8
:1000C00009010008090100080901000809010008E8
:1000D00009010008090100080901000809010008D8
:1000E00009010008090100080901000800000000DA
:1000F0000000000000000000000000000000000000
:100100000000000000000000FEE700BF684620F08D
:1001100007018D46444A2DE9F941444B9A420DD2DC
:10012000D043434918440B4620F0030004300844F0
:1001300053F8041B834242F8041BF9D1484849494B
:100140004FF000028842B8BF40F8042BFADB394A6E
:100150004FF4A0631068114640F00100106001E008
:10016000013B02D00A689207FAD53248324B024668
:100170001C68324944F010041C601C6844F01004F0
:100180001C601C6824F007041C601C6844F0020416
:100190001C600B6823F47C130B600B6843F4E013C2
:1001A0000B60036843F08073036013689B01FCD508
:1001B000224B1A46196821F003011960196841F0B1
:1001C00002011960136803F00C03082BFAD142F204
:1001D0000C071B4A1B481368DFF878E043F0030361
:1001E00013600368A2F55842DFF86CC0DFF86C803A
:1001F000154E164C43F48443083A002143F005039E
:100200004FF49C750360CCF80080CEF800101760A6
:100210003160256013680E4943F40053136088472A
:10022000BDE8F94185467047000000201400002019
:10023000901A000800100240002002400410024002
:1002400014100240181002401438014008380140D0
:10025000A91200081038014004080140B444848801
:10026000140000202000002010B4214B002483B093
:1002700001941C681F4A44F48034194610461C60DF
:1002800003E00368B3F5A06F09D00B6803F40033F3
:100290000193136801331360019B002BF1D0144BC1
:1002A00015481946026842F0020202605A685A6014
:1002B0005A685A605A6842F480625A605A6842F436
:1002C00088125A601A6842F080721A600B68084AF5
:1002D0009B01FBD51146536843F0020353604B6802
:1002E00003F00C03082BFAD103B05DF8044B704700
:1002F00000100240140000200020024008B50B4B03
:1003000098470B4B0B499A6942F004029A619A692B
:1003100042F008029A619A6942F010029A619A6961
:1003200042F480429A61884708BD00BF6902000814
:1003300000100240F50300082DE9F041CD78EB06EE
:1003400048BF8B78098805F00F0E48BF4EEA030EB0
:1003500011F0FF0F21D00668002301274FF00F088E
:1003600002E00133082B17D007FA03F202EA010476
:100370009442F6D19A0008FA02FC26EA0C060EFA1C
:1003800002F2282D46EA020631D0482D03F101037E
:1003900008BF0461082BE7D10660FF2923D946680E
:1003A000002301274FF00F0C02E00133082B19D076
:1003B00003F1080207FA02F202EA01049442F4D1BE
:1003C0009A000CFA02F826EA08060EFA02F2282D24
:1003D00046EA020609D0482D03F1010308BF046173
:1003E000082BE5D14660BDE8F0814461DDE744615A
:1003F000B7E700BFF0B5214E83B04FF40072042779
:100400001F4C0325304601A91823ADF804208DF8B0
:1004100007308DF80650A04730460DEB07014FF42A
:100420008063ADF804308DF80770A04730460DEBBF
:1004300007010123ADF8043010268DF80770A0479E
:100440000DEB07014FF448730E48ADF804308DF8FA
:1004500006508DF80760A0470B4B984740F2FF13FA
:100460000DEB07010948ADF804308DF806508DF802
:100470000760A047064B984703B0F0BD0008014055
:1004800039030008000C01409D05000800100140E0
:1004900081060008104B30B4DA688178D243437883
:1004A000C2F302220F24D440C2F1040503FA05F27C
:1004B00004EA01031343094902781B01DBB20A4431
:1004C00082F800330378012203F01F0082405B09A9
:1004D00041F8232030BC704700ED00E000E100E06F
:1004E00070B5124882B0124B9847124A124B4FF027
:1004F000006199600025DA60012401A806230F4EEF
:100500008DF804308DF805508DF806508DF80740B1
:10051000B047072301A88DF805508DF806408DF8E7
:1005200007408DF80430B04702B070BD00130008DA
:100530007D0800080007FA0500ED00E095040008BA
:10054000002808DB090100F16040C9B200F56140F4
:1005500080F800137047044B00F00F000901C9B286
:1005600003441976704700BFFCEC00E0B0F1807FD7
:1005700001D30120704710B5064C013860600F218F
:100580004FF0FF30044B984700200723A060236002
:1005900010BD00BF10E000E041050008064B1A69DD
:1005A00042F400721A611A6942F020021A611A6953
:1005B00042F480721A617047000C014070B5064623
:1005C00000282AD0154D164C236943F4007323618B
:1005D000636943F020036361636943F4807363617B
:1005E000A847636943F400736361236943F0200300
:1005F0002361636943F480736361A847636943F4CB
:1006000000736361636943F020036361236943F40A
:1006100080732361A847013ED6D170BDD50C000878
:10062000000C014008B51E20074B9847074B1A697C
:1006300042F400721A611A6942F020021A611A69C2
:1006400042F480721A6108BDBD050008000C01402B
:10065000024A536943F480735361704700100140AC
:10066000024A136943F4807313617047001001401C
:10067000024A536943F0FF03536170470010014081
:10068000024A136943F0FF031361704700100140F1
:10069000244A136943F0FF03136109280BD8DFE8EC
:1006A00000F00B11171D23292F353B051D4A5369F7
:1006B00043F0AF03536170471A4A536943F03F0355
:1006C00053617047174A536943F0060353617047FB
:1006D000144A536943F09B0353617047114A5369AD
:1006E00043F08F03536170470E4A536943F0A603EA
:1006F000536170470B4A536943F0AD035361704730
:10070000084A536943F0BD0353617047054A536972
:1007100043F0270353617047024A536943F0BF0314
:100720005361704700100140F0B540F2FF1683B0EE
:100730002848294B9847294A294D9369284643F070
:10074000100301A9936103241022264B8DF8072082
:10075000ADF804608DF8064098476B69224E43F46B
:1007600080736B61B0472B69204F43F0FF032B610F
:100770006B69002443F001036B61B0476B6943F080
:1007800002036B61B0476B6943F004036B61B047D0
:100790006B6943F008036B61B0476B6943F010036A
:1007A0006B61B0476B6943F020036B61B0476B69C5
:1007B00043F080036B61B0476B6943F040036B61AA
:1007C000B04720460134B847B0470A2CF9D103B0EE
:1007D000F0BD00BF141300087D080008001002409F
:1007E0000010014039030008D50C000891060008EC
:1007F0000A2810B5044606D0054A13681B06FCD526
:10080000044B1C6010BD0D20FFF7F2FFF4E700BFA2
:100810000038014004380140034A13689B06FCD5A8
:10082000024B1868C0B270470038014004380140DC
:10083000E8B10378DBB100230B600278E2B130B499
:10084000A2F13004E2B2092A02D912E0092D10D82F
:1008500003EB830304EB43030B6010F8012FA2F1B9
:100860003004E5B2002AF1D1012030BC70470020ED
:100870007047002030BC7047012070470FB42DE94D
:10088000F04F89B00DF14808C64E58F8045B28783F
:10089000A0B3252837D108AC04F8180D21466B1CED
:1008A00005F10A0C5F1B9E4613F8010BA0F16302D1
:1008B000012A40F29580782800F09280732800F099
:1008C0008F80252800F08C8063451A4601F8010FBF
:1008D000E8D19EF80100551C642800F08F8015D8DF
:1008E000252800F00C816328D1D198F80000B0478A
:1008F000287808F10404A0460028CAD109B0BDE850
:10090000F04F04B07047B0470135C0E7732800F0DE
:10091000F8807828BBD1D8F800A09DF808300027CF
:10092000CDF800A008F104080197002B00F0FF802B
:10093000782B00F0FC80BB46B946A3F13102082AAF
:100940004AD814F80B3004EB0B01A3F13002092A4A
:1009500000F24F8105A8864600220EF8013B11F8EF
:10096000013F0BF1010BA3F1300CBCF1090F02F1B7
:100970000102F2D908AB1A4401A98B4B02F80C9C76
:100980000BF1FF3B98470BF1010B08AB5B4413F8ED
:10099000183C0BB1782BD0D1019B9AFA8AF20092C5
:1009A000002B00F0C780DA0740F12C81C3F1070368
:1009B00003EBD37308AA02EB630313F8203C13F094
:1009C0000F0300F05A81092B40F2758103F13700C3
:1009D000B0474FF0000955E1302B08BF0127D2E79F
:1009E000724608AB1F4464284FF0000307F8180C48
:1009F00007F8173C02F101057FF471AF9DF808304C
:100A00000022019208F1040AD8F800B0002B00F08F
:100A1000C480642B00F0C180904617469146A3F134
:100A20003102082A7ED8E35DE119A3F13002092AD8
:100A300000F2DC8005A8864600220EF8013B11F882
:100A4000013F0137A3F1300CBCF1090F02F10102A3
:100A5000F3D908AB1A4401A9534B02F80C9C013F8F
:100A60009847013708AB3B4413F8183C0BB1642B93
:100A7000D5D10198002800F09080092840F3BC806F
:100A800009200190062207210A23013903EB830381
:100A90004C1C4FEA4303F8D19BFBF3F7022803FBFE
:100AA00017B700F0068113460A24013B04EB8404C7
:100AB000591C4FEA4404F8D143464FF00109A846B7
:100AC0001D4610E0012C16D0B9F1000F13D03020D4
:100AD00005B92020B047354B83FB0423E417C4EB52
:100AE000A304002C7FDD97FBF4F3D8B2303004FB75
:100AF0001377002BE6D0B0474FF00009EBE7B04783
:100B0000C5E6D8F8004008F10408002C3FF4BFAE59
:100B1000207800283FF4BBAEB04714F8010F00283E
:100B2000FAD1B4E6302B08BF4FF0010899E79AFAE2
:100B30008AF30093E94619F8013B012203F00F0400
:100B40001B094FF0000719D0092B88BF03F13700AC
:100B500040F2B780B0470023B4B9032F00F0B4804F
:100B60000122002B00F0B0800137042F3FF48FAE3C
:100B700019F8013B03F00F041B09E5D1002A00F02E
:100B8000A0800123002CE8D0092C88BF04F1370095
:100B900040F29A80B0470022E6E70A270122044C7F
:100BA00013E000BFF10700083108000867666666B9
:100BB00000CA9A3BB0470022454B013F83FB041318
:100BC0004FEAE474C4EBA3040ED09BFBF4F3D8B259
:100BD000303004FB13BB002BECD1012CEAD0002AEF
:100BE000E8D00122E8E74546D04650E6002205A8B5
:100BF0002FE7002205A8BDE60128A0F102014AD096
:100C0000C21E41E74FF00109C3F1080303EBD373A0
:100C10004FEA630ABAF1030F3FF739AEAB46EA4435
:100C200001AC1AF8013B03F00F051B0909D0092B91
:100C300088BF03F1370041D9B0477DB905F13000D5
:100C400010E0B9F1000F39D087B13020B0472DB98D
:100C50003020B047A245E4D15D4618E6092DEDD914
:100C600005F13700B0474FF00009F3E72020B04707
:100C7000002DF3D12020B047ECE73FB13020B04742
:100C80004FF00109019B013B0193BDE72020B047D4
:100C90004FF00109F6E70E4B83FB0B374FEAEB737E
:100CA000C3EBA70707EB8703ABEB43076FF0010329
:100CB000FAE60A2400E703F1300089E603F1300088
:100CC000BAE703F1300045E704F1300062E700BF06
:100CD00067666666014B013BFDD17047A8137B0038
:100CE0002DE9F041094CDFF82C8032254FF47A775A
:100CF00027602368002BFCD10548C047013D054E05
:100D0000F6D10548B047BDE8F08100BF1C000020C7
:100D1000281300087D0800083C13000870B51A4E1F
:100D20001A4D1B4C3046A0472846A0471948A047FB
:100D30002846A0471848A0471848A0471848A04789
:100D40001848A0471848A0471848A0471848A04787
:100D50001848A0471848A0471848A0471848A04777
:100D60001848A0471848A0471848A0472846A04759
:100D70001748A0472846A0473046A0471548A04737
:100D8000154B984770BD00BF50130008541300085E
:100D90007D08000888130008A8130008E413000861
:100DA00024140008581400088C140008C01400080B
:100DB000F4140008281500085C15000890150008B8
:100DC000C4150008F81500082C1600086C16000859
:100DD000AC160008C016000819080008F8B5844DC4
:100DE000844E2F46B0470446002800F08D802146EF
:100DF0008148303CA847412CF4D801A353F824F093
:100E0000E30F0008D50F0008C70F0008BB0F00084C
:100E1000AF0F0008A30F0008970F00088B0F000802
:100E20007F0F0008730F0008E50D0008E50D0008AE
:100E3000E50D0008E50D0008E50D0008E50D0008CA
:100E4000E50D0008E50D0008E50D0008E50D0008BA
:100E5000E50D0008E50D0008E50D0008E50D0008AA
:100E6000E50D0008E50D0008E50D0008E50D00089A
:100E7000E50D0008E50D0008E50D0008E50D00088A
:100E8000E50D0008E50D0008E50D0008E50D00087A
:100E9000E50D0008E50D0008E50D0008E50D00086A
:100EA000E50D0008E50D0008E50D0008E50D00085A
:100EB000E50D0008E50D0008E50D0008E50D00084A
:100EC000E50D0008670F00085B0F0008510F0008D0
:100ED000470F00083D0F0008330F0008290F0008D6
:100EE0001F0F0008190F0008130F00080D0F00084E
:100EF000E50D0008E50D0008E50D0008E50D00080A
:100F0000E50D0008090F00080020F8BD3B48B84770
:100F100068E73B48B84765E73A48B84762E73A4868
:100F2000B8473A4B98475DE73948B847394B984737
:100F300058E73948B847394B984753E73848B847D6
:100F4000384B98474EE73848B847384B984749E7F9
:100F50003748B847374B984744E73748B8470020E9
:100F6000364B98473EE73648B8470920334B9847F9
:100F700038E73448B8470720304B984732E73248C3
:100F8000B84706202D4B98472CE73048B847052036
:100F90002A4B984726E72E48B8470420274B984706
:100FA00020E72C48B8470320244B98471AE72A48E3
:100FB000B8470220214B984714E72848B84701203A
:100FC0001E4B98470EE72648B8472648B847264B99
:100FD000984707E72548B8472548B847254B98471D
:100FE00000E72548B8470820144B9847FAE600BFA9
:100FF0007D0800081D0D0008E0160008AC17000869
:10100000A41700089C17000894170008E10C0008BA
:101010008C17000825060008841700084D120008E8
:101020007C170008290700087417000881060008CB
:101030006C17000871060008641700089106000884
:101040005C1700084C170008441700083C170008FC
:10105000341700082C170008241700081C17000874
:10106000041700080C17000861060008EC160008B9
:10107000F41600085106000854170008034B1A68BC
:1010800012B11A68013A1A60704700BF1C000020B4
:101090002DE9F0414F4F05467E684F4806F00C069B
:1010A00031464E4CA047042E00F08880082E66D0B2
:1010B0004B49002E5FD04B482960A047454F4A4816
:1010C0007968DFF8848101F0F0010E09A04731460C
:1010D0004648A04731464648A04718F806604548AC
:1010E000F6B23146A04731464348A0472B684348F3
:1010F000F3406B60796801F4E0610E0AA047314665
:101100003F48A04718F806603E48F6B23146A0476F
:1011100031463D48A0476B683848F340AB6079687A
:1011200001F46051CE0AA04731463548A04718F86F
:1011300006603648F6B23146A04731463448A047EB
:101140006B683448F340EB60796801F440418E0BE2
:10115000A04731463048A047304B31489E5DF6B23B
:101160003146A04731462F48A047EB68B3FBF6F65F
:101170002E61BDE8F0812C482960A0479EE77E687B
:101180007B6806F4701603F4803831462748B60CA5
:10119000A047023641462648A04731462348A0478B
:1011A000B8F1000F0FD07B6822489B034CBF224947
:1011B000224901FB06F12960A0477FE71F4920482B
:1011C0002960A0477AE71F491A4801FB06F1296008
:1011D000A04773E700100240B41700087D0800081C
:1011E00000127A002C1800083C1800084C1800085F
:1011F0005C1800087818000898180008B41800084F
:10120000D0180008EC1800080C190008281900086C
:10121000481900086419000880190008000000201F
:101220009C190008BC190008C4170008EC17000836
:101230000018000814180008808D5B00001BB70020
:10124000D817000800093D000400002010B50D4B20
:1012500086B00D4C19680D48A0470D4B01A8984762
:1012600001990C48A04702990B48A04703990B48E5
:10127000A04704990A48A0470A480599A04706B024
:1012800010BD00BF180000207D080008DC19000810
:1012900091100008F4190008141A00082C1A00080C
:1012A000441A00085C1A000810B50D4B86B0984728
:1012B0000C4B9847019B0C490C4AA1FB0330800959
:1012C0009047044630B101A8094B984709480A4B9A
:1012D0009847FEE7094B9847204606B010BD00BF6F
:1012E000E1040008FD020008D34D62106D050008FE
:1012F00091100008741A00087D080008DD0D000830
:101300004E5649432066756E6374696F6E20737420
:1013100061727400536576656E5F5365676D656EC7
:10132000745F546573740A0044454C41595F5465B9
:101330007374202E2E2E2021210A000044454C419A
:10134000595F5465737420646F6E652021210A0013
:101350000A0A00002D2D2D2D2D2D2D2D2D2D2D2D5D
:101360002D2D2D2D2D2D2D2D2D2D2D2D2D2D2D2DAD
:101370002D2D2D2D2D2D2D2D2D2D2D2D2D2D2D2D9D
:101380002D2D2D2D2D0A0000202020202020202072
:10139000202020202020202020534548204D414956
:1013A0004E204D454E550A0020312E20506F776556
:1013B000724F6E5F375F534547202020202020204A
:1013C000202020202020202020202020202020201D
:1013D000202020202020202020202020202020200D
:1013E00020200A0020322E20506F7765724F6666EB
:1013F0005F375F53454720202020202020202020D9
:1014000020202020202020202020202020202020DC
:101410002020202020202020202020202020200AE2
:101420000000000020332E2053454720312020208B
:1014300020202020202020202020202020202020AC
:10144000202020202020202020202020202020209C
:101450002020202020200A0020342E205345472021
:10146000322020202020202020202020202020206A
:10147000202020202020202020202020202020206C
:101480002020202020202020200A000020352E208F
:1014900053454720332020202020202020202020BA
:1014A000202020202020202020202020202020203C
:1014B000202020202020202020202020200A000082
:1014C00020362E2053454720342020202020202065
:1014D000202020202020202020202020202020200C
:1014E00020202020202020202020202020202020FC
:1014F000200A000020372E20534547203520202089
:1015000020202020202020202020202020202020DB
:1015100020202020202020202020202020202020CB
:1015200020202020200A000020382E20534547206C
:101530003620202020202020202020202020202095
:10154000202020202020202020202020202020209B
:101550002020202020202020200A000020392E20BA
:1015600053454720372020202020202020202020E5
:10157000202020202020202020202020202020206B
:10158000202020202020202020202020200A0000B1
:1015900020302E2053454720382020202020202096
:1015A000202020202020202020202020202020203B
:1015B000202020202020202020202020202020202B
:1015C000200A000020612E2053454720392020208A
:1015D000202020202020202020202020202020200B
:1015E00020202020202020202020202020202020FB
:1015F00020202020200A000020622E205345472072
:1016000030202020202020202020202020202020CA
:1016100020202020202020202020202020202020CA
:101620002020202020202020200A000020632E20BF
:101630004F6E5F375F5345475F416C6C50696E205A
:10164000202020202020202020202020202020209A
:10165000202020202020202020202020202020208A
:10166000202020202020200A0000000020642E20BE
:101670004F66665F375F5345475F416C6C50696EDC
:10168000202020202020202020202020202020205A
:10169000202020202020202020202020202020204A
:1016A00020202020202020200A00000020712E2051
:1016B0004C4544204D656E7520515549540A000033
:1016C00053454C4543542054484520434F4D4D41CC
:1016D0004E44204E554D424552203A200A0000000B
:1016E0006B6579203A2025640A0000004E6F2E3188
:1016F0000A000000506F7765724F6E5F375F534589
:10170000470000004E6F2E320A000000506F7765D0
:10171000724F66665F375F53454700004E6F2E334A
:101720000A0000004E6F2E340A0000004E6F2E3566
:101730000A0000004E6F2E360A0000004E6F2E3752
:101740000A0000004E6F2E380A0000004E6F2E393E
:101750000A0000004E6F2E300A0000004E6F2E610E
:101760000A0000004E6F2E620A0000004E6F2E63CA
:101770000A0000004E6F2E640A0000004E6F2E65B6
:101780000A0000004E6F2E660A0000004E6F2E67A2
:101790000A0000004E6F2E680A0000004E6F2E698E
:1017A0000A0000004E6F2E6A0A0000004E6F2E6B7A
:1017B0000A000000746D70203A3A3A3A2025640A13
:1017C000000000004853495F56616C7565203A3A45
:1017D0003A3A2025640A00004853455F564C41556B
:1017E00045203A3A3A3A2025640A0000706C6C6D44
:1017F000756C6C203A3A3A3A2025640A00000000E1
:10180000706C6C736F75726365203A3A3A3A2025B2
:10181000640A0000535953434C4B5F46726571751F
:10182000656E6379203A2025640A00004853495FB9
:1018300056616C7565203A2025640A00746D70202D
:1018400048434C4B203A2025640A000048434C4B47
:1018500020746D7020203A2025640A0048434C4BC8
:101860005F4672657175656E637920746D70203A9C
:1018700020253038780A000048434C4B5F4672659B
:101880007175656E6379207072657363203A2025E7
:101890003038780A0000000048434C4B5F467265C0
:1018A0007175656E6379207072657363203A2025C7
:1018B000640A000020746D702050434C4B315F4629
:1018C00072657175656E6379203A2025640A00009F
:1018D00050434C4B315F4672657175656E6379207C
:1018E000746D7020203A2025640A000050434C4B50
:1018F000315F4672657175656E63792070726573CC
:1019000063203A20253038780A00000050434C4BC1
:10191000315F4672657175656E63792070726573AB
:1019200063203A2025640A0050434C4B325F4672D4
:10193000657175656E6379207072657363203A20F6
:10194000253038780A00000050434C4B325F467215
:10195000657175656E6379207072657363203A20D6
:1019600025640A0020746D7020414443434C4B5F52
:101970004672657175656E6379203A2025640A00A8
:10198000414443434C4B5F4672657175656E6379A4
:1019900020746D70203A2025640A000041444343BE
:1019A0004C4B5F4672657175656E63792070726528
:1019B0007363203A20253038780A000041444343BD
:1019C0004C4B5F4672657175656E63792070726508
:1019D0007363203A2025640A00000000537461728A
:1019E000747570436F756E746572203A2025640AB1
:1019F0000000000053797374656D20636C6F636B36
:101A0000206672657175656E6379203D2025640AD4
:101A10000000000048434C4B5F4672657165756E6F
:101A20006379203A2025640A0000000050434C4BA3
:101A3000315F4672657175656E6379203A20256461
:101A40000A00000050434C4B325F46726571756569
:101A50006E6379203A2025640A0000004144434324
:101A60004C4B5F4672657175656E6379203A20252F
:101A7000640A00007379737469636B20636F6E6628
:101A80006967206572726F722021210A00000000D0
:101A90000204060800000000000000000102030428
:041AA0000607080924
:040000050800010DE1
:00000001FF
