:020000040800F2
:10000000005000200D01000800000000000000006A
:1000100009010008090100080901000800000000AA
:1000200000000000000000000000000009010008BE
:10003000090100080000000009010008090100088A
:100040000901000809010008090100080901000868
:100050000901000809010008090100080901000858
:100060000901000809010008090100080901000848
:100070000901000809010008090100080901000838
:100080000901000809010008090100080901000828
:100090000901000809010008090100080901000818
:1000A0000901000809010008090100080901000808
:1000B00009010008090100080901000809010008F8
:1000C00009010008090100080901000809010008E8
:1000D00009010008090100080901000809010008D8
:1000E00009010008090100080901000800000000DA
:1000F0000000000000000000000000000000000000
:100100000000000000000000FEE700BF684620F08D
:1001100007018D46444A2DE9F941444B9A420DD2DC
:10012000D043434918440B4620F0030004300844F0
:1001300053F8041B834242F8041BF9D1484849494B
:100140004FF000028842B8BF40F8042BFADB394A6E
:100150004FF4A0631068114640F00100106001E008
:10016000013B02D00A689207FAD53248324B024668
:100170001C68324944F010041C601C6844F01004F0
:100180001C601C6824F007041C601C6844F0020416
:100190001C600B6823F47C130B600B6843F4E013C2
:1001A0000B60036843F08073036013689B01FCD508
:1001B000224B1A46196821F003011960196841F0B1
:1001C00002011960136803F00C03082BFAD142F204
:1001D0000C071B4A1B481368DFF878E043F0030361
:1001E00013600368A2F55842DFF86CC0DFF86C803A
:1001F000154E164C43F48443083A002143F005039E
:100200004FF49C750360CCF80080CEF800101760A6
:100210003160256013680E4943F40053136088472A
:10022000BDE8F94185467047000000201400002019
:10023000180A00080010024000200240041002408A
:1002400014100240181002401438014008380140D0
:10025000690900081038014004080140B44484884A
:10026000140000201800002008B5084B08499A69BE
:1002700042F004029A619A6942F008029A619A690E
:1002800042F480429A61884708BD00BF00100240D6
:10029000510300082DE9F041CD78EB0648BF8B787B
:1002A000098805F00F0E48BF4EEA030E11F0FF0F4C
:1002B00021D00668002301274FF00F0802E0013328
:1002C000082B17D007FA03F202EA01049442F6D190
:1002D0009A0008FA02FC26EA0C060EFA02F2282D11
:1002E00046EA020631D0482D03F1010308BF04613C
:1002F000082BE7D10660FF2923D946680023012790
:100300004FF00F0C02E00133082B19D003F1080263
:1003100007FA02F202EA01049442F4D19A000CFABC
:1003200002F826EA08060EFA02F2282D46EA02062C
:1003300009D0482D03F1010308BF0461082BE5D162
:100340004660BDE8F0814461DDE74461B7E700BF86
:1003500070B50E4D82B0284601A9032218230C4C1B
:100360004FF400768DF806208DF80730ADF8046064
:10037000A0474FF480620423284601A9ADF8042069
:100380008DF80730A04702B070BD00BF00080140E3
:10039000950200080A2810B5044606D0054A1368DD
:1003A0001B06FCD5044B1C6010BD0D20FFF7F2FFAF
:1003B000F4E700BF0038014004380140E8B1037899
:1003C000DBB100230B600278E2B130B4A2F130045B
:1003D000E2B2092A02D912E0092D10D803EB8303F7
:1003E00004EB43030B6010F8012FA2F13004E5B2D7
:1003F000002AF1D1012030BC704700207047002056
:1004000030BC7047012070470FB42DE9F04F89B020
:100410000DF14808C64E58F8045B2878A0B325288B
:1004200037D108AC04F8180D21466B1C05F10A0CF5
:100430005F1B9E4613F8010BA0F16302012A40F2F4
:100440009580782800F09280732800F08F8025280E
:1004500000F08C8063451A4601F8010FE8D19EF840
:100460000100551C642800F08F8015D8252800F065
:100470000C816328D1D198F80000B047287808F1A2
:100480000404A0460028CAD109B0BDE8F04F04B06A
:100490007047B0470135C0E7732800F0F88078282E
:1004A000BBD1D8F800A09DF808300027CDF800A0F7
:1004B00008F104080197002B00F0FF80782B00F072
:1004C000FC80BB46B946A3F13102082A4AD814F889
:1004D0000B3004EB0B01A3F13002092A00F24F812B
:1004E00005A8864600220EF8013B11F8013F0BF1EA
:1004F000010BA3F1300CBCF1090F02F10102F2D99A
:1005000008AB1A4401A98B4B02F80C9C0BF1FF3B82
:1005100098470BF1010B08AB5B4413F8183C0BB187
:10052000782BD0D1019B9AFA8AF20092002B00F02E
:10053000C780DA0740F12C81C3F1070303EBD373C3
:1005400008AA02EB630313F8203C13F00F0300F03A
:100550005A81092B40F2758103F13700B0474FF003
:10056000000955E1302B08BF0127D2E7724608ABDE
:100570001F4464284FF0000307F8180C07F8173CD5
:1005800002F101057FF471AF9DF80830002201925D
:1005900008F1040AD8F800B0002B00F0C480642BE6
:1005A00000F0C180904617469146A3F13102082A17
:1005B0007ED8E35DE119A3F13002092A00F2DC8064
:1005C00005A8864600220EF8013B11F8013F0137CD
:1005D000A3F1300CBCF1090F02F10102F3D908AB11
:1005E0001A4401A9534B02F80C9C013F984701376C
:1005F00008AB3B4413F8183C0BB1642BD5D10198E0
:10060000002800F09080092840F3BC800920019068
:10061000062207210A23013903EB83034C1C4FEA0E
:100620004303F8D19BFBF3F7022803FB17B700F055
:10063000068113460A24013B04EB8404591C4FEA4B
:100640004404F8D143464FF00109A8461D4610E086
:10065000012C16D0B9F1000F13D0302005B920209D
:10066000B047354B83FB0423E417C4EBA304002CF1
:100670007FDD97FBF4F3D8B2303004FB1377002B07
:10068000E6D0B0474FF00009EBE7B047C5E6D8F831
:10069000004008F10408002C3FF4BFAE2078002889
:1006A0003FF4BBAEB04714F8010F0028FAD1B4E60E
:1006B000302B08BF4FF0010899E79AFA8AF30093AC
:1006C000E94619F8013B012203F00F041B094FF022
:1006D000000719D0092B88BF03F1370040F2B7801B
:1006E000B0470023B4B9032F00F0B4800122002BDF
:1006F00000F0B0800137042F3FF48FAE19F8013BB2
:1007000003F00F041B09E5D1002A00F0A0800123AB
:10071000002CE8D0092C88BF04F1370040F29A8001
:10072000B0470022E6E70A270122044C13E000BF8D
:1007300095030008BD0300086766666600CA9A3B19
:10074000B0470022454B013F83FB04134FEAE4749A
:10075000C4EBA3040ED09BFBF4F3D8B2303004FBFF
:1007600013BB002BECD1012CEAD0002AE8D00122E7
:10077000E8E74546D04650E6002205A82FE70022CC
:1007800005A8BDE60128A0F102014AD0C21E41E73A
:100790004FF00109C3F1080303EBD3734FEA630A77
:1007A000BAF1030F3FF739AEAB46EA4401AC1AF891
:1007B000013B03F00F051B0909D0092B88BF03F18A
:1007C000370041D9B0477DB905F1300010E0B9F1EB
:1007D000000F39D087B13020B0472DB93020B04755
:1007E000A245E4D15D4618E6092DEDD905F13700A3
:1007F000B0474FF00009F3E72020B047002DF3D1B8
:100800002020B047ECE73FB13020B0474FF001095E
:10081000019B013B0193BDE72020B0474FF0010948
:10082000F6E70E4B83FB0B374FEAEB73C3EBA707DF
:1008300007EB8703ABEB43076FF00103FAE60A24EB
:1008400000E703F1300089E603F13000BAE703F175
:10085000300045E704F1300062E700BF6766666676
:10086000234A30B4536803F00C03042B38D0082B10
:1008700025D00BB31F4A134602601D4A1E4C516817
:100880001E4DC1F30311615CCB4043605168C1F35D
:100890000221615C23FA01F181605168C1F3C22138
:1008A000615CCB40C3605268C2F38132AA5C30BC49
:1008B000B3FBF2F3036170470E4B0360DDE753684F
:1008C0005168C3F38343C90303F102030BD5526894
:1008D00092034CBF0A4A0B4A02FB03F30360CCE7C6
:1008E000084B0360C9E7084A02FB03F30360C4E74F
:1008F0000010024000127A000400002000000020D6
:10090000808D5B00001BB70000093D0010B50D4B4A
:1009100086B00D4C19680D48A0470D4B01A89847AB
:1009200001990C48A04702990B48A04703990B482E
:10093000A04704990A48A0470A480599A04706B06D
:1009400010BD00BF14000020090400088009000841
:100950006108000898090008B8090008D0090008D3
:10096000E8090008000A000808B5034B9847034B44
:100970009847002008BD00BF690200080D09000863
:1009800053746172747570436F756E746572203A3A
:100990002025640A0000000053797374656D20639C
:1009A0006C6F636B206672657175656E6379203D4F
:1009B0002025640A0000000048434C4B5F467265E6
:1009C0007165756E6379203A2025640A0000000085
:1009D00050434C4B315F4672657175656E6379208B
:1009E0003A2025640A00000050434C4B325F4672A7
:1009F000657175656E6379203A2025640A000000F0
:100A0000414443434C4B5F4672657175656E637933
:080A1000203A2025640A0000D1
:100A180002040608000000000000000001020304B0
:040A280006070809AC
:040000050800010DE1
:00000001FF
