:020000040800F2
:1000000000040020315F0008894000088D4000088E
:100010009140000895400008994000080000000049
:100020000000000000000000000000009D400008EB
:10003000A140000800000000A5400008A9400008F9
:10004000B1400008B5400008B9400008BD400008B4
:10005000C1400008C5400008C940000835410008FB
:10006000A5410008A9410008AD410008B1410008C0
:100070000D4200081142000815420008194200080C
:100080001D420008214200082542000829420008BC
:100090002D42000835420008394200083D42000860
:1000A0004142000845420008494200084D4200080C
:1000B0005142000855420008594200085D420008BC
:1000C0006142000865420008694200086D4200086C
:1000D0007142000875420008794200087D4200081C
:0C00E000814200088542000889420008A7
:1000EC002DE9F04FA5B016001C00DFF83426D2E93C
:1000FC000023CDE91223049004AD69600020A862AE
:10010C000DF150096FF0004B00E0BE190020ADF866
:10011C00020012AB4FF0FF3231000DF1020005F07E
:10012C00ADFE0700012804DA3078471EBF41FF43BB
:10013C00FF0FBDF80200252801D17A1E00E03A001D
:10014C00012A0ADB310002A801F04AF8002804D584
:10015C004FF0FF3025B0BDE8F08FBDF80200252828
:10016C0007D1002028616861A861E8612862686293
:10017C0005E00028C9D1A86AECE740F0010016F8A8
:10018C00011F2029F9D023290DD02B2904D02D298A
:10019C0006D030290BD00DE040F0020080B2EEE723
:1001AC0040F00400FAE740F0080080B2E7E740F0C6
:1001BC001000F3E72A290DD12268111D2160116866
:1001CC002963002904D54A422A6340F0040080B216
:1001DC00761C10E0002129630A2307E0296B59459E
:1001EC0003D001FB032130392963761C3278302A85
:1001FC0001D33A2AF2D331782E2903D04FF0FF31B4
:10020C00E9621BE016F8011F2A2906D12268111D8C
:10021C0021601168E962761C10E00021E9620A2372
:10022C0007E0E96A594503D001FB03213039E96243
:10023C00761C3278302A01D33A2AF2D3A886317848
:10024C00DFF8E00405F07AFE08B116F8010B8DF822
:10025C0046009DF84600682806D1307868280CD1F5
:10026C0062208DF8460007E06C2806D130786C28A7
:10027C0003D171208DF84600761C14A8E86096F81E
:10028C0000C06046413800F0F080001F022840F2A8
:10029C00EC80133800F0A080093800F0E680801E56
:1002AC001AD0401E3DD0401E022840F2DE80001FB6
:1002BC0037D0401F00F01B81401E00F08D80401E87
:1002CC0000F05481C01E00F05F81801E00F084801D
:1002DC00C01E00F0818079E19DF846006C2809D0A1
:1002EC002869411C29612268111D2160116800F8E0
:1002FC00091075E12168081D2060086880B2ADF80E
:10030C0004000020ADF806004FF0FF30E86201A9B0
:10031C0002A800F009FA002840F162814FF0FF308A
:10032C005FE19DF846006C281BD071280BD120682A
:10033C00C01D072188432060014601F108002060A0
:10034C00D1E9002312E06A280BD12068C01D0721D7
:10035C0088432060014601F108002060D1E90023A8
:10036C0004E02168081D20600A68D3179DF8460038
:10037C00682801D112B207E0622801D152B203E021
:10038C00742801D07A2800D1D317002B06DC00DBAF
:10039C0004D228692D2100F809100FE0A88E10F066
:1003AC00020F04D028692B2100F8091006E010F088
:1003BC00010F06D02869202100F809102869401C7B
:1003CC002861286914A94018A860CDE90223614668
:1003DC0002A800F01BFB03E19DF846006C281BD023
:1003EC0071280BD12068C01D07218843206001466D
:1003FC0001F108002060D1E9002312E06A280BD13A
:10040C002068C01D072188432060014601F10800C7
:10041C002060D1E9002304E02168081D20600A68EF
:10042C0000239DF84600682801D192B207E06228AB
:10043C0001D1D2B203E0742801D07A2800D1002374
:10044C00A88E10F0080FBCD00BB9002AB9D04CF014
:10045C0020007828B5D12869302100F809102869C6
:10046C00401C286100F809C0A8E79DF846004C28FC
:10047C0020680AD1C01D072188432060014601F184
:10048C0008002060D1E9000109E0C01D0721884364
:10049C002060014601F108002060D1E90001CDE99E
:1004AC000201BDF80E0010F4004F04D028692D2174
:1004BC0000F809100FE0A88E10F0020F04D0286984
:1004CC002B2100F8091006E010F0010F06D0286966
:1004DC00202100F809102869401C2861286914A9FA
:1004EC004018A860614602A800F02AFB78E09DF84D
:1004FC00460062280CD068282AD06A2818D06C28AC
:10050C001FD071280BD074281BD07A2819D026E064
:10051C00A86A2268111D21601168087060E0A86A41
:10052C00C11723681A1D22601A68C2E9000157E03E
:10053C00A86AC11723681A1D22601A68C2E9000153
:10054C004EE02168081D20600868A96A016047E038
:10055C00A86A2268111D21601168088040E021689A
:10056C00081D20600868A96A016039E02168081D2F
:10057C0020600A6814A8A8604FF0FF3000211040DA
:10058C00CDE90201782123E79DF846006C2821680B
:10059C0013D0081D20600868A860EA6A002A02D5FA
:1005AC0005F03EFB07E0002105F0BEF810B1A9688C
:1005BC00401A00E0E86A686112E0081D20600968D2
:1005CC0002A800F0B1F800280AD5A7E62869411C5A
:1005DC002961BCF1000F08BF4FF0250C00F809C0D1
:1005EC000020761C00287FF4B3AD286B2969401AD3
:1005FC00E969401A6969401A296A401AA969401ABE
:10060C00696A471AA88E10F0040F12D120208DF8B9
:10061C0000004FF00008012F0BDB012200A902A8FB
:10062C0000F0DEFD00287FF493AD08F10108B84519
:10063C00F3DB2A6914A902A800F0D2FD00287FF48C
:10064C0087AD30208DF80000D5F81CA04FF00008C5
:10065C00BAF1010F0BDB012200A902A800F0C0FDCA
:10066C0000287FF475AD08F10108D045F3DB6A6909
:10067C00A96802A800F0B4FD00287FF469AD302011
:10068C008DF80000D5F820A04FF00008BAF1010F4A
:10069C000BDB012200A902A800F0A2FD00287FF4C8
:1006AC0057AD08F10108D045F3DBAA696869A96860
:1006BC00411802A800F094FD00287FF449AD3020C9
:1006CC008DF80000D5F824A04FF00008BAF1010F06
:1006DC000BDB012200A902A800F082FD00287FF4A8
:1006EC0037AD08F10108D045F3DBA88E10F0040FEC
:1006FC003FF40CAD20208DF800004FF00008012FC6
:10070C00FFF604AD012200A902A800F069FD002843
:10071C007FF41EAD08F10108B845BFF6F7ACF1E760
:10072C002C600008346000082DE9F04F95B00500EE
:10073C008B466E6B002E48BF6FF0004605F086FCB2
:10074C00A96B40180190B048D0E90001CDE9030134
:10075C00A88F10F0040F02D10198412806D20DF198
:10076C001409402001900020029009E004F028FDBB
:10077C008146B9F1000FF6D14FF0FF3041E1361B45
:10078C00012EC0F2B88003AABBF800100DF10100D5
:10079C0005F0A0FB040004D4BBF8000028B9641ECB
:1007AC0003D54FF0FF300290A5E0A642C0F2A38023
:1007BC00A86901992218914280F08E800021A963CA
:1007CC004142686A081AE969401AA96A401A296AFA
:1007DC00401AE96A471AA88F10F0040F11D1202093
:1007EC008DF800004FF00008012F0ADB012200A950
:1007FC00280000F0F5FC00286CD108F10108B84580
:10080C00F4DBAA694946280000F0EAFC002861D113
:10081C0030208DF80000D5F824A04FF00008BAF174
:10082C00010F0ADB012200A9280000F0D9FC0028E6
:10083C0050D108F10108D045F4DBEA692969280098
:10084C0000F0CEFC002845D130208DF80000D5F802
:10085C0028A04FF00008BAF1010F0ADB012200A911
:10086C00280000F0BDFC002834D108F10108D04567
:10087C00F4DB2A6AE86929694118280000F0B0FC09
:10088C0040BB30208DF80000D5F82CA04FF00008AC
:10089C00BAF1010F09DB012200A9280000F0A0FC2D
:1008AC00C0B908F10108D045F5DBA88F10F0040F92
:1008BC0010D020208DF800004FF00008012F09DB2C
:1008CC00012200A9280000F08BFC18B908F10108DE
:1008DC00B845F5DB0020A86122000DF10101A869E3
:1008EC00484404F0B3FEA8692018A8613BF8020B39
:1008FC0000287FF444AFA86BA969401A696A401AB2
:10090C00E969401AA96A401A296A401AE96A441A24
:10091C00A88F10F0040F0FD120208DF800000026B6
:10092C00012C09DB012200A9280000F059FC002849
:10093C005DD1761CA642F5DBAA694946280000F079
:10094C004FFC002853D130208DF800006E6A002730
:10095C00012E09DB012200A9280000F041FC00282F
:10096C0045D17F1CB742F5DBEA692969280000F004
:10097C0037FC00283BD130208DF80000AE6A0027F0
:10098C00012E09DB012200A9280000F029FC002817
:10099C002DD17F1CB742F5DB2A6AE8692969411819
:1009AC00280000F01DFC10BB30208DF80000EE6A12
:1009BC000027012E08DB012200A9280000F010FC02
:1009CC00A8B97F1CB742F6DBA88F10F0040F0ED02D
:1009DC0020208DF800000026012C08DB012200A944
:1009EC00280000F0FDFB10B9761CA642F6DB0020B7
:1009FC00A861A86305A881451CBF484604F068FDA2
:100A0C00029815B0BDE8F08F6C6000082DE9FA472C
:100A1C0086B08046D8F8140000909DF818006F2816
:100A2C0002D14FF0080907E040F0200078280CBFF5
:100A3C004FF010094FF00A093C24D8E900010600D8
:100A4C000F009DF81820642A01D0692A09D10029C9
:100A5C0007DC00DB05D200200021801BB941060019
:100A6C000F001FB916B9D8F8340050B3651E2C000E
:100A7C004FEAE97ACDE9029A30003900DDE9022328
:100A8C0004F05AFBCDE90401B246DDE90423DDE9AB
:100A9C000201A2FB00675046801B3030C0B23A28DE
:100AAC0003D39DF818105139081800996854DDE9E2
:100ABC00046707B92EB1D8F8100000996118884264
:100ACC00D4D3B9F1080F0CD1B8F83C0010F0080FD2
:100ADC0007D00098205C302803D0641E0098302189
:100AEC002154C4F13C00C8F81C0000996118C8F8E6
:100AFC001010D8F8341088420ADA081AC8F8240002
:100B0C00B8F83C004FF6EF710840A8F83C0014E030
:100B1C00002912D5B8F83C1001F0140110290CD1A1
:100B2C00D8F83810D8F81820891AD8F82420891A3F
:100B3C000C1A012CA8BFC8F8244008B0BDE8F087F7
:100B4C002DE9F24F8EB0060004AFD6E90001CDE9D5
:100B5C0000019DF8380040F020008DF80800612855
:100B6C000BD0706B002801D5062005E005D19DF84F
:100B7C000800672801D101207063F18847F6F070F6
:100B8C000840001140F2FF7290421CD111F00F0F7F
:100B9C0005D1B08818B9708808B9308848B10320DD
:100BAC00F0619DF83800612835D37B2833D2D5A16C
:100BBC0032E00320F0619DF83800612831D37B28A6
:100BCC002FD2D1A128E0012804DA300004F022FA57
:100BDC0001281DDAF18848F20F02114043F6E07249
:100BEC001143F180A0F2FE354FF0FF309DF8081054
:100BFC0061291DD13269511C31613021117031696B
:100C0C004A1C32619DF83820612A0CD178220BE005
:100C1C0000250020EAE7CFA10322306904F016FD7D
:100C2C0095E1CDA1F8E758220A70B169891CB16130
:100C3C0010B90024002580E19DF80800612840F0DF
:100C4C009980706B002801D5212401E0441C24B24A
:100C5C0004F10108D6E900ABDDE900010022002314
:100C6C0005F012F82EBFCDE900AB8BF0004BCDE9AF
:100C7C0000AB2D1F00208DF810000DF11109B8F1FB
:100C8C00010F35DBDDE900010022002305F014F82B
:100C9C002ED21C2100A804F03DF8DDE9000104F07F
:100CAC006FFD0700A8F10708B8F1010F09DB05F08B
:100CBC001BF802000B00DDE9000103F08BFDCDE910
:100CCC00000109F107000721012F0ADB491E08D496
:100CDC0007F00F0200F8012D3F11F5E7002200F894
:100CEC00012D491EFAD500F10709B8F1010FC9DA37
:100CFC000DF11100A9EB00000DF11107A042B8BFD6
:100D0C0004B2002C2FD4844206DA04A820184078B0
:100D1C00082801D30F2000E00020210004AA8A1823
:100D2C0001E0641E24B2491E12F801398342F8D046
:100D3C000F2804D104A808184278521C42700029CC
:100D4C0003D504AF641C24B22D1D200009E0C15D45
:100D5C003031C9B23A2903D39DF838203A3A5118A8
:100D6C00C155401EF3D5706B002840F1E680601E23
:100D7C007063E2E0DDE900010022002304F084FF4F
:100D8C003EBFDDE9000181F00041CDE900012DB24B
:100D9C0047F297506843714990FBF1F52DB2C5F1BC
:100DAC0007009046DFF8B89101281BDB0400DDE951
:100DBC0000AB14F0010F07D05046594642464B4643
:100DCC0003F036FC82468B46641040464946424648
:100DDC004B4603F02DFC80468946002CE9D1CDE929
:100DEC0000AB22E044429246DFF878B113E014F0F5
:100DFC00010F07D05046594642464B4603F018FCAB
:100E0C0082468B4664104046494642464B4603F0A8
:100E1C000FFC80468946002CE9D1DDE900015246E1
:100E2C005B4602F08DFDCDE900019DF808006628B7
:100E3C0002D105F10A0000E00620716B4418142C55
:100E4C00A8BF132430208DF810000DF11107012CD0
:100E5C002DDBDFF8149111E0DDE9000104F0A6FCB4
:100E6C0004F04CFF02000B00DDE9000103F0B2FCC2
:100E7C0000224B4603F0DCFBCDE90001DDE900016B
:100E8C0004F094FC07F1080108220A23B0FBF3FCE0
:100E9C00E6460EFB1303DBB26046303301F8013D2E
:100EAC00521EF2D101F10807083C012CD4DA0DF1E5
:100EBC001100381A0DF111079DF81110302905D1C8
:100ECC00401E6D1E17F8011F3029F9D09DF808102F
:100EDC00662902D12DB2691C04E0652901D10121DA
:100EEC0000E00021726B8C1824B2A042B8BF04B28F
:100EFC00002C22D4844209DAE05D352806D339204F
:100F0C0005E000BF6E616E00696E66003020210046
:100F1C00CA19521E01E0641E24B2491E12F801398E
:100F2C008342F8D0392802D1C85D401CC85500292D
:100F3C0003D57F1E641C24B26D1C2DB220B523007A
:100F4C003A009DF84010300000F010F802B00FB0DD
:100F5C00BDE8F08F4E414E00494E4600A086010080
:100F6C00000024400000F03F84D797412DE9F04762
:100F7C0086B00400884615001E00BDF9387005F0D7
:100F8C0029F8406A90F800A0D4F83490012E01DAC8
:100F9C00012692A548F0200066280AD0672840F068
:100FAC0086806FF003018F42C0F287804F4580F23C
:100FBC0084807F1C66280CD0A08F10F0080F02D103
:100FCC004E45B8BFB1463FB2B9EB070948BF4FF029
:100FDC0000092069E1693FB2012F25DA4A1C302350
:100FEC000B54B9F1010F03DAA18F11F0080F02D0E5
:100FFC0002F800A0521CE26179428945B8BFC9F1E0
:10100C0000073FB27942A162B944B145B8BF4E4620
:10101C0036B2266232002900E369181804F016FB78
:10102C00A9EB0600E062C3E00818BE4218DA3200F1
:10103C00290004F00BFBE1697118E161B81BA06297
:10104C00B9F1010F03DAA08F10F0080F05D0206959
:10105C0001F800A0206A401C2062C4F82C90A7E084
:10106C003A00290004F0F2FAE0693818E061F61B46
:10107C00B9F1010F03DAA18F11F0080F04D0411C54
:10108C00E161216900F801A036B2B145B8BF4E4606
:10109C0036B232007919E0692369C01804F0D6FA27
:1010AC00E0693018E061A9EB0600A06280E0B8F1BD
:1010BC00610F16D14FF0700818E04E4504DAA18F7D
:1010CC0011F0080F08BFB146B9F1010948BF4FF044
:1010DC000009B8F1670F14BF4FF045084FF06508D1
:1010EC0004E0B8F1410F08BF4FF05008E1694A1C09
:1010FC00206915F8013B0B54B9F1010F03DAA18FEC
:10110C0011F0080F02D002F800A0521CE261B9F1F4
:10111C00010F11DB761E36B2B145B8BF4E4636B262
:10112C0032002900E369181804F090FAE0693018CD
:10113C00E061A9EB0600A062E0692169451805F899
:10114C00018B002F03D42B2005F8010B04E02D207C
:10115C0005F8010B3800474200260DF1080909E09B
:10116C000A22390000A804F02BFF019809F8010BA2
:10117C00009F761C3FB2012FF2DA022E06DA48F0FD
:10118C002000652802D1302005F8010B4EB9302023
:10119C0005F8010B07E0761E02A8305C303005F82C
:1011AC00010B012EF7DAE06921694018281A206238
:1011BC00A08F00F0140010280DD1A069E169081867
:1011CC00A16A0818216A0818E16A0818A16B8842FC
:1011DC0001DA081A606206B0BDE8F0873000000042
:1011EC00F8B505000E00140000208CB14FF0FF374D
:1011FC0005E0286B401C28630020641E08D016F8FC
:10120C00011BE868AA689047E8600028F1D1380013
:10121C00F2BD000080B580B2002806D1DFF8DC0AF0
:10122C00006801210182002008E0DFF8C80A00688C
:10123C0000688047DFF8C40A00680A3002BD00006D
:10124C0080B5DFF8B0094078DFF8B01A0968C978C2
:10125C0088421AD3DFF8A40A00688078002814D1D9
:10126C00DFF8980A0068808800280ED1DFF88C0A15
:10127C000068DFF8881A0968C9788172DFF8740A87
:10128C00006840688047002000E0022002BD00009A
:10129C0080B580B2002806D1DFF8600A0068012111
:1012AC000182002008E0DFF84C0A00688068804763
:1012BC00DFF8480A00680C3002BD000080B5DFF88A
:1012CC003C0A0068C178DFF8340A00684079DFF81E
:1012DC00282A126892699047DFF8201A0968897ADF
:1012EC0000292AD0C0B200280BD1DFF8101A0968E7
:1012FC000979002905D1DFF8041A096889780029D1
:10130C0001D002201AE0C0B2002816D1DFF8E4099F
:10131C000068C0688047DFF8E4090068DFF8DC1972
:10132C0009684979C172DFF8D4090068DFF8CC1973
:10133C000968C9780173002000E0022002BD00009A
:10134C0080B580B2002806D1DFF8B0090068022110
:10135C000182002025E0364800210180DFF89C093D
:10136C000068007810F07F0F23D1DFF89009006837
:10137C00407A10F0200F05D02D49097851F0020168
:10138C002B4A117010F0400F0CD02948007810F047
:10139C00FE0027490870DFF85C0900680069804787
:1013AC00234802BD2248007850F001002049087003
:1013BC00F1E7DFF848090068007810F07F00012899
:1013CC0001D11B48EDE7DFF834090068007810F014
:1013DC007F00022829D1DFF824090068417911F037
:1013EC000F0011F0800F0FD0C0B2DFF8041851F8C5
:1013FC00200010F030001028CDD10D48007850F0AE
:10140C0001000B490870C6E7C0B2DFF8E41751F8C9
:10141C00200010F44050B0F5805FBCD10448007837
:10142C0050F0010002490870B5E70020B9E700BF91
:10143C007C08002010B5DFF8C4080068007810F0B4
:10144C007F0000280BD1DFF8B4080068407A10F058
:10145C00DF00DFF8A81809684872002090E0022825
:10146C0040F08D80DFF8940800684088002805D192
:10147C00DFF8880800680079002801D002207FE09E
:10148C00DFF87007DFF87418096849790B008022BF
:10149C0093431C00DFF864281268527912F0800F15
:1014AC0006D0DFF84C2752F8242012F0300205E069
:1014BC00DFF83C2752F8242012F440520078834283
:1014CC0007D2002A05D0DFF834080068807A00289B
:1014DC0001D1022054E011F0800F11D0DFF8100779
:1014EC0050F8240010F03000102841D12000C0B278
:1014FC0002F006FC30212000C0B202F07DFB37E088
:10150C00DFF8EC0650F8240010F44050B0F5805F82
:10151C002ED1002C18D11B4890F82C1089B2200029
:10152C00C0B202F04DFCDFF8C80650F824004BF6B0
:10153C008F71084090F4805090F40050DFF8B01692
:10154C0080B241F8240013E02000C0B202F0BEFBD0
:10155C00DFF89C0650F824004BF68F71084090F48D
:10156C00805090F40050DFF8881680B241F82400C7
:10157C00DFF88007006840698047002000E0022007
:10158C0010BD0000D409002080B5DFF8700700689A
:10159C004179080080229043DFF860271268527965
:1015AC0012F0800F06D0DFF8482652F8202012F0F7
:1015BC00300205E0DFF8382652F8202012F44052B1
:1015CC00DFF830361B7898420DD2DFF830371B68C5
:1015DC005B88002B07D1002A05D0DFF82027126882
:1015EC00927A002A01D1022025E011F0800F0ED052
:1015FC00DFF8FC1551F8201048F6BF72114091F03D
:10160C001001DFF8EC2589B242F820100DE0DFF86C
:10161C00E01551F820104BF68F72114091F4805167
:10162C00DFF8CC2589B242F82010DFF8C806006834
:10163C0080698047002002BD80B5DFF8C0060068D5
:10164C00407A50F02000DFF8B41609684872DFF8D1
:10165C00A4060068C0698047002002BDDFF89C2604
:10166C001268528A80B2002807D18888801ADFF865
:10167C008C1609680882002001E008681018704771
:10168C0070B5DFF87806006810F110052888A96895
:10169C0000291CD000281AD0AC88A04200D204002B
:1016AC00200080B2A9688847060028882100401ACB
:1016BC0028806888210008186880002002F066FBEA
:1016CC00220092B2010089B2300004F019F9288886
:1016DC0000280BD0DFF824054FF440510180002185
:1016EC00002002F05FFB9948302101802888A988EE
:1016FC00884205D3DFF804060068032101721BE061
:10170C002888012805D3DFF8F4050068052101724B
:10171C0012E0288800280FD1DFF8E00500680621C8
:10172C000172DFF86805006880B28749002241F831
:10173C00102086483021018070BD0000F8B5DFF81C
:10174C00BC05006810F110042088DFF8B01509689A
:10175C000D7A00281CD1042D1AD1DFF89C040078D6
:10176C00012810D1DFF82405006880B276490022E8
:10177C0041F810207548302101800425DFF87804E9
:10178C000021017030E007257048102101802BE00A
:10179C00A688864201D3042500E00225B04200D27F
:1017AC000600300080B2A16888470700002002F0D4
:1017BC00E1FA320092B2010089B2380004F08AF8E2
:1017CC00310089B2002002F0EDFA20883100401A75
:1017DC0020806088301860805C4830210180DFF800
:1017EC001C044FF440510180DFF8100500680572AD
:1017FC00F1BD000010B50220DFF8001509684C7827
:10180C00DFF8F8140968097811F07F0F56D1092C0C
:10181C0002D1FFF715FD71E0052C1BD1DFF8DC04BC
:10182C000068C078802811D2DFF8D0040068807876
:10183C0000280BD1DFF8C40400688088002805D18B
:10184C00DFF8B8040068807A002801D0082075E021
:10185C00002053E0032C17D1DFF8A0040068C078F7
:10186C0001280FD1DFF8940400688088002809D182
:10187C00DFF888040068407A10F0200F02D0FFF7E0
:10188C00DBFE3BE0022039E0012C37D1DFF86C04A1
:10189C000068C07801280FD1DFF8600400688088E8
:1018AC00002809D1DFF854040068407A10F0200FAA
:1018BC0002D0FFF7BFFD21E002201FE0DFF83C144F
:1018CC000968097811F07F01012904D10B2C15D17D
:1018DC00FFF7F4FC12E0DFF824140968097811F022
:1018EC007F01022909D1012C02D1FFF7A3FD05E0EC
:1018FC00032C03D1FFF748FE00E00220C0B2002801
:10190C000BD02000C0B2DFF8F01309684969884792
:10191C00C0B2032801D1092010E0C0B2002801D0C8
:10192C0008200BE00620DFF86413096889B2064A28
:10193C00002342F81130054930220A80DFF8BC132D
:10194C000968087210BD000004600040BA0800204D
:10195C0038B5DFF8A8030068407800240025062875
:10196C0024D1DFF898030068007810F07F0F40F066
:10197C00B780DFF8880300688078C0B2012804D1F2
:10198C00DFF874030068C469AAE0C0B2022804D16D
:10199C00DFF864030068046AA2E0C0B2032840F0D8
:1019AC009F80DFF854030068446A99E0002865D1F1
:1019BC00DFF848130968498800295FD1DFF83C1328
:1019CC000968C988022959D1DFF8301309680979E7
:1019DC00002953D1DFF824030068007810F07F0F42
:1019EC0007D1DFF8180300688088002801D17D4CEE
:1019FC0076E0DFF808030068007810F07F0001281B
:101A0C0010D10021BD4800684079BB4A1268926928
:101A1C009047002864D1B9480068807A00285FD0CC
:101A2C00704C5DE0B5480068007810F07F0002282B
:101A3C0056D1B2480068407910F00F00AF490968E0
:101A4C00497911F07001AD4A1268527912F0800F89
:101A5C0005D0674A52F8202012F0300204E0644AA4
:101A6C0052F8202012F44052624B1B78984237D225
:101A7C00002935D1002A33D05A4C31E0082807D13F
:101A8C009E480068007810F07F0F29D1564C27E053
:101A9C000A2825D199480068007810F07F000128A9
:101AAC001ED196480068807A002819D093480068A7
:101ABC004088002814D191480068007900280FD183
:101ACC008E480068C08801280AD100218B48006824
:101ADC004079894A126892699047002800D1434C9A
:101AEC002000002814D0854800684582834800688F
:101AFC0084610020A047002080490968098A4FF6BC
:101B0C00FF72914213D17D4800680921017268E08F
:101B1C007A48006840787849096809698847C0B2F2
:101B2C000328E9D1754800680921017259E0C0B257
:101B3C00022804D071480068008A002804D16F483C
:101B4C000068082101724CE06C480068007810F0C5
:101B5C00800F3ED069480068C088009000986749A3
:101B6C000968098A884204D2644800680099018295
:101B7C0025E062480068008A60490968C988884283
:101B8C001DD25E480068008A5B49096891F82C10E8
:101B9C0089B2884203D21848002101700FE05748DF
:101BAC000068008A5449096891F82C1090FBF1F2F6
:101BBC0002FB1100002802D10F48012101704F488F
:101BCC0000684D49096891F82C108182FFF7B6FD29
:101BDC0007E04A4800680321017208484FF440515D
:101BEC00018031BD4D130008211200089D12000820
:101BFC00005C0040AC0A0020C1080020B80800209E
:101C0C0010B520482149096889B21F4A52F81110B1
:101C1C0089B210EB410439480068007A092820D0B9
:101C2C003648006821780170641C344800682178BB
:101C3C004170641CA41C2000841C008802F0EEF887
:101C4C002E4909684880A41C2000841C008802F0DE
:101C5C00E5F82A4909688880A41C2848006821886E
:101C6C00C180264800680121017224480068C088A0
:101C7C00002802D1FFF7BEFD01E0FFF769FE00F07E
:101C8C0067F810BD0060004008600040505C0040E8
:101C9C0080B51A480068007A022801D0042805D1C2
:101CAC00FFF74CFD15480068007A1CE0062819D196
:101CBC0012480068407805280ED11048006800785A
:101CCC0010F07F0F08D10D480068C07800F066F85E
:101CDC0008480068006A80470748006880688047A9
:101CEC00082000E0082005490968087200F030F867
:101CFC0002BD000088080020840800208008002015
:101D0C0080B511480068007A032801D0052805D158
:101D1C00FFF7B6FC0C480068007A0EE0072805D1E6
:101D2C000A480068C0688047082006E0022801D0F5
:101D3C00042801D1082000E0082003490968087232
:101D4C0000F006F802BD00BF8008002084080020C7
:101D5C0080B50E4890F82C1089B2002002F030F8B3
:101D6C000B480068007A082806D10A484FF48051C5
:101D7C00018009481021018005480068007A092873
:101D8C0001D1012000E00020C0B202BDD409002026
:101D9C0080080020B8080020BA08002080B512493D
:101DAC000A78002117E00B00DBB2DFF840C05CF8CA
:101DBC0023309BB248F68F7C1CEA03038C465FFAF7
:101DCC008CFC5CEA03038C465FFA8CFCDFF81CE0AD
:101DDC004EF82C30491C9142E5D3C0B250F0800033
:101DEC000349086001BD00BFAC0A0020005C004044
:101DFC004C5C00407047000070B504000D000020E2
:101E0C000026DFF850158C420CD0DFF84C058442CC
:101E1C0008D0DFF84805844204D0DE21DFF8400505
:101E2C0003F0ECFF2868002828D02868B0F5803F24
:101E3C0024D02868B0F5003F20D02868B0F5403F8A
:101E4C001CD02868B0F5802F18D02868B0F5A02FCA
:101E5C0014D02868B0F5C02F10D02868B0F5E02F4A
:101E6C000CD02868B0F5002F08D02868B0F5102FDA
:101E7C0004D0DF21DFF8E80403F0C0FF2879002844
:101E8C0007D02879012804D0E021DFF8D40403F02E
:101E9C00B5FF6879002807D06879012804D0E121C2
:101EAC00DFF8BC0403F0AAFFA868002837D0A868A4
:101EBC00B0F5003F33D0A868B0F5802F2FD0A868BC
:101ECC00B0F5C02F2BD0A868B0F5002F27D0A8688C
:101EDC00B0F5202F23D0A868B0F5402F1FD0A868EC
:101EEC00B0F5602F1BD0A868002818D0A868B0F5F2
:101EFC00003F14D0A868B0F5C02F10D0A868B0F57A
:101F0C00002F0CD0A868B0F5202F08D0A868B0F529
:101F1C00402F04D0E221DFF8480403F06FFFE8689B
:101F2C00002808D0E868B0F5006F04D0E321DFF892
:101F3C00300403F063FF287C012802D3287C11288D
:101F4C0004D3E421DFF8180403F058FF60680F494C
:101F5C00084029682A7951EA022108436060A06888
:101F6C000B490840E968AA6811436A7951EA4201B1
:101F7C000843A060E06A7FF470010840297C491E88
:101F8C000E43F6B250EA0650E06270BDFFFEF0FF61
:101F9C00FDF7F1FF38B504000D00DFF8B8038442FB
:101FAC000DD0DFF8B403844209D0DFF8B0038442CB
:101FBC0005D040F22D11DFF8A80303F01FFFEDB29E
:101FCC00002D08D0EDB2012D05D04FF49771DFF83C
:101FDC00900303F013FFEDB2002D04D0A06850F075
:101FEC000100A06003E0A06801218843A06031BD1E
:101FFC0038B504000D00DFF85C03844209D0DFF82B
:10200C005C03844205D04FF4A371DFF8540303F052
:10201C00F5FEEDB2002D08D0EDB2012D05D040F249
:10202C004711DFF83C0303F0E9FEEDB2002D04D0BC
:10203C00A06850F48070A06004E0A0687FF4807108
:10204C000840A06031BD000010B50400DFF80403A7
:10205C0084420DD0DFF80003844209D0DFF8FC0283
:10206C00844205D040F27D11DFF8F40203F0C6FE85
:10207C00A06850F00800A06010BD000010B504006E
:10208C000020DFF8D0128C420DD0DFF8CC02844255
:10209C0009D0DFF8C802844205D040F28B11DFF87A
:1020AC00C00203F0ABFEA06810F00801481E80418E
:1020BC00C043C00FC0B210BD10B50400DFF89402CD
:1020CC0084420DD0DFF89002844209D0DFF88C02F4
:1020DC00844205D040F2A311DFF8840203F08EFE97
:1020EC00A06850F00400A06010BD000010B5040002
:1020FC000020DFF860128C420DD0DFF85C028442C5
:10210C0009D0DFF85802844205D040F2B111DFF853
:10211C00500203F073FEA06810F00401481E8041C9
:10212C00C043C00FC0B210BD38B504000D00DFF8BD
:10213C00240284420DD0DFF82002844209D0DFF85B
:10214C001C02844205D040F2CB11DFF8140203F0DC
:10215C0055FEEDB2002D08D0EDB2012D05D04FF497
:10216C00E671DFF8FC0103F049FEEDB2002D04D05E
:10217C00A06850F4A000A06004E0A0687FF4A00167
:10218C000840A06031BD0000F8B506000F00140037
:10219C001D0000200021DFF8BC2196420DD0DFF895
:1021AC00B801864209D0DFF8B401864205D040F26E
:1021BC005121DFF8AC0103F021FEFFB2002F38D023
:1021CC00FFB2012F35D0FFB2022F32D0FFB2032F56
:1021DC002FD0FFB2042F2CD0FFB2052F29D0FFB285
:1021EC00062F26D0FFB2072F23D0FFB2082F20D006
:1021FC00FFB2092F1DD0FFB20A2F1AD0FFB20B2F3E
:10220C0017D0FFB20C2F14D0FFB20D2F11D0FFB28C
:10221C000E2F0ED0FFB20F2F0BD0FFB2102F08D005
:10222C00FFB2112F05D040F25221DFF8340103F038
:10223C00E5FDE4B2012C02D3E4B2112C05D340F23B
:10224C005321DFF81C0103F0D9FDEDB2002D1AD09B
:10225C00EDB2012D17D0EDB2022D14D0EDB2032D3D
:10226C0011D0EDB2042D0ED0EDB2052D0BD0EDB288
:10227C00062D08D0EDB2072D05D04FF41571DFF8FF
:10228C00E00003F0BBFDFFB20A2F14D3F068072166
:10229C00B7F10A02032302FB03F29140C943084041
:1022AC00EDB2B7F10A01032201FB02F115FA01F1BB
:1022BC000843F0600DE03069072103227A43914016
:1022CC00C9430840EDB20321794315FA01F10843E3
:1022DC003061E4B2072C12D2706B1F21621E0523F1
:1022EC0002FB03F29140C9430840FFB2611E052274
:1022FC0001FB02F117FA01F10843706329E0E4B223
:10230C000D2C12D2306B1F21E21F052302FB03F2AE
:10231C009140C9430840FFB2E11F052201FB02F1C5
:10232C0017FA01F10843306313E0F06A1F21B4F18E
:10233C000D02052302FB03F29140C9430840FFB292
:10234C00B4F10D01052201FB02F117FA01F108436A
:10235C00F062F1BD0024014000280140003C014026
:10236C008859000870B504000D00002600220020DA
:10237C00002300215FF0000CDFF848E374451CD00B
:10238C00DFF84403844218D0DFF84003844214D0B1
:10239C00DFF83C03844210D0DFF8380384420CD0C1
:1023AC00DFF83403844208D0DFF83003844204D0D1
:1023BC00B121DFF8200403F021FDE878002819D0C2
:1023CC00E878042816D0E878282813D0E87848282C
:1023DC0010D0E87814280DD0E87810280AD0E878C6
:1023EC001C2807D0E878182804D0B221DFF8E403C1
:1023FC0003F004FD2888002804D1B321DFF8D403AE
:10240C0003F0FCFCE87810F00F06E87810F0100FE1
:10241C000FD0A87801280AD0A878022807D0A8786D
:10242C00032804D0BA21DFF8AC0303F0E7FCA8784A
:10243C0006432888000624D02168002006E0EA78AC
:10244C00482A02D1012282402261401C082817D25E
:10245C00012383402A881A409A42F6D183005FF008
:10246C000F0C1CFA03FC7FEA0C02114016FA03F263
:10247C001143EA78282AE2D1012282406261E4E722
:10248C00216028884FF4807188422AD3616800202B
:10249C0024E001220300083312FA03F32A881A40BD
:1024AC009A421AD183005FF00F0C1CFA03FC7FEAEE
:1024BC000C02114016FA03F21143EA78282A04D1CF
:1024CC000122030008339A406261EA78482A04D159
:1024DC000122030008339A402261401C0828D8D3FB
:1024EC00616070BD38B504000D007648844217D089
:1024FC007548844214D07548844211D07448844283
:10250C000ED0744884420BD07348844208D0734870
:10251C00844205D04FF4B471DFF8B80203F06EFCBE
:10252C00ADB2002D05D140F26911DFF8A80203F01D
:10253C0065FCADB2256131BD38B504000D006148B4
:10254C00844217D06048844214D06048844211D031
:10255C005F4884420ED05F4884420BD05E48844270
:10256C0008D05E48844205D04FF4BC71DFF8640299
:10257C0003F044FCADB2002D05D140F27911DFF827
:10258C00540203F03BFCADB2656131BD70B5050082
:10259C000E0014004B48854217D04B48854214D08E
:1025AC004A48854211D04A4885420ED04948854256
:1025BC000BD04948854208D04848854205D04FF495
:1025CC00C671DFF8100203F019FCB6B2012E42D02E
:1025DC00B6B2022E3FD0B6B2042E3CD0B6B2082E04
:1025EC0039D0B6B2102E36D0B6B2202E33D0B6B209
:1025FC00402E30D0B6B2802E2DD04FF48070B6B2B3
:10260C00864228D04FF40070B6B2864223D04FF4E5
:10261C008060B6B286421ED04FF40060B6B28642DD
:10262C0019D04FF48050B6B2864214D04FF40050FB
:10263C00B6B286420FD04FF48040B6B286420AD072
:10264C004FF40040B6B2864205D040F28D11DFF84F
:10265C00840103F0D3FBE4B2002C08D0E4B2012CCB
:10266C0005D04FF4C771DFF86C0103F0C7FBE4B27F
:10267C00002C02D0B6B22E6101E0B6B26E6170BD14
:10268C0038B504000D000F48844217D00E48844220
:10269C0014D00E48844211D00D4884420ED00D48FF
:1026AC0084420BD00C48844208D00C48844205D09C
:1026BC0040F2A311DFF81C0103F0A0FBADB2E56002
:1026CC0031BD000000080140000C01400010014029
:1026DC000014014000180140001C01400020014082
:1026EC0038B504000D000020E4B2002C16D0E4B282
:1026FC00012C13D0E4B2022C10D0E4B2032C0DD078
:10270C00E4B2042C0AD0E4B2052C07D0E4B2062CB7
:10271C0004D04FF411712F4803F070FBEDB2002D73
:10272C0031D0EDB2012D2ED0EDB2022D2BD0EDB269
:10273C00032D28D0EDB2042D25D0EDB2052D22D0DD
:10274C00EDB2062D1FD0EDB2072D1CD0EDB2082D29
:10275C0019D0EDB2092D16D0EDB20A2D13D0EDB271
:10276C000B2D10D0EDB20C2D0DD0EDB20D2D0AD0DD
:10277C00EDB20E2D07D0EDB20F2D04D040F2452155
:10278C00144803F03BFB0F2015F00301C9B289007C
:10279C008840EDB2A9100E4A52F82110C0430840EF
:1027AC00EDB2A9100A4A42F82100EDB2A81008496E
:1027BC0051F82000E4B215F00301C9B2890014FAF3
:1027CC0001F10843EDB2A910014A42F8210031BDD4
:1027DC00080001403858000810B50400DFF8E00389
:1027EC00844230D0DFF8DC0384422CD0DFF8D803ED
:1027FC00844228D0DFF8D403844224D0DFF8D003FD
:10280C00844220D0DFF8CC0384421CD0DFF8C8030C
:10281C00844218D0DFF8C403844214D0DFF8C0031C
:10282C00844210D0DFF8BC0384420CD0DFF8B8032C
:10283C00844208D0DFF8B403844204D07121DFF85D
:10284C00E40303F0DBFA20680121884320600020B8
:10285C002060002060600020A0600020E060DFF8B5
:10286C006003844208D1DFF8C403006850F00F0005
:10287C00DFF8B81308608DE0DFF84803844208D114
:10288C00DFF8A803006850F0F000DFF8A013086030
:10289C0080E0DFF83403844208D1DFF8900300684D
:1028AC0050F47060DFF88413086073E0DFF81C03E9
:1028BC00844208D1DFF87403006850F47040DFF8EC
:1028CC006C13086066E0DFF80803844208D1DFF877
:1028DC005C03006850F47020DFF85013086059E076
:1028EC00DFF8F002844208D1DFF84003006850F4AE
:1028FC007000DFF8381308604CE0DFF8DC0284422B
:10290C0008D1DFF82803006850F07060DFF81C1362
:10291C0008603FE0DFF8C402844208D1DFF8080306
:10292C00006850F00F00DFF80013086032E0DFF8A9
:10293C00B002844208D1DFF8F002006850F0F000D9
:10294C00DFF8E412086025E0DFF89802844208D131
:10295C00DFF8D402006850F47060DFF8CC12086025
:10296C0018E0DFF88402844208D1DFF8BC0200686A
:10297C0050F47040DFF8B01208600BE0DFF86C0226
:10298C00844207D1DFF8A002006850F47020DFF811
:10299C009812086010BD000038B504000D0000202E
:1029AC00DFF81C128C4230D0DFF8180284422CD095
:1029BC00DFF81402844228D0DFF81002844224D0BD
:1029CC00DFF80C02844220D0DFF8080284421CD0CD
:1029DC00DFF80402844218D0DFF80002844214D0DD
:1029EC00DFF8FC01844210D0DFF8F80184420CD0EF
:1029FC00DFF8F401844208D0DFF8F001844204D0FF
:102A0C00CF21DFF8200203F0F9F9A868102807D0CD
:102A1C00A868002804D0D021DFF8080203F0EEF9F2
:102A2C00E868002803D0E868B0F5803F04D3D121D2
:102A3C00DFF8F00103F0E2F92869402807D0286993
:102A4C00002804D0D221DFF8DC0103F0D7F9686943
:102A5C00802807D06869002804D0D321DFF8C4018E
:102A6C0003F0CCF9A86900280CD0A869B0F5807FD8
:102A7C0008D0A869B0F5007F04D0D421DFF8A401F8
:102A8C0003F0BCF9E86900280CD0E869B0F5806F58
:102A9C0008D0E869B0F5006F04D0D521DFF88401C7
:102AAC0003F0ACF9286A202807D0286A002804D043
:102ABC00D621DFF8700103F0A1F9686AB0F5405F28
:102ACC000FD0686AB0F5005F0BD0686AB0F5805F14
:102ADC0007D0686A002804D0D721DFF8480103F03A
:102AEC008DF9A86AB0F5804F07D0A86A002804D0E9
:102AFC00D821DFF8300103F081F920680C49084037
:102B0C00A9682A6A11432A6911436A691143AA699F
:102B1C001143EA6911436A6A1143AA6A11430843D3
:102B2C002060E86860602868A0606868E06031BD7B
:102B3C000F80FFFF38B504000D002148844226D0D9
:102B4C002048844223D02048844220D01F4884420D
:102B5C001DD01F4884421AD01E48844217D01E48EC
:102B6C00844214D01D48844211D01D4884420ED09A
:102B7C001C4884420BD01C48844208D01B48844219
:102B8C0005D040F22911DFF89C0003F037F9EDB2C3
:102B9C00002D08D0EDB2012D05D04FF49571DFF862
:102BAC00840003F02BF9EDB2002D04D0206850F016
:102BBC000100206003E0206801218843206031BDC2
:102BCC00080002401C000240300002404400024059
:102BDC00580002406C000240800002400804024091
:102BEC001C040240300402404404024058040240D9
:102BFC0010B5040014F0704F02D00948204201D1E6
:102C0C00002C04D14FF4FD71064803F0F7F814F0D2
:102C1C00805F02D00448046001E00448046010BDE9
:102C2C000000F0EFD85900080404024004000240F0
:102C3C0010B50400002C0BD0B4F5803F08D0B4F5CF
:102C4C00802F05D040F21111DFF8440303F0D6F8C1
:102C5C00DFF8300300687FF480310840DFF824137C
:102C6C000860DFF8200300687FF480210840DFF85B
:102C7C00141308605FF48030241A04D05FF44030E1
:102C8C00241A09D010E0DFF8FC02006850F4803000
:102C9C00DFF8F012086007E0DFF8E802006850F493
:102CAC00A020DFF8E012086010BD000080B5002005
:102CBC00009000200021312000F01EF90100009846
:102CCC00401C00900098B0F5A06F02D0C9B200294A
:102CDC00F1D0312000F010F9401E8041C043C00FEC
:102CEC00C0B202BD10B50400E4B2002C08D0E4B2AE
:102CFC00012C05D04FF4CA71DFF8940203F07EF872
:102D0C000148E4B2046010BD6000424210B50400FA
:102D1C000020002C09D0012C07D0022C05D04FF438
:102D2C000D71DFF86C0203F069F8DFF8140100682C
:102D3C00032188432043DFF80811086010BD000010
:102D4C00DFF8FC00006810F00C00704710B5002292
:102D5C00002100235FF0000CDFF8E4E0DEF800E077
:102D6C001EF00C0E7246002A04D0042A05D0082A44
:102D7C0006D025E02C49016024E02C49016021E0BB
:102D8C002F49096811F470112D4A126812F480331E
:102D9C00890C891C002B04D1254A01FB02F101602E
:102DAC0010E0274A126812F4003F04D0214A01FBBC
:102DBC0002F1016006E01D4A01FB02F1016001E035
:102DCC00194901601E49096811F0F00212091A49EB
:102DDC0012F801C0016831FA0CF141601849096818
:102DEC0011F4E062120A144912F801C0416831FA78
:102DFC000CF181601249096811F46052D20A0E4933
:102E0C0012F801C0416831FA0CF1C1600C49096833
:102E1C0011F44042920B094912F801C0C168B1FB90
:102E2C00FCF1016110BD00BF00127A00001BB7005D
:102E3C0000093D00808D5B00780A0020A80A002064
:102E4C000410024038B504000D001348204201D193
:102E5C00002C05D140F21A41DFF8340102F0CEFF0C
:102E6C00EDB2002D08D0EDB2012D05D040F21B4182
:102E7C00DFF81C0102F0C2FFEDB2002D05D00748AF
:102E8C00006820430549086005E004480068E143F8
:102E9C0008400249086031BDA8FAFFFF1410024037
:102EAC0038B504000D001348204201D1002C04D188
:102EBC0040F23741364802F0A1FFEDB2002D07D0A9
:102ECC00EDB2012D04D04FF48761314802F096FF2A
:102EDC00EDB2002D05D00648006820430449086077
:102EEC0005E003480068E14308400149086031BD32
:102EFC00181002400200FFFF10B504000021002250
:102F0C000020E4B2212C22D0E4B2312C1FD0E4B248
:102F1C00392C1CD0E4B2412C19D0E4B2612C16D05F
:102F2C00E4B27A2C13D0E4B27B2C10D0E4B27C2C1B
:102F3C000DD0E4B27D2C0AD0E4B27E2C07D0E4B2E2
:102F4C007F2C04D040F21D51114802F057FFE4B21F
:102F5C006109C9B2012902D10A48026806E00229B6
:102F6C0002D10948026801E008480268E4B214F092
:102F7C001F01012088401040401E8041C043C00FFB
:102F8C00C0B210BD001002402010024024100240BC
:102F9C00785A000870B586B004000D00002000219E
:102FAC00002200230026DFF860C2644514D0DFF84D
:102FBC005C02844210D0DFF8580284420CD0DFF857
:102FCC005402844208D0DFF85002844204D0AD2170
:102FDC00DFF8480202F012FF2868002803D02868A6
:102FEC005949884204D3AE21DFF8300202F006FFC3
:102FFC00A888002809D0A8884FF48051884204D0B2
:10300C00AF21DFF8180202F0F9FEE888002813D08F
:10301C00E8884FF4805188420ED0E8884FF4005174
:10302C00884209D0E8884FF44051884204D0B0213E
:10303C00DFF8E80102F0E2FE288900280ED028898A
:10304C004FF48061884209D028894FF4C0618842CE
:10305C0004D0B121DFF8C40102F0D0FE68894FF62C
:10306C00F371084202D16889002804D1B221DFF83B
:10307C00AC0102F0C3FEA889002813D0A8894FF434
:10308C00807188420ED0A8894FF40071884209D013
:10309C00A8894FF44071884204D0B321DFF87C0139
:1030AC0002F0ACFEA889002810D0DFF85C01844245
:1030BC000CD0DFF85801844208D0DFF85401844268
:1030CC0004D0B721DFF8540102F098FE2600208AC4
:1030DC004CF6FF710840E98808432082A0894EF61F
:1030EC00F3110840A9882A8911436A8911430843BE
:1030FC00A081A08A4FF6FF410840A9890843A0820D
:10310C0000A8FFF723FEDFF80001864201D10399E6
:10311C0000E002991920484329688900B0FBF1F2BC
:10312C006420B2FBF0F000010109642301FB1323BE
:10313C00190132316422B1FBF2F111F00F01084395
:10314C00208106B070BD00BF21AA440038B5040030
:10315C000D00DFF8B400844215D0DFF8B0008442D3
:10316C0011D0DFF8AC0084420DD0DFF8A800844207
:10317C0009D0DFF8A400844205D04FF4A171DFF828
:10318C009C0002F03BFEEDB2002D08D0EDB2012DFB
:10319C0005D040F24311DFF8840002F02FFEEDB2AF
:1031AC00002D04D0A08950F40050A08104E0A08927
:1031BC004DF6FF710840A08131BD000038B5040008
:1031CC000D001148844210D0104884420DD0104894
:1031DC0084420AD00F48844207D00F48844204D05E
:1031EC0040F232210D4802F009FE4FF40070ADB2EE
:1031FC00854204D340F23321084802F0FFFDE80574
:10320C00C00DA08031BD00000038014000440040DA
:10321C0000480040004C0040005000408C58000812
:10322C0038B504000D0000202C498C4210D02C48DD
:10323C0084420DD02B4884420AD02B48844207D0BC
:10324C002A48844204D040F21331294802F0D6FDBA
:10325C00ADB2012D23D0ADB2802D20D0ADB2402D1A
:10326C001DD0ADB2202D1AD0ADB2102D17D04FF409
:10327C008070ADB2854212D04FF40070ADB2854271
:10328C000DD0ADB2082D0AD0ADB2042D07D0ADB221
:10329C00022D04D04FF44571154802F0AFFD4FF4E8
:1032AC000070ADB285420DD10C4884420AD00C4856
:1032BC00844207D00B48844204D04FF446710C482A
:1032CC0002F09CFD208815EA0001080080B2401E27
:1032DC008041C043C00FC0B232BD00BF00380140B6
:1032EC000044004000480040004C004000500040AA
:1032FC008C58000800B585B05FF4E13000900020D8
:10330C00ADF804000020ADF806000020ADF8080070
:10331C000020ADF80C000C20ADF80A0000A9DFF875
:10332C002803FFF737FE0121DFF81C03FFF70EFF20
:10333C0005B000BD80B501F00DFB01210420FFF7A5
:10334C00AFFD01210820FFF7ABFD01211020FFF795
:10335C00A7FD01212020FFF7A3FD01214FF48040A0
:10336C00FFF79EFD01210120FFF79AFD01210120AD
:10337C00FFF768FD01214FF40070FFF791FD01BDCF
:10338C0080B500215FF0006001F0A2FC4FF4E0601A
:10339C0001F030FC06208DF8000000208DF80100B3
:1033AC0000208DF8020001208DF8030000A801F028
:1033BC003DFC07208DF8000000208DF80100012055
:1033CC008DF8020001208DF8030000A801F02EFCFE
:1033DC0001BD000080B516480321016001210120C8
:1033EC0002F070F901BD000010B5104C5FF4803094
:1033FC00FFF71EFCFFF75AFC0120FFF773FC392086
:10340C00FFF77AFD0028FAD00220FFF77FFCFFF7C8
:10341C0097FC0828FBD1A07A002803D0044805218A
:10342C00016002E002480121016010BD2408002067
:10343C009008002080B5C0B2002805D04FF48071F0
:10344C002C48FFF779F804E04FF480712948FFF716
:10345C0049F801BD80B54FF40070ADF800000320B1
:10346C008DF8020018208DF8030000A92148FEF702
:10347C0079FF4FF48060ADF8000004208DF8030054
:10348C0000A91C48FEF76EFF0320ADF800000420D5
:10349C008DF8030000A91748FEF764FF4FF448703D
:1034AC00ADF8000003208DF8020010208DF8030009
:1034BC0000A90E48FEF756FF4FF48070ADF80000DF
:1034CC0003208DF8020014208DF8030000A9094890
:1034DC00FEF748FF1020ADF8000000208DF8030027
:1034EC0000A90348FEF73EFF01BD00BF000C0140E0
:1034FC00001001400008014000B583B000210020FD
:10350C00FFF7EEF80120009000208DF804000C204D
:10351C008DF8050001208DF8060000A800F0A8FF2A
:10352C0001210020FFF7DCF80220009000208DF82C
:10353C0004000C208DF8050001208DF8060000A871
:10354C0000F096FF5FF4802001F05EF85FF48020BD
:10355C00009008208DF8050001208DF8060000A8C9
:10356C0000F086FF07BD0000164802681648006888
:10357C0016490968002A24D0154B9A70130ADFF8F3
:10358C0050C08CF80430130CDFF844C08CF80630B3
:10359C00120E0F4B1A720E4A9072020A0C4B1A73CF
:1035AC00020C0B4B9A73000E094A10740848817474
:1035BC00080A074A1075080C054A9075080E04494C
:1035CC0008767047E8F7FF1FECF7FF1FF0F7FF1FB7
:1035DC00240A002001B481B009480199016008480F
:1035EC0000680028FBD102B0704700000448006856
:1035FC00002804D002480068401E0149086070474A
:10360C007808002010B504000A2C0ED10D210E48AC
:10361C00FFF7D4FD80210C48FFF702FE0028F9D0FB
:10362C000A210948FFF7CAFD05E02100C9B289B299
:10363C000548FFF7C3FD80210348FFF7F1FD002883
:10364C00F9D0200010BD00000038014010B5002456
:10365C0042E0DFF8E4020078DFF8D81251F820409D
:10366C00A4B2200010F4004F1AD0DFF8CC0200787E
:10367C00DFF8C01251F8200040F68F710840DFF8D7
:10368C00B8120978DFF8AC2242F82100DFF8A80262
:10369C000078DFF8941211EB800050F8040C80478E
:1036AC0014F0800F18D0DFF890020078DFF8841245
:1036BC0051F8200080B248F60F710840DFF87812FC
:1036CC0009789C4A42F821009B4800789B4911EBF1
:1036DC00800050F8040C8047944800689449088096
:1036EC0010F4004F00F01B81904847F6FF71016009
:1036FC008F48008810F00F008F4908708E480078B2
:10370C000028A6D18B48006810F4405084490880EA
:10371C008848006810F030008249088085480068AD
:10372C004BF68F71084090F40050824980B20860CB
:10373C008048006848F6BF71084090F020007D4931
:10374C0080B208607A48008810F0100F36D17948A2
:10375C00006880B248F60F71084076490860FEF7A1
:10376C0097FA744800684BF68F7108406C490988C9
:10377C0011F4805F01D090F480506949098811F4EC
:10378C00005F01D090F400506A4980B2086069482B
:10379C00006848F6BF7108406249098811F0100FA3
:1037AC0001D090F010005F49098811F0200F01D072
:1037BC0090F020005F4980B20860B0E05D4804687A
:1037CC00A4B2200010F0800F36D05A48006880B2A6
:1037DC0048F60F71084057490860FEF759FA5548EA
:1037EC0000684BF68F7108404D49098811F4805FD1
:1037FC0001D090F480504A49098811F4005F01D03F
:10380C0090F400504B4980B208604A48006848F672
:10381C00BF7108404349098811F0100F01D090F096
:10382C0010004049098811F0200F01D090F02000C1
:10383C00404980B2086072E0200010F4006F35D06F
:10384C003C48006840F68F7108403A490860FEF722
:10385C00D7F9384800684BF68F7108403049098811
:10386C0011F4805F01D090F480502D49098811F437
:10387C00005F01D090F400502E4980B208602D48B2
:10388C00006848F6BF7108402649098811F0100FEE
:10389C0001D090F010002349098811F0200F01D0BD
:1038AC0090F02000234980B2086038E014F4004FF7
:1038BC003FF412AF1F48006840F68F7108401D4955
:1038CC000860FEF71DFA1B4800684BF68F71084024
:1038DC001349098811F4805F01D090F4805010498D
:1038EC00098811F4005F01D090F40050114980B2A6
:1038FC0008601048006848F6BF71084009490988FB
:10390C0011F0100F01D090F010000649098811F049
:10391C00200F01D090F02000064980B2086010BD45
:10392C00B8080020BA0800205C0A0020445C004063
:10393C00BC080020005C0040C2080020400A0020A7
:10394C004FF4001C1CEB410F38BF1CEB430F17D37B
:10395C001CEB410F09D31CEB430F28BF6FF0000188
:10396C001B4248BF81F0004170471CEB430F18BF4E
:10397C006FF0000102BF594001F000410020704778
:10398C00BCEB410F98BFBCEB430F39D950EA410C4B
:10399C0018BF52EA430C13D150EA410C81EA0301DF
:1039AC0001F000414FF000001EBF41F0E04141F03A
:1039BC007F61704752EA430C08BF6FF000017047FB
:1039CC00F0B475464FF40014B4EB410F11D9B4EBBD
:1039DC00430F07D902F016F902F006F9E41B76083A
:1039EC00AE4614E002F000F95F00A4EB5754AE466B
:1039FC000DE002F007F94C00C7EB5454AE4606E05C
:103A0C00F0B44C007641640D5F00A4EB575446F1C2
:103A1C00000C04F580646FF0404606EA812545EA07
:103A2C009055800206EA832343EA925302219202C4
:103A3C0027D0861A9D4143F0804304D2641E760041
:103A4C006D41B6185D4176006D41964275EB0307EA
:103A5C0024BFB61A3D464941F5D34FF400607600B9
:103A6C006D41964275EB030724BFB61A3D464041A3
:103A7C00F5D376006D41B61A75EB030708BF3642D5
:103A8C0049E0ED1A43F0804303D2641E400043EB3F
:103A9C0045055B4200421AD041F48061001853EB9B
:103AAC00450538BFED1A4941001853EB450538BFA1
:103ABC00ED1A4941001853EB450538BFED1A494141
:103ACC00001853EB450538BFED1A4941ECD313EB05
:103ADC00450538BFED1A494113EB450538BFED1AC2
:103AEC00494113EB450538BFED1A4941F4D34FF466
:103AFC00006013EB450538BFED1A404113EB45054B
:103B0C0038BFED1A404113EB450538BFED1A404163
:103B1C00EFD313EB45052CBF4FF00045002518BF24
:103B2C0045F0804540EA4150C90A641E2FDC41F43F
:103B3C008011D4F10104202C10DAC4F120072D429D
:103B4C0025FA04F518BF45F0010500FA07F63543D0
:103B5C00E04001FA07F63043E14026E0342C12DC59
:103B6C00203C2D4208BF5FEA4007C4F1200720FA31
:103B7C0004F518BF45F0010501FA07F6354331FA93
:103B8C0004F0002111E000205FEACC711AE021F46E
:103B9C00801111EB04515CBF11F5801F05E0002072
:103BAC004FF07F6141F0E0410AE06D0008BF10F07A
:103BBC00010F98BF5FEA350550F1000041F100019B
:103BCC0041EACC71F0BC70474FF6F8710840DFF851
:103BDC004012086070470000C0B2DFF83C2252F877
:103BEC00202048F68F131A40114389B2C0B2DFF877
:103BFC00282242F820107047C0B2DFF81C2252F87D
:103C0C00202048F6BF731A400B0013F0100F01D0A0
:103C1C0092F0100211F0200F01D092F02002C0B2ED
:103C2C00DFF8F41192B241F820207047C0B2DFF8EF
:103C3C00E82152F820204BF68F731A4011F4805F64
:103C4C0001D092F4805211F4005F01D092F4005232
:103C5C00C0B2DFF8C41192B241F8202070470000C6
:103C6C00C0B2DFF8B41151F8201048F6BF72114001
:103C7C0091F0100191F02001C0B2DFF89C2189B2C3
:103C8C0042F8201070470000C0B2DFF88C1151F8D8
:103C9C0020104BF68F72114091F4805191F4005129
:103CAC00C0B2DFF8742189B242F8201070470000CE
:103CBC00C0B2DFF8641151F8201048F68F62114041
:103CCC00C0B2DFF8542142F820107047C0B2DFF8C0
:103CDC00481151F8201011F4804F0FD0C0B2DFF80A
:103CEC00381151F8201089B248F68F72114051F4F6
:103CFC008041C0B2DFF8202142F82010704700004C
:103D0C00C0B2DFF8141151F8201011F0400F0FD091
:103D1C00C0B2DFF8041151F8201089B248F68F7246
:103D2C00114051F04001C0B2DFF8EC2042F82010F5
:103D3C0070470000DFF8D820126892B2C0B212EBC4
:103D4C00C000304A89B2490889B2490042F81010C3
:103D5C0070470000DFF8B820126892B2C0B212EBC4
:103D6C00C000294A89B2490889B2490042F81010AA
:103D7C0070470000DFF89810096889B2C0B211EBE7
:103D8C00C000204951F8100080B27047DFF8801055
:103D9C00096889B2C0B211EBC0001B4951F8100080
:103DAC0080B27047DFF86820126892B2C0B212EB92
:103DBC00C000DFF8602089B242F810107047000094
:103DCC00134A126892B2C0B212EBC0000F4A12EB47
:103DDC00400089B23F290BD389B24A0911F01F0F59
:103DEC0000D1521E92B2910251F40041016008E0E0
:103DFC0089B24A0811F0010F00D0521C92B2910204
:103E0C000160704700600040086000400C6000409A
:103E1C00505C004004600040005C0040010080B237
:103E2C00C9B289B2090251EA102080B27047000071
:103E3C0080B5FFF799FB8F4800680021817200F074
:103E4C003BFE07480021016006484FF43F410180CA
:103E5C00054804490988016031480021016001BD11
:103E6C00445C0040B6080020405C004080B58148AE
:103E7C000068002181727F4800680021C1727D4872
:103E8C0000682549C97941720020FFF79DFE4FF467
:103E9C0000710020FFF7A0FE10210020FFF7ACFE00
:103EAC0018210020FFF756FF58210020FFF742FF92
:103EBC000020FFF7FDFE194890F82C1089B2002065
:103ECC00FFF77EFF0020FFF7DFFE4FF4C0610120FB
:103EDC00FFF782FE4FF480710120FFF72BFF4FF4A8
:103EEC0082710120FFF736FF02210120FFF75AFFF4
:103EFC0002210120FFF764FF4FF440510120FFF72E
:103F0C0095FE20210120FFF777FE05480121016075
:103F1C000020FDF743FF01BD505D0008D4090020CF
:103F2C0090080020704700007047000080B5002109
:103F3C00C0B2062819D14F4A1268127812F07F02CB
:103F4C00012A12D14B4A12685279002A0DD14948E4
:103F5C0000688078222801D1114911E04548006899
:103F6C00807821280CD10F490AE0424A1268127855
:103F7C0012F07F02212A03D1C0B2032800D10A49D2
:103F8C000800002801D1022009E03A48006881614C
:103F9C00384800680022428200208847002002BD79
:103FAC0021400008314000086940000880B53149C3
:103FBC000968097811F07F01212905D1C0B20B28BD
:103FCC0002D100F043F800E0022002BD80B50249A6
:103FDC0080B2FDF743FB02BD880A002080B5024980
:103FEC0080B2FDF73BFB02BD900A002080B5214951
:103FFC000968C978C9B2052901D3002006E0C9B205
:10400C00034A12EBC10180B2FDF728FB02BD00BFD1
:10401C00040A002080B5024980B2FDF71FFB02BDE7
:10402C00980A002080B5024980B2FDF717FB02BD4B
:10403C00A00A0020C9B2012901D3022005E0C0B2B8
:10404C00012801D3022000E00020704709480068D5
:10405C00C0780949C0B208600020704780B20028BF
:10406C0005D10448006801210182002000E00248CB
:10407C0070470000800800208C080020704700006A
:10408C00FEE70000FEE70000FEE70000FEE7000090
:10409C0070470000704700007047000080B5FFF7C4
:1040AC00A5FA01BD70470000704700007047000082
:1040BC0070470000704700007047000080B5012079
:1040CC0000F052FA00282AD0154801F0C7FE3148FA
:1040DC000078012820D14948052101701148007849
:1040EC00002806D00F48002101704448012141707E
:1040FC0005E00C480121017040480021417002226A
:10410C004FF480713D4801F0E5FB02210120FFF7DF
:10411C0049FE0120FFF7A4FD012000F075FA01BD56
:10412C00185F0008BF08002080B5022000F01CFAC0
:10413C0000282AD0154801F091FE16480078012875
:10414C0020D12E480621017011480078002806D095
:10415C000F480021017029480121417005E00C48ED
:10416C000121017025480021417002224FF4807119
:10417C00224801F0AFFB02210120FFF713FE0120C2
:10418C00FFF76EFD022000F03FFA01BDA85E0008AB
:10419C00C0080020BE0800207047000070470000D7
:1041AC007047000080B51548072101701148006860
:1041BC00000911490968B0EB1110052815D30D48F9
:1041CC00006800090D49487002224FF480710B48B9
:1041DC0001F080FB02210120FFF7E4FD0120FFF735
:1041EC003FFD05480349096801600220FEF700FD08
:1041FC0001BD00BF7008002074080020B208002028
:10420C0070470000704700007047000070470000C6
:10421C0070470000704700007047000070470000B6
:10422C0080B500F007FE01BD70470000704700002C
:10423C007047000070470000704700007047000096
:10424C007047000070470000704700007047000086
:10425C007047000070470000704700007047000076
:10426C007047000070470000704700007047000066
:10427C0070470000704700007047000080B55FF485
:10428C00802000F0C1F901BD40B2002809D540B230
:10429C0010F00F00064A8018C9B2090100F8041C7E
:1042AC0004E040B2034AC9B209018154704700BF0F
:1042BC0018ED00E000E400E080B5B0F1807F01D3A0
:1042CC00012010E00002000A401E074908600F217F
:1042DC005FF0FF30FFF7D8FF04480021016004486D
:1042EC0007210160002002BD14E000E018E000E0AE
:1042FC0010E000E000B58BB01248FEF76DFA1248E2
:10430C0000905A4801900020029001200390002058
:10431C000490002005904FF4807006904FF480605C
:10432C000790202008904FF40050099000200A902C
:10433C0000A90448FEF730FB01210248FEF7FAFB06
:10434C000BB000BD080002404C24014000B585B004
:10435C000020009000208DF8040001208DF805004D
:10436C005FF4602002900020039001208DF8100073
:10437C0000A91348FDF740FD052301220E2110482A
:10438C00FDF702FF01210E48FDF732FE01210C481A
:10439C00FDF700FE0A48FDF757FE0948FDF76EFED3
:1043AC000028FAD10648FDF787FE0548FDF79EFE6A
:1043BC000028FAD101210248FDF7B6FE05B000BD78
:1043CC000024014080B5FEF7B5FF2748FEF7BEFC80
:1043DC00FEF7D6FFFFF73EF8FFF78EF8FEF78AFFE1
:1043EC00214800684FF47A71B0FBF1F0FFF764FFDD
:1043FC00002800D0FEE70020FFF71CF84FF4FA70FD
:10440C00FFF7E8F8144801F029FDFFF773FFFFF7F9
:10441C009DFF00204FF47A70FFF7DCF813480088FA
:10442C0001F0A6FC01F080FA5FF066320B4B00F055
:10443C00FFF800220A4BFFF783FA00F071FF01F03E
:10444C0073FA03B40948028808480188054801F04A
:10445C0005FD02B0DEE700BF905F000866660A400B
:10446C0000FEAF40245D000840080020B00800208A
:10447C0010B5040000202179002906D020790428E9
:10448C0003D06921684801F0B9FC6079082809D08B
:10449C0060790C2806D06079102803D06A21624814
:1044AC0001F0ACFC2068000D0005002802D120684A
:1044BC00002803D16B215C4801F0A0FCA0790028F6
:1044CC0006D0A079012803D06C21574801F096FC46
:1044DC004C48A179002939D04A4909682268D2434D
:1044EC001140484A11601D4909682268D2431140A5
:1044FC001A4A116021790818016822681143016079
:10450C00174800682168C9430840154908601548D8
:10451C0000682168C9430840124908606079102876
:10452C000CD10F480068216808430D4908600D48FC
:10453C000068216808430B4908600EE03148617936
:10454C000818016822681143016006E021790818F7
:10455C0001682268D2431140016010BD040401407F
:10456C00080401400C04014010B504000020002197
:10457C00012C35D0022C33D0042C31D0082C2FD068
:10458C00102C2DD0202C2BD0402C29D0802C27D097
:10459C00B4F5807F24D0B4F5007F21D0B4F5806FC2
:1045AC001ED0B4F5006F1BD0B4F5805F18D0B4F5F5
:1045BC00005F15D0B4F5804F12D0B4F5004F0FD07A
:1045CC00B4F5803F0CD0B4F5003F09D0B4F5802F82
:1045DC0006D0B4F5002F03D0E421134801F00EFCF3
:1045EC000848006814EA000110480068044205D02D
:1045FC000800401E8041C043C00F00E00020C0B244
:10460C0010BD00000004014010B50400200D000591
:10461C00002801D1002C03D1FB21034801F0EEFB53
:10462C000248046010BD0000E45700081404014067
:10463C00B0B581EA030C0CF0004C40F2FF7515EAA2
:10464C0011541DBF15EA1357AC42AF423AE0E419BE
:10465C0023EA455343F48013C90241F0004141EA77
:10466C0050574FEAC02E1100AEFB020200284FF04B
:10467C000000E7FB01204FF00001E3FB0E2118BF07
:10468C0042F00102401800214941E3FB0701A4F567
:10469C0080640F0302D252004041494154F101049D
:1046AC006BDD470872F1004250F1000051EB0451F0
:1046BC00A1F580115CBF41EA0C01B0BD4CEA05517B
:1046CC000020B0BD05EA1357AC4214BFAF4240E026
:1046DC0050EA410E1CBF52EA430E02E06146002034
:1046EC00B0BD24423C441AD13F42F7D0090302BF6B
:1046FC0001460020143FB1FA81FEA7EB0E0401FA2B
:10470C000EF70EF10C0ECEF1200100FA0EFEC84091
:10471C0047EA000723EA455343F48013A3E733F039
:10472C000043B3FA83F704BFB2FA82FE77440B3F1F
:10473C00E41BB7F1200E2FBF02FA0EF3BB40C7F1FA
:10474C00200E22FA0EFE38BF43EA0E03BA40641C58
:10475C0082E750EA410E14BF52EA430E6FF000019B
:10476C004FF4001717EB430F8ABF194617EB410F95
:10477C00B6E74CEA05510020B0BDD4F10104B4F108
:10478C0020070FDAC4F12007520828BF42F00102BB
:10479C0010FA07F501FA07F7E1BF2A43E040384366
:1047AC00E1400FE0352C99DCC7F1200452EA4002BD
:1047BC0020FA07F218BF42F0010231FA07F0A140CB
:1047CC000A43002172F1004250F1000051EB0C0140
:1047DC00B0BD0000F0B44FF0004591EA030F44BFA8
:1047EC006B4000F0ACBB8B4208BF824205D98446BB
:1047FC00100062464C19591923004FF4001C1CEB95
:10480C00410F06D308BF1CEB430F28BF6FF000010C
:10481C0062E0BCEB430F14D9AB4352EA43060BD016
:10482C004FEA4C0CBCEB410F04D80C0D661E342E19
:10483C0057DD51E0801A994150EA410608BF00212A
:10484C004AE00C0DA4EB1356362E45DC012E45DC4C
:10485C004FEA045445EAC32343EA525312BFD2022F
:10486C0092025B0845EAC12141EA5051D2EBC020CB
:10487C00994125D404BF01460020B1FA81F601FA12
:10488C0006F1C6F1200220FA02F241EA020100FA16
:10489C0006F002BF203609421EE04FEAF474B4EB76
:1048AC00465434F001064FEA740409D8D6F50016C4
:1048BC00760D2C40F04071FA06F25040F140484021
:1048CC00C00A40EA415021EA050128BF5FEA5005C1
:1048DC0050F1000044EBD121F0BC704745EAC323F2
:1048EC00DB0A45EAC121C90A202E0DDD203E63FA00
:1048FC0006F5F3405D40124218BF45F001056D42CC
:10490C00984161F100010DE062FA06F5F24085EA8A
:10491C00020563FA06FC82EA0C02F3405A406D422F
:10492C009041994111F4801F05D1641E620502D09B
:10493C006D004041494121F480116D0008BF10F019
:10494C00010F98BF5FEA350550F1000041EB0451AF
:10495C00F0BC704780B55648006850F001005449CF
:10496C000860544800680F49084052490860504894
:10497C0000680D4908404E4908604D4800687FF4B6
:10498C00802108404A4908604A4800687FF4FE01CB
:10499C0008404849086005485FF41F01016000F0B9
:1049AC0007F801BD0000FFF8FFFFF6FE08100240FB
:1049BC0080B500F001F801BD82B00020019000200C
:1049CC0000903B48006850F4803039490860384802
:1049DC00006810F4003000900198401C0190009881
:1049EC00002803D10198B0F5A06FF0D130480068D1
:1049FC0010F40030401E8041C043C00F009000985E
:104A0C00012851D12948006850F01000274908604E
:104A1C00264800680321884324490860234800681D
:104A2C0050F00200214908602248224909680160BF
:104A3C0020482049096801601E48006850F48060D5
:104A4C001C4908601B48006850F400401949086074
:104A5C00184800687FF47C11084016490860154816
:104A6C00006850F48810134908601148006850F031
:104A7C0080700F4908600E48006810F0007FFAD073
:104A8C000C480068032188430A49086009480068FB
:104A9C0050F00200074908600648006810F00C004E
:104AAC000828F9D102B07047FEE700BF0020024091
:104ABC00001002400410024001204D4980B20860F1
:104ACC000948002101804A480749098801600748C4
:104ADC000021016004484FF4E05101804448024930
:104AEC000988016000207047B6080020445C004033
:104AFC0080B53F48006850F008003D4980B208601E
:104B0C003B48006850F00400394980B20860FEF759
:104B1C0061FC01BD80B5364800684FF6FB7108405A
:104B2C00334980B20860FEF75FFC31484FF43F41D7
:104B3C00016001BD80B5C0B2072801D02B490870B7
:104B4C002A48007800280AD001280ED0022812D05A
:104B5C00032817D0042822D005282ED042E0FFF7D6
:104B6C00D9FF2248062101703FE0FFF7D3FF1F4811
:104B7C000421017039E01D48022141701B480321BA
:104B8C00017032E019484078401E184948701748A7
:104B9C004078002829D115480421017025E01448DB
:104BAC00006850F01000124980B208600F480521CF
:104BBC0001700E480A21417017E00C484078401EE5
:104BCC000A4948700948407800280ED10848006806
:104BDC004FF6EF710840064980B208600348062181
:104BEC00017002E001480621017001BD940800200B
:104BFC00405C004010B50400B4F5E06F0FD0B4F584
:104C0C00C06F0CD0B4F5A06F09D0B4F5806F06D08E
:104C1C00B4F5407F03D062213D4801F0EFF8024823
:104C2C0020432A49086010BD0000FA0538B504007D
:104C3C00002000210F25E278002A06D0E078012818
:104C4C0003D07421324801F0D9F86078102803D3CE
:104C5C0075212F4801F0D2F8A078102803D37621C3
:104C6C002B4801F0CBF8E07800281DD017480068DD
:104C7C0010F4E060D0F5E060000AD0F10401C5400A
:104C8C0060788840A17829400843000121780C4ABB
:104C9C008854207840110B490122237813F01F030C
:104CAC009A4041F8202009E0207840110649012261
:104CBC00237813F01F039A4041F8202031BD00BF28
:104CCC0000E400E000E100E080E100E00CED00E039
:104CDC0038B504000D00B4F1005F06D0B4F1006FDC
:104CEC0003D09D210A4801F089F80648854203D378
:104CFC009E21074801F082F80348284020430349CD
:104D0C00086031BDFFFF070080FFFF1F08ED00E0CA
:104D1C00645B000870B505000C00E88847F6F0717C
:104D2C000840001140F2FF76B0420DD1E88810F037
:104D3C000F0F05D1A88818B9688808B9288808B158
:104D4C00022070BD012070BD30B9280000F062F95E
:104D5C00012801DB002070BD0419B4420BDBE8888C
:104D6C0010F4004F02D00020304901E000203049FF
:104D7C00C5E90001E6E7012CE88809DB48F20F01E0
:104D8C000840A4B240EA0410E8804FF0FF3070BD38
:104D9C0000F40040E98801F00F0141F01001E980B6
:104DAC00641E6FF033018C4205DAE8800020A88085
:104DBC006880288070BD24B26FF00E018C420BDA33
:104DCC006A882A80AA886A80EA88AA800022EA80F7
:104DDC00103424B28C42F3DB614209B20A001FD0BA
:104DEC00C2F110022B880B41B5F802C00CFA02FC80
:104DFC004CEA03032B806B880B41B5F804C00CFA0A
:104E0C0002FC4CEA03036B80AB880B41B5F806C07F
:104E1C000CFA02F21A43AA80EA8822FA01F1E9801C
:104E2C00E9880843E8804FF0FF3070BD0000F0FFC8
:104E3C000000F07F80B53748374909680180354854
:104E4C00008836490988084010F4806F06D0324833
:104E5C004FF6FF3101603248406880472D4800888A
:104E6C002E490988084010F4005F03D02A484DF6FB
:104E7C00FF7101602748008828490988084010F410
:104E8C00805F06D024484EF6FF7101600020FFF7CA
:104E9C0051FE2048008821490988084010F4006F11
:104EAC000DD020480078002802D0FFF721FE02E048
:104EBC000220FFF73FFE18484FF2FF7101601548C2
:104ECC00008816490988084010F4007F08D0124861
:104EDC004FF6FF51016014480078401C12490870CD
:104EEC000C4800880D490988084010F4807F06D0D2
:104EFC0009484FF6FF6101600720FFF71BFE0548CC
:104F0C00008806490988084010F4004F01D0FEF7CC
:104F1C009DFB01BDBC080020445C0040B60800208D
:104F2C00D4090020B40A0020C3080020F0B44FF0CC
:104F3C00004591EA030C44BF6B40FFF754BC8B4215
:104F4C0008BF824205D98446100062468C4619007F
:104F5C0063464FF4001C1CEB410F01D3F0BC7047AF
:104F6C00BCEB430F0FD952EA430648D0BCEB410FC0
:104F7C0005D80C0DAB43661E342E0CDD3FE0AB4365
:104F8C00801859413BE00C0DA4EB1356352E36DC42
:104F9C0045EAC323DB0A45EAC121C912202E11DBE5
:104FAC00203E18BF5FEA020263FA06F523FA06F305
:104FBC0085EA030518BF45F00105C01851F1000141
:104FCC000CD213E072FA06F5F2405540F3415A4008
:104FDC00B340F3405A408018594107D349085FEA5F
:104FEC0030005FEA350528BF45F0010501F5801159
:104FFC00420875F1004250F1000041EB0451F0BC45
:10500C004FF4001C1CEB410F38BF70470020090DFA
:10501C000905704710B50100C88800F40042012052
:10502C00CB8803F00F03CB80C3B98B8823B94B8893
:10503C0013B90B88002B57D08B88CB80B1F802C0EA
:10504C00A1F804C0B1F800C0A1F802C04FF0000CE8
:10505C00A1F800C0103800B2002BEDD0CB88102B7B
:10506C001ED28B88B1F806C04FEAD33E4EEA4C0CE8
:10507C00A1F806C0B1F802E04FEADE3444EA43037B
:10508C008B800B88DC0B44EA4E0EA1F802E05B002F
:10509C000B80401E00B21FFA8CFCBCF1100FE0D349
:1050AC00CB88202B1CD34B88B1F800C04FEAC33EF1
:1050BC004EEA5C0CA1F800C0B1F804C04FEACC3E3B
:1050CC004EEA53034B80CB884FEAC33E4EEA5C0C4E
:1050DC00A1F804C05B08CB80401C00B2202BE2D2AC
:1050EC00CB8803F00F03CB80CB881A43CA8010BD4A
:1050FC002DE9005003D34942404261F1000100F018
:10510C001BF8BDE800505FEA4C0C05D34942404205
:10511C0061F100011CEA0C0F03D55B42524263F1B2
:10512C000003704713F0004C03D55B42524263F10D
:10513C0000039CEA210CDBD151EA030C0ED1002AAE
:10514C001FBF8446B0FBF2F002FB10C2704700F0A8
:10515C00A9BF0B00020000210020704752EA030C8B
:10516C00F5D02DE9F041002400250F00060052EA8D
:10517C0003081FD05FF0000892185B4108D2BB42B5
:10518C0008BFB24298BF08F10108F5D918F1000820
:10519C005FEA33034FEA3202B01A77EB030124BF04
:1051AC000F46064664416D415B084FEA3202B8F186
:1051BC000108F1DA2000290032003B00BDE8F08143
:1051CC0070B5050005F10F0407208443012000F0A1
:1051DC004DF9A54204D3012000F06EF9002070BDFA
:1051EC00082C04D2082402E0083000F071F9224D9A
:1051FC00286801000CD1291D00E0011D0868A0B130
:10520C000268A242F9D315E01368A34212D2111D11
:10521C000A68002AF8D10068291D03E01368A3422C
:10522C0008D2111D0A688242F8D100F0CBFD00288B
:10523C00DAD100210029CED00E6830680838A0429F
:10524C0002D27068086008E0A019086072684260B9
:10525C003068001B0A6810603460086818B1416837
:10526C0009B1001D00E000202860012000F024F9A5
:10527C0006F1080070BD00BF68080020058C09010C
:10528C00A101850109011500250175089501B1825F
:10529C008501090191828502090215002501750815
:1052AC009501B182850209029182850309031500DB
:1052BC00250175089501B182850309039182850446
:1052CC0009041500250175089501B18285040904AE
:1052DC009182850509051500250175018182090555
:1052EC007501B1827507818385057507B1838506C4
:1052FC000906150025017501818209067501B18227
:10530C007507818385067507B18385070907150025
:10531C0026FF007508818285070907B182C000004D
:10532C004FF4001C1CEB410F84BF6FF00000704762
:10533C005FEAF171B1F1E04128BF614513D3490037
:10534C0038BFB1F17F5F32D289084FEA01115FEAB1
:10535C00310141EA50710001084608BF10F0010FFD
:10536C0088BF401C70478C464908C90241EA50511D
:10537C00C00218BF41F0010141F000414FEA6C50EE
:10538C00173011D45FEA5C0C01FA00FCC0F11F006D
:10539C0021FA00F15FEA310148085CEB0C0C08BF04
:1053AC00C04241F1000070474FEACC707047C90110
:1053BC00FF31C8057047000080B5024800F016FDAB
:1053CC0001BD00BF1C60000880B51B4800F00EFD3D
:1053DC0002224FF48271194800F092FA1748407873
:1053EC00421E9241D20F15480078012804D00228A1
:1053FC0009D003280DD013E0D2B24FF4007110483D
:10540C00FDF7C4F811E0D2B220210D48FDF7BEF82B
:10541C000BE0D2B24FF480710948FDF7B7F804E005
:10542C004FF6DF410648FDF72BF94FF440510120B0
:10543C00FEF7FCFB01BD00BFB85F0008B4080020FC
:10544C00000C014010B5214C201D00F03FFB04F175
:10545C00080000F03BFB04F10C0000F037FB04F1FA
:10546C001000BDE8104000F031BB000038B504005E
:10547C00164D286898B9281D00F020FB05F108008E
:10548C0000F01CFB05F10C0000F018FB05F11000FE
:10549C0000F014FB00220021064800F05DF801200A
:1054AC002860042C04D205EB8400001D00F016FBD0
:1054BC0031BD00BF5154000880B5042805D2034902
:1054CC0001EB8000001D00F011FB01BD5408002011
:1054DC0010B5F0B1A0F108042068082819D310F019
:1054EC00070F16D10120FFF7C1FF1A48416809B117
:1054FC008C4203D2616044601BE019004B680BB115
:10550C00A342FAD30A6853189C4203D20120FFF736
:10551C00D3FF10BDA34204D123689A180A600C0073
:10552C0007E04A681AB123681B199A42EED36260ED
:10553C004C6061680029E9D0226812198A42E5D1D1
:10554C000021016060682168026851182160406880
:10555C006060DBE76808002080B51D4BD3F800C005
:10556C00DFF828E0F44506D20CF10C0EC3F800E08D
:10557C00BCF1000F01D1012002BDCCF80010CCF819
:10558C000400CCF80820002002BD00BFD407002086
:10559C00002000BFF8B50E4C27683E0014D00B4D10
:1055AC0000E08847AE420FD02068874201D0060049
:1055BC0007000C3E71680800F4D000207060306861
:1055CC000028EED18847EDE7F1BD00BF00060020B2
:1055DC00B00A002070B500F10801026801EBC202AC
:1055EC00406802EBC00000239C469E4601E0AC42A2
:1055FC0007D1824200D170BD52F8044B52F8045BC3
:10560C002D19634502BF51F8043B51F804CB9C445F
:10561C006345ECD0AC42EAD0BEF1000F08BF13F9E1
:10562C0001EB002601E004F8016BBEF1000FEFD096
:10563C00AC42EDD06345EBD0BEF1000F52BFAEF1E2
:10564C00010E13F8016B0EF1010EECE78B0707D07E
:10565C00521E24BF11F8013B00F8013BF6D87047ED
:10566C0083071ED1103A07D330B4B1E83810103A82
:10567C00A0E83810F9D230BC530724BFB1E80810A9
:10568C00A0E8081044BF51F8043B40F8043BD20793
:10569C0024BF31F8022B20F8022B44BF0B78037087
:1056AC007047083A07D3B1E80810083A40F8043BB1
:1056BC0040F804CBF7D25307E4E7000030BF704743
:1056CC0020BF704738B505000C000020002D05D018
:1056DC00012D03D0D021124800F090FBE4B2012C34
:1056EC0006D0E4B2022C03D0D1210D4800F086FB89
:1056FC000C4800680321884328430A49086007487E
:10570C00006850F0040005490860E4B2012C02D195
:10571C00FFF7D4FF01E0FFF7D3FF31BD10ED00E040
:10572C00285A000800700040C9B2830706D0521EE8
:10573C0022D310F8013B9942F7D11FE0083A13D35A
:10574C0002F1040241EA012141EA014150F8043B13
:10575C00121F21BF4B40A3F1013C2CEA030C1CF09F
:10576C00803FF3D0C9B2001F083210F8013B521E23
:10577C0028BF91EA030FF8D818BF0120401E7047CC
:10578C00F446400D40EAC120490006D200F013F85F
:10579C00004248BF6FF00040604700F00CF84FF03B
:1057AC00004188428CBF084640426047400D40EAA9
:1057BC00C12049000CD240F00040490DA1F5806198
:1057CC00491C05D4D1F11F0154BFC840C017704704
:1057DC004FF0000070470000443A5C576B506A74FD
:1057EC002E5372635C4D53746F7279332E305C4C54
:1057FC0069627261726965735C53544D3332463120
:10580C0030785F5374645065726970685F44726974
:10581C007665725C7372635C73746D3332663130AF
:10582C00785F657874692E6300000000443A5C5719
:10583C006B506A742E5372635C4D53746F72793370
:10584C002E305C4C69627261726965735C53544DA5
:10585C003332463130785F537464506572697068C6
:10586C005F4472697665725C7372635C73746D33DA
:10587C0032663130785F6770696F2E63000000000C
:10588C00443A5C576B506A742E5372635C4D53747C
:10589C006F7279332E305C4C696272617269657318
:1058AC005C53544D3332463130785F5374645065D9
:1058BC00726970685F4472697665725C7372635C5E
:1058CC0073746D3332663130785F75736172742E18
:1058DC006300000092B2521C521089B2114B13EBB0
:1058EC0041030AE00178401C90F800C051EA0C21F9
:1058FC0019809B1C9B1C401C521E002AF2D1704725
:10590C0092B2521C521089B2064B13EB410105E0C6
:10591C000B680380091D401C401C521E002AF7D145
:10592C007047000000600040014648074FF0807C43
:10593C001CEB410F05D30CBF41F4E0016FF00001EB
:10594C007047BCEB410F12D95FEA410C14D001F047
:10595C00004101F160514FEACC1C5FEA4C0CA1F5FF
:10596C008011FAD54FEA4C5001EBDC217047C9107D
:10597C0021F0E04101F1605170470000443A5C575E
:10598C006B506A742E5372635C4D53746F7279331F
:10599C002E305C4C69627261726965735C53544D54
:1059AC003332463130785F53746450657269706875
:1059BC005F4472697665725C7372635C73746D3389
:1059CC0032663130785F6164632E6300443A5C5711
:1059DC006B506A742E5372635C4D53746F727933CF
:1059EC002E305C4C69627261726965735C53544D04
:1059FC003332463130785F53746450657269706825
:105A0C005F4472697665725C7372635C73746D3338
:105A1C0032663130785F646D612E6300443A5C57B6
:105A2C006B506A742E5372635C4D53746F7279337E
:105A3C002E305C4C69627261726965735C53544DB3
:105A4C003332463130785F537464506572697068D4
:105A5C005F4472697665725C7372635C73746D33E8
:105A6C0032663130785F7077722E6300443A5C573F
:105A7C006B506A742E5372635C4D53746F7279332E
:105A8C002E305C4C69627261726965735C53544D63
:105A9C003332463130785F53746450657269706884
:105AAC005F4472697665725C7372635C73746D3398
:105ABC0032663130785F7263632E630080B50F49B4
:105ACC0009680A0018BF884701BD000080B50C4961
